{"contracts/NFTCMSvDigitalSignature.sol":{"NFTCMS":{"abi":[{"inputs":[],"stateMutability":"nonpayable","type":"constructor"},{"inputs":[],"name":"AccessControlBadConfirmation","type":"error"},{"inputs":[{"internalType":"address","name":"account","type":"address"},{"internalType":"bytes32","name":"neededRole","type":"bytes32"}],"name":"AccessControlUnauthorizedAccount","type":"error"},{"inputs":[{"internalType":"address","name":"target","type":"address"}],"name":"AddressEmptyCode","type":"error"},{"inputs":[],"name":"ECDSAInvalidSignature","type":"error"},{"inputs":[{"internalType":"uint256","name":"length","type":"uint256"}],"name":"ECDSAInvalidSignatureLength","type":"error"},{"inputs":[{"internalType":"bytes32","name":"s","type":"bytes32"}],"name":"ECDSAInvalidSignatureS","type":"error"},{"inputs":[{"internalType":"address","name":"implementation","type":"address"}],"name":"ERC1967InvalidImplementation","type":"error"},{"inputs":[],"name":"ERC1967NonPayable","type":"error"},{"inputs":[{"internalType":"address","name":"sender","type":"address"},{"internalType":"uint256","name":"tokenId","type":"uint256"},{"internalType":"address","name":"owner","type":"address"}],"name":"ERC721IncorrectOwner","type":"error"},{"inputs":[{"internalType":"address","name":"operator","type":"address"},{"internalType":"uint256","name":"tokenId","type":"uint256"}],"name":"ERC721InsufficientApproval","type":"error"},{"inputs":[{"internalType":"address","name":"approver","type":"address"}],"name":"ERC721InvalidApprover","type":"error"},{"inputs":[{"internalType":"address","name":"operator","type":"address"}],"name":"ERC721InvalidOperator","type":"error"},{"inputs":[{"internalType":"address","name":"owner","type":"address"}],"name":"ERC721InvalidOwner","type":"error"},{"inputs":[{"internalType":"address","name":"receiver","type":"address"}],"name":"ERC721InvalidReceiver","type":"error"},{"inputs":[{"internalType":"address","name":"sender","type":"address"}],"name":"ERC721InvalidSender","type":"error"},{"inputs":[{"internalType":"uint256","name":"tokenId","type":"uint256"}],"name":"ERC721NonexistentToken","type":"error"},{"inputs":[],"name":"EnforcedPause","type":"error"},{"inputs":[],"name":"ExpectedPause","type":"error"},{"inputs":[],"name":"FailedCall","type":"error"},{"inputs":[],"name":"InvalidInitialization","type":"error"},{"inputs":[],"name":"NotInitializing","type":"error"},{"inputs":[],"name":"ReentrancyGuardReentrantCall","type":"error"},{"inputs":[],"name":"UUPSUnauthorizedCallContext","type":"error"},{"inputs":[{"internalType":"bytes32","name":"slot","type":"bytes32"}],"name":"UUPSUnsupportedProxiableUUID","type":"error"},{"anonymous":false,"inputs":[{"indexed":true,"internalType":"address","name":"owner","type":"address"},{"indexed":true,"internalType":"address","name":"approved","type":"address"},{"indexed":true,"internalType":"uint256","name":"tokenId","type":"uint256"}],"name":"Approval","type":"event"},{"anonymous":false,"inputs":[{"indexed":true,"internalType":"address","name":"owner","type":"address"},{"indexed":true,"internalType":"address","name":"operator","type":"address"},{"indexed":false,"internalType":"bool","name":"approved","type":"bool"}],"name":"ApprovalForAll","type":"event"},{"anonymous":false,"inputs":[{"indexed":true,"internalType":"uint256","name":"tokenId","type":"uint256"},{"indexed":true,"internalType":"address","name":"student","type":"address"},{"indexed":true,"internalType":"address","name":"institution","type":"address"}],"name":"CredentialIssued","type":"event"},{"anonymous":false,"inputs":[{"indexed":true,"internalType":"uint256","name":"tokenId","type":"uint256"},{"indexed":false,"internalType":"enum NFTCMS.CredentialStatus","name":"previousStatus","type":"uint8"},{"indexed":false,"internalType":"enum NFTCMS.CredentialStatus","name":"newStatus","type":"uint8"},{"indexed":false,"internalType":"string","name":"reason","type":"string"}],"name":"CredentialStatusChanged","type":"event"},{"anonymous":false,"inputs":[{"indexed":false,"internalType":"uint64","name":"version","type":"uint64"}],"name":"Initialized","type":"event"},{"anonymous":false,"inputs":[{"indexed":true,"internalType":"address","name":"institution","type":"address"}],"name":"InstitutionRegistered","type":"event"},{"anonymous":false,"inputs":[{"indexed":true,"internalType":"address","name":"institution","type":"address"},{"indexed":false,"internalType":"string","name":"reason","type":"string"}],"name":"InstitutionRevoked","type":"event"},{"anonymous":false,"inputs":[{"indexed":true,"internalType":"address","name":"manager","type":"address"}],"name":"ManagerRegistered","type":"event"},{"anonymous":false,"inputs":[{"indexed":true,"internalType":"address","name":"manager","type":"address"},{"indexed":false,"internalType":"string","name":"reason","type":"string"}],"name":"ManagerRevoked","type":"event"},{"anonymous":false,"inputs":[{"indexed":false,"internalType":"address","name":"account","type":"address"}],"name":"Paused","type":"event"},{"anonymous":false,"inputs":[{"indexed":true,"internalType":"bytes32","name":"role","type":"bytes32"},{"indexed":true,"internalType":"bytes32","name":"previousAdminRole","type":"bytes32"},{"indexed":true,"internalType":"bytes32","name":"newAdminRole","type":"bytes32"}],"name":"RoleAdminChanged","type":"event"},{"anonymous":false,"inputs":[{"indexed":true,"internalType":"bytes32","name":"role","type":"bytes32"},{"indexed":true,"internalType":"address","name":"account","type":"address"},{"indexed":true,"internalType":"address","name":"sender","type":"address"}],"name":"RoleGranted","type":"event"},{"anonymous":false,"inputs":[{"indexed":true,"internalType":"bytes32","name":"role","type":"bytes32"},{"indexed":true,"internalType":"address","name":"account","type":"address"},{"indexed":true,"internalType":"address","name":"sender","type":"address"}],"name":"RoleRevoked","type":"event"},{"anonymous":false,"inputs":[{"indexed":true,"internalType":"address","name":"from","type":"address"},{"indexed":true,"internalType":"address","name":"to","type":"address"},{"indexed":true,"internalType":"uint256","name":"tokenId","type":"uint256"}],"name":"Transfer","type":"event"},{"anonymous":false,"inputs":[{"indexed":false,"internalType":"address","name":"account","type":"address"}],"name":"Unpaused","type":"event"},{"anonymous":false,"inputs":[{"indexed":true,"internalType":"address","name":"implementation","type":"address"}],"name":"Upgraded","type":"event"},{"inputs":[],"name":"DEFAULT_ADMIN_ROLE","outputs":[{"internalType":"bytes32","name":"","type":"bytes32"}],"stateMutability":"view","type":"function"},{"inputs":[],"name":"INSTITUTION_ROLE","outputs":[{"internalType":"bytes32","name":"","type":"bytes32"}],"stateMutability":"view","type":"function"},{"inputs":[],"name":"MANAGER_ROLE","outputs":[{"internalType":"bytes32","name":"","type":"bytes32"}],"stateMutability":"view","type":"function"},{"inputs":[],"name":"UPGRADE_INTERFACE_VERSION","outputs":[{"internalType":"string","name":"","type":"string"}],"stateMutability":"view","type":"function"},{"inputs":[{"internalType":"address","name":"to","type":"address"},{"internalType":"uint256","name":"tokenId","type":"uint256"}],"name":"approve","outputs":[],"stateMutability":"nonpayable","type":"function"},{"inputs":[{"internalType":"address","name":"owner","type":"address"}],"name":"balanceOf","outputs":[{"internalType":"uint256","name":"","type":"uint256"}],"stateMutability":"view","type":"function"},{"inputs":[{"internalType":"uint256","name":"","type":"uint256"}],"name":"credentials","outputs":[{"internalType":"uint256","name":"tokenId","type":"uint256"},{"internalType":"string","name":"ipfsURI","type":"string"},{"internalType":"enum NFTCMS.CredentialStatus","name":"status","type":"uint8"},{"internalType":"bytes","name":"signature","type":"bytes"},{"internalType":"address","name":"signer","type":"address"}],"stateMutability":"view","type":"function"},{"inputs":[{"internalType":"uint256","name":"tokenId","type":"uint256"}],"name":"getApproved","outputs":[{"internalType":"address","name":"","type":"address"}],"stateMutability":"view","type":"function"},{"inputs":[{"internalType":"bytes32","name":"role","type":"bytes32"}],"name":"getRoleAdmin","outputs":[{"internalType":"bytes32","name":"","type":"bytes32"}],"stateMutability":"view","type":"function"},{"inputs":[{"internalType":"bytes32","name":"role","type":"bytes32"},{"internalType":"address","name":"account","type":"address"}],"name":"grantRole","outputs":[],"stateMutability":"nonpayable","type":"function"},{"inputs":[{"internalType":"bytes32","name":"role","type":"bytes32"},{"internalType":"address","name":"account","type":"address"}],"name":"hasRole","outputs":[{"internalType":"bool","name":"","type":"bool"}],"stateMutability":"view","type":"function"},{"inputs":[],"name":"initialize","outputs":[],"stateMutability":"nonpayable","type":"function"},{"inputs":[{"internalType":"address","name":"owner","type":"address"},{"internalType":"address","name":"operator","type":"address"}],"name":"isApprovedForAll","outputs":[{"internalType":"bool","name":"","type":"bool"}],"stateMutability":"view","type":"function"},{"inputs":[{"internalType":"address","name":"_student","type":"address"},{"internalType":"string","name":"_ipfsURI","type":"string"},{"internalType":"bytes32","name":"_hash","type":"bytes32"},{"internalType":"bytes","name":"_signature","type":"bytes"}],"name":"issueCredential","outputs":[],"stateMutability":"nonpayable","type":"function"},{"inputs":[],"name":"name","outputs":[{"internalType":"string","name":"","type":"string"}],"stateMutability":"view","type":"function"},{"inputs":[{"internalType":"uint256","name":"tokenId","type":"uint256"}],"name":"ownerOf","outputs":[{"internalType":"address","name":"","type":"address"}],"stateMutability":"view","type":"function"},{"inputs":[],"name":"pause","outputs":[],"stateMutability":"nonpayable","type":"function"},{"inputs":[],"name":"paused","outputs":[{"internalType":"bool","name":"","type":"bool"}],"stateMutability":"view","type":"function"},{"inputs":[],"name":"proxiableUUID","outputs":[{"internalType":"bytes32","name":"","type":"bytes32"}],"stateMutability":"view","type":"function"},{"inputs":[{"internalType":"address","name":"_institution","type":"address"}],"name":"registerInstitution","outputs":[],"stateMutability":"nonpayable","type":"function"},{"inputs":[{"internalType":"address","name":"_manager","type":"address"}],"name":"registerManager","outputs":[],"stateMutability":"nonpayable","type":"function"},{"inputs":[{"internalType":"bytes32","name":"role","type":"bytes32"},{"internalType":"address","name":"callerConfirmation","type":"address"}],"name":"renounceRole","outputs":[],"stateMutability":"nonpayable","type":"function"},{"inputs":[{"internalType":"uint256","name":"tokenId","type":"uint256"},{"internalType":"string","name":"reason","type":"string"}],"name":"revokeCredential","outputs":[],"stateMutability":"nonpayable","type":"function"},{"inputs":[{"internalType":"address","name":"_institution","type":"address"},{"internalType":"string","name":"reason","type":"string"}],"name":"revokeInstitution","outputs":[],"stateMutability":"nonpayable","type":"function"},{"inputs":[{"internalType":"address","name":"_manager","type":"address"},{"internalType":"string","name":"reason","type":"string"}],"name":"revokeManager","outputs":[],"stateMutability":"nonpayable","type":"function"},{"inputs":[{"internalType":"bytes32","name":"role","type":"bytes32"},{"internalType":"address","name":"account","type":"address"}],"name":"revokeRole","outputs":[],"stateMutability":"nonpayable","type":"function"},{"inputs":[{"internalType":"address","name":"from","type":"address"},{"internalType":"address","name":"to","type":"address"},{"internalType":"uint256","name":"tokenId","type":"uint256"}],"name":"safeTransferFrom","outputs":[],"stateMutability":"nonpayable","type":"function"},{"inputs":[{"internalType":"address","name":"from","type":"address"},{"internalType":"address","name":"to","type":"address"},{"internalType":"uint256","name":"tokenId","type":"uint256"},{"internalType":"bytes","name":"data","type":"bytes"}],"name":"safeTransferFrom","outputs":[],"stateMutability":"nonpayable","type":"function"},{"inputs":[{"internalType":"address","name":"operator","type":"address"},{"internalType":"bool","name":"approved","type":"bool"}],"name":"setApprovalForAll","outputs":[],"stateMutability":"nonpayable","type":"function"},{"inputs":[{"internalType":"bytes4","name":"interfaceId","type":"bytes4"}],"name":"supportsInterface","outputs":[{"internalType":"bool","name":"","type":"bool"}],"stateMutability":"view","type":"function"},{"inputs":[],"name":"symbol","outputs":[{"internalType":"string","name":"","type":"string"}],"stateMutability":"view","type":"function"},{"inputs":[{"internalType":"uint256","name":"tokenId","type":"uint256"}],"name":"tokenURI","outputs":[{"internalType":"string","name":"","type":"string"}],"stateMutability":"view","type":"function"},{"inputs":[{"internalType":"address","name":"from","type":"address"},{"internalType":"address","name":"to","type":"address"},{"internalType":"uint256","name":"tokenId","type":"uint256"}],"name":"transferFrom","outputs":[],"stateMutability":"nonpayable","type":"function"},{"inputs":[],"name":"unpause","outputs":[],"stateMutability":"nonpayable","type":"function"},{"inputs":[{"internalType":"address","name":"newImplementation","type":"address"},{"internalType":"bytes","name":"data","type":"bytes"}],"name":"upgradeToAndCall","outputs":[],"stateMutability":"payable","type":"function"},{"inputs":[{"internalType":"uint256","name":"tokenId","type":"uint256"},{"internalType":"bytes32","name":"hash","type":"bytes32"}],"name":"verifyCredential","outputs":[{"internalType":"bool","name":"","type":"bool"}],"stateMutability":"view","type":"function"},{"inputs":[{"internalType":"bytes32","name":"message","type":"bytes32"},{"internalType":"address","name":"signer","type":"address"},{"internalType":"bytes","name":"signature","type":"bytes"}],"name":"verifySignature","outputs":[{"internalType":"bool","name":"","type":"bool"}],"stateMutability":"pure","type":"function"}],"evm":{"bytecode":{"linkReferences":{},"object":"60a06040523073ffffffffffffffffffffffffffffffffffffffff1660809073ffffffffffffffffffffffffffffffffffffffff16815250600060015534801561004857600080fd5b50600160008190555061005f61006460201b60201c565b6101ce565b600061007461016860201b60201c565b90508060000160089054906101000a900460ff16156100bf576040517ff92ee8a900000000000000000000000000000000000000000000000000000000815260040160405180910390fd5b67ffffffffffffffff80168160000160009054906101000a900467ffffffffffffffff1667ffffffffffffffff16146101655767ffffffffffffffff8160000160006101000a81548167ffffffffffffffff021916908367ffffffffffffffff1602179055507fc7f505b2f371ae2175ee4913f4499e1f2633a7b5936321eed1cdaeb6115181d267ffffffffffffffff60405161015c91906101b3565b60405180910390a15b50565b60007ff0c57e16840df040f15088dc2f81fe391c3923bec73e23a9662efc9c229c6a00905090565b600067ffffffffffffffff82169050919050565b6101ad81610190565b82525050565b60006020820190506101c860008301846101a4565b92915050565b6080516153606101f76000396000818161274401528181612799015261297601526153606000f3fe60806040526004361061021a5760003560e01c806370a0823111610123578063a217fddf116100ab578063d547741f1161006f578063d547741f146107be578063e0574e3f146107e7578063e985e9c514610828578063ec87621c14610865578063f06d80fc146108905761021a565b8063a217fddf146106d9578063a22cb46514610704578063ad3cb1cc1461072d578063b88d4fde14610758578063c87b56dd146107815761021a565b8063896695de116100f2578063896695de146105e257806391d148541461060b578063957a32051461064857806395d89b411461067157806398a3410d1461069c5761021a565b806370a082311461054e5780637baa47d91461058b5780638129fc1c146105b45780638456cb59146105cb5761021a565b80632f2ff15d116101a65780634f1ef286116101755780634f1ef2861461047657806352d1902d14610492578063593dc75c146104bd5780635c975abb146104e65780636352211e146105115761021a565b80632f2ff15d146103e457806336568abe1461040d5780633f4ba83a1461043657806342842e0e1461044d5761021a565b80631b929c21116101ed5780631b929c21146102ed5780631b9519a81461031857806323b872dd14610355578063248a9ca31461037e5780632b2da97e146103bb5761021a565b806301ffc9a71461021f57806306fdde031461025c578063081812fc14610287578063095ea7b3146102c4575b600080fd5b34801561022b57600080fd5b5061024660048036038101906102419190613c8f565b6108b9565b6040516102539190613cd7565b60405180910390f35b34801561026857600080fd5b506102716108cb565b60405161027e9190613d82565b60405180910390f35b34801561029357600080fd5b506102ae60048036038101906102a99190613dda565b61096c565b6040516102bb9190613e48565b60405180910390f35b3480156102d057600080fd5b506102eb60048036038101906102e69190613e8f565b610988565b005b3480156102f957600080fd5b5061030261099e565b60405161030f9190613ee8565b60405180910390f35b34801561032457600080fd5b5061033f600480360381019061033a9190613f2f565b6109c2565b60405161034c9190613cd7565b60405180910390f35b34801561036157600080fd5b5061037c60048036038101906103779190613f6f565b610b05565b005b34801561038a57600080fd5b506103a560048036038101906103a09190613fc2565b610c07565b6040516103b29190613ee8565b60405180910390f35b3480156103c757600080fd5b506103e260048036038101906103dd9190613fef565b610c35565b005b3480156103f057600080fd5b5061040b6004803603810190610406919061401c565b610dd3565b005b34801561041957600080fd5b50610434600480360381019061042f919061401c565b610df5565b005b34801561044257600080fd5b5061044b610e70565b005b34801561045957600080fd5b50610474600480360381019061046f9190613f6f565b610ea4565b005b610490600480360381019061048b9190614191565b610ec4565b005b34801561049e57600080fd5b506104a7610ee3565b6040516104b49190613ee8565b60405180910390f35b3480156104c957600080fd5b506104e460048036038101906104df919061428e565b610f16565b005b3480156104f257600080fd5b506104fb611212565b6040516105089190613cd7565b60405180910390f35b34801561051d57600080fd5b5061053860048036038101906105339190613dda565b611237565b6040516105459190613e48565b60405180910390f35b34801561055a57600080fd5b5061057560048036038101906105709190613fef565b611249565b604051610582919061433c565b60405180910390f35b34801561059757600080fd5b506105b260048036038101906105ad9190614357565b611312565b005b3480156105c057600080fd5b506105c9611421565b005b3480156105d757600080fd5b506105e0611640565b005b3480156105ee57600080fd5b5061060960048036038101906106049190614357565b611674565b005b34801561061757600080fd5b50610632600480360381019061062d919061401c565b611766565b60405161063f9190613cd7565b60405180910390f35b34801561065457600080fd5b5061066f600480360381019061066a91906143b3565b6117df565b005b34801561067d57600080fd5b50610686611976565b6040516106939190613d82565b60405180910390f35b3480156106a857600080fd5b506106c360048036038101906106be919061440f565b611a17565b6040516106d09190613cd7565b60405180910390f35b3480156106e557600080fd5b506106ee611a76565b6040516106fb9190613ee8565b60405180910390f35b34801561071057600080fd5b5061072b600480360381019061072691906144aa565b611a7d565b005b34801561073957600080fd5b50610742611a93565b60405161074f9190613d82565b60405180910390f35b34801561076457600080fd5b5061077f600480360381019061077a91906144ea565b611acc565b005b34801561078d57600080fd5b506107a860048036038101906107a39190613dda565b611af1565b6040516107b59190613d82565b60405180910390f35b3480156107ca57600080fd5b506107e560048036038101906107e0919061401c565b611be1565b005b3480156107f357600080fd5b5061080e60048036038101906108099190613dda565b611c03565b60405161081f959493929190614639565b60405180910390f35b34801561083457600080fd5b5061084f600480360381019061084a919061469a565b611d76565b60405161085c9190613cd7565b60405180910390f35b34801561087157600080fd5b5061087a611e18565b6040516108879190613ee8565b60405180910390f35b34801561089c57600080fd5b506108b760048036038101906108b29190613fef565b611e3c565b005b60006108c482611ff7565b9050919050565b606060006108d7612071565b90508060000180546108e890614709565b80601f016020809104026020016040519081016040528092919081815260200182805461091490614709565b80156109615780601f1061093657610100808354040283529160200191610961565b820191906000526020600020905b81548152906001019060200180831161094457829003601f168201915b505050505091505090565b600061097782612099565b5061098182612121565b9050919050565b61099a828261099561216c565b612174565b5050565b7f01f18e249044142f95a61b39bad5f99f3c70699c83bb85a1ad87fe9e68bd85d181565b60006109cd83612186565b610a0c576040517f08c379a0000000000000000000000000000000000000000000000000000000008152600401610a0390614786565b60405180910390fd5b6000600260008581526020019081526020016000206003018054610a2f90614709565b80601f0160208091040260200160405190810160405280929190818152602001828054610a5b90614709565b8015610aa85780601f10610a7d57610100808354040283529160200191610aa8565b820191906000526020600020905b815481529060010190602001808311610a8b57829003601f168201915b5050505050905060006002600086815260200190815260200160002060040160009054906101000a900473ffffffffffffffffffffffffffffffffffffffff1690506000610af7858385611a17565b905080935050505092915050565b600073ffffffffffffffffffffffffffffffffffffffff168273ffffffffffffffffffffffffffffffffffffffff1603610b775760006040517f64a0ae92000000000000000000000000000000000000000000000000000000008152600401610b6e9190613e48565b60405180910390fd5b6000610b8b8383610b8661216c565b612213565b90508373ffffffffffffffffffffffffffffffffffffffff168173ffffffffffffffffffffffffffffffffffffffff1614610c01578382826040517f64283d7b000000000000000000000000000000000000000000000000000000008152600401610bf8939291906147a6565b60405180910390fd5b50505050565b600080610c12612440565b905080600001600084815260200190815260200160002060010154915050919050565b610c426000801b33612468565b610c6c7f241ecf16d79d0f8dbfb92cbc07fe17840425976cf0667f022fe9877caa831b0882611766565b15610cac576040517f08c379a0000000000000000000000000000000000000000000000000000000008152600401610ca390614829565b60405180910390fd5b610cd67f01f18e249044142f95a61b39bad5f99f3c70699c83bb85a1ad87fe9e68bd85d182611766565b15610d16576040517f08c379a0000000000000000000000000000000000000000000000000000000008152600401610d0d906148bb565b60405180910390fd5b610d236000801b82611766565b15610d63576040517f08c379a0000000000000000000000000000000000000000000000000000000008152600401610d5a90614927565b60405180910390fd5b610d8d7f241ecf16d79d0f8dbfb92cbc07fe17840425976cf0667f022fe9877caa831b0882610dd3565b8073ffffffffffffffffffffffffffffffffffffffff167f594022ae30f535100bd2169ab77ab37c1dba3d7e89d04bd6bf17b121a3ca7c2560405160405180910390a250565b610ddc82610c07565b610de5816124b9565b610def83836124cd565b50505050565b610dfd61216c565b73ffffffffffffffffffffffffffffffffffffffff168173ffffffffffffffffffffffffffffffffffffffff1614610e61576040517f6697b23200000000000000000000000000000000000000000000000000000000815260040160405180910390fd5b610e6b82826125ce565b505050565b610e9a7f241ecf16d79d0f8dbfb92cbc07fe17840425976cf0667f022fe9877caa831b0833612468565b610ea26126d0565b565b610ebf83838360405180602001604052806000815250611acc565b505050565b610ecc612742565b610ed582612828565b610edf8282612855565b5050565b6000610eed612974565b7f360894a13ba1a3210667c828492db98dca3e2076cc3735a920a3ca505d382bbc60001b905090565b610f407f01f18e249044142f95a61b39bad5f99f3c70699c83bb85a1ad87fe9e68bd85d133612468565b610f486129fb565b610f50612a3c565b610f58612a82565b6000610f62612a9c565b90506000600260008381526020019081526020016000206000015414610fbd576040517f08c379a0000000000000000000000000000000000000000000000000000000008152600401610fb490614993565b60405180910390fd5b6000600385604051610fcf91906149ef565b9081526020016040518091039020541461101e576040517f08c379a000000000000000000000000000000000000000000000000000000000815260040161101590614a78565b60405180910390fd5b611029833384611a17565b611068576040517f08c379a000000000000000000000000000000000000000000000000000000000815260040161105f90614ae4565b60405180910390fd5b6040518060a00160405280828152602001858152602001600060018111156110935761109261456d565b5b81526020018381526020013373ffffffffffffffffffffffffffffffffffffffff16815250600260008381526020019081526020016000206000820151816000015560208201518160010190816110ea9190614cb0565b5060408201518160020160006101000a81548160ff021916908360018111156111165761111561456d565b5b021790555060608201518160030190816111309190614ddd565b5060808201518160040160006101000a81548173ffffffffffffffffffffffffffffffffffffffff021916908373ffffffffffffffffffffffffffffffffffffffff1602179055509050508060038560405161118c91906149ef565b9081526020016040518091039020819055506111a88582612aa6565b3373ffffffffffffffffffffffffffffffffffffffff168573ffffffffffffffffffffffffffffffffffffffff16827fd3bd681d2fe91fda330d69feca5dc6a668f4862360861444de295f833e35105360405160405180910390a45061120c612b9f565b50505050565b60008061121d612ba9565b90508060000160009054906101000a900460ff1691505090565b600061124282612099565b9050919050565b600080611254612071565b9050600073ffffffffffffffffffffffffffffffffffffffff168373ffffffffffffffffffffffffffffffffffffffff16036112c85760006040517f89c62b640000000000000000000000000000000000000000000000000000000081526004016112bf9190613e48565b60405180910390fd5b8060030160008473ffffffffffffffffffffffffffffffffffffffff1673ffffffffffffffffffffffffffffffffffffffff16815260200190815260200160002054915050919050565b61133c7f241ecf16d79d0f8dbfb92cbc07fe17840425976cf0667f022fe9877caa831b0833612468565b6113667f01f18e249044142f95a61b39bad5f99f3c70699c83bb85a1ad87fe9e68bd85d183611766565b6113a5576040517f08c379a000000000000000000000000000000000000000000000000000000000815260040161139c90614efb565b60405180910390fd5b6113cf7f01f18e249044142f95a61b39bad5f99f3c70699c83bb85a1ad87fe9e68bd85d183611be1565b8173ffffffffffffffffffffffffffffffffffffffff167fac234b0e1c8c07e26dc3f3271849babac0394b68f7d0e15f1b8d9ea28d482dfd826040516114159190613d82565b60405180910390a25050565b600061142b612bd1565b905060008160000160089054906101000a900460ff1615905060008260000160009054906101000a900467ffffffffffffffff1690506000808267ffffffffffffffff161480156114795750825b9050600060018367ffffffffffffffff161480156114ae575060003073ffffffffffffffffffffffffffffffffffffffff163b145b9050811580156114bc575080155b156114f3576040517ff92ee8a900000000000000000000000000000000000000000000000000000000815260040160405180910390fd5b60018560000160006101000a81548167ffffffffffffffff021916908367ffffffffffffffff16021790555083156115435760018560000160086101000a81548160ff0219169083151502179055505b6115b76040518060400160405280601481526020017f41636164656d69632043726564656e7469616c730000000000000000000000008152506040518060400160405280600581526020017f4143524544000000000000000000000000000000000000000000000000000000815250612bf9565b6115bf612c0f565b6115c7612c19565b6115cf612c2b565b6115dc6000801b336124cd565b5083156116395760008560000160086101000a81548160ff0219169083151502179055507fc7f505b2f371ae2175ee4913f4499e1f2633a7b5936321eed1cdaeb6115181d260016040516116309190614f6a565b60405180910390a15b5050505050565b61166a7f241ecf16d79d0f8dbfb92cbc07fe17840425976cf0667f022fe9877caa831b0833612468565b611672612c35565b565b6116816000801b33612468565b6116ab7f241ecf16d79d0f8dbfb92cbc07fe17840425976cf0667f022fe9877caa831b0883611766565b6116ea576040517f08c379a00000000000000000000000000000000000000000000000000000000081526004016116e190614fd1565b60405180910390fd5b6117147f241ecf16d79d0f8dbfb92cbc07fe17840425976cf0667f022fe9877caa831b0883611be1565b8173ffffffffffffffffffffffffffffffffffffffff167f2a65d71ddd7e0fc167105c9d6a51832464fca91d67b3d8871c2ed3d1fab227878260405161175a9190613d82565b60405180910390a25050565b600080611771612440565b905080600001600085815260200190815260200160002060000160008473ffffffffffffffffffffffffffffffffffffffff1673ffffffffffffffffffffffffffffffffffffffff16815260200190815260200160002060009054906101000a900460ff1691505092915050565b6118097f01f18e249044142f95a61b39bad5f99f3c70699c83bb85a1ad87fe9e68bd85d133612468565b611811612a3c565b61181a82612186565b611859576040517f08c379a000000000000000000000000000000000000000000000000000000000815260040161185090614786565b60405180910390fd5b6000600260008481526020019081526020016000209050600060018111156118845761188361456d565b5b8160020160009054906101000a900460ff1660018111156118a8576118a761456d565b5b146118e8576040517f08c379a00000000000000000000000000000000000000000000000000000000081526004016118df9061503d565b60405180910390fd5b60008160020160009054906101000a900460ff16905060018260020160006101000a81548160ff021916908360018111156119265761192561456d565b5b0217905550837f2840fba00bdcda6213ac8f2df6bd0eaa93c78b71e752268cef89210a1705e4ef826001866040516119609392919061505d565b60405180910390a25050611972612b9f565b5050565b60606000611982612071565b905080600101805461199390614709565b80601f01602080910402602001604051908101604052809291908181526020018280546119bf90614709565b8015611a0c5780601f106119e157610100808354040283529160200191611a0c565b820191906000526020600020905b8154815290600101906020018083116119ef57829003601f168201915b505050505091505090565b600080611a2385612ca7565b90506000611a3a8483612cdd90919063ffffffff16565b90508073ffffffffffffffffffffffffffffffffffffffff168573ffffffffffffffffffffffffffffffffffffffff1614925050509392505050565b6000801b81565b611a8f611a8861216c565b8383612d09565b5050565b6040518060400160405280600581526020017f352e302e3000000000000000000000000000000000000000000000000000000081525081565b611ad7848484610b05565b611aeb611ae261216c565b85858585612e87565b50505050565b6060611afc82612186565b611b3b576040517f08c379a0000000000000000000000000000000000000000000000000000000008152600401611b3290614786565b60405180910390fd5b600260008381526020019081526020016000206001018054611b5c90614709565b80601f0160208091040260200160405190810160405280929190818152602001828054611b8890614709565b8015611bd55780601f10611baa57610100808354040283529160200191611bd5565b820191906000526020600020905b815481529060010190602001808311611bb857829003601f168201915b50505050509050919050565b611bea82610c07565b611bf3816124b9565b611bfd83836125ce565b50505050565b6002602052806000526040600020600091509050806000015490806001018054611c2c90614709565b80601f0160208091040260200160405190810160405280929190818152602001828054611c5890614709565b8015611ca55780601f10611c7a57610100808354040283529160200191611ca5565b820191906000526020600020905b815481529060010190602001808311611c8857829003601f168201915b5050505050908060020160009054906101000a900460ff1690806003018054611ccd90614709565b80601f0160208091040260200160405190810160405280929190818152602001828054611cf990614709565b8015611d465780601f10611d1b57610100808354040283529160200191611d46565b820191906000526020600020905b815481529060010190602001808311611d2957829003601f168201915b5050505050908060040160009054906101000a900473ffffffffffffffffffffffffffffffffffffffff16905085565b600080611d81612071565b90508060050160008573ffffffffffffffffffffffffffffffffffffffff1673ffffffffffffffffffffffffffffffffffffffff16815260200190815260200160002060008473ffffffffffffffffffffffffffffffffffffffff1673ffffffffffffffffffffffffffffffffffffffff16815260200190815260200160002060009054906101000a900460ff1691505092915050565b7f241ecf16d79d0f8dbfb92cbc07fe17840425976cf0667f022fe9877caa831b0881565b611e667f241ecf16d79d0f8dbfb92cbc07fe17840425976cf0667f022fe9877caa831b0833612468565b611e907f241ecf16d79d0f8dbfb92cbc07fe17840425976cf0667f022fe9877caa831b0882611766565b15611ed0576040517f08c379a0000000000000000000000000000000000000000000000000000000008152600401611ec790614829565b60405180910390fd5b611efa7f01f18e249044142f95a61b39bad5f99f3c70699c83bb85a1ad87fe9e68bd85d182611766565b15611f3a576040517f08c379a0000000000000000000000000000000000000000000000000000000008152600401611f31906148bb565b60405180910390fd5b611f476000801b82611766565b15611f87576040517f08c379a0000000000000000000000000000000000000000000000000000000008152600401611f7e90614927565b60405180910390fd5b611fb17f01f18e249044142f95a61b39bad5f99f3c70699c83bb85a1ad87fe9e68bd85d182610dd3565b8073ffffffffffffffffffffffffffffffffffffffff167f88fae95b509ff46ec752cd32b3c9e319fa7a8dd9aefc64fb91c1aa6ba4e8889760405160405180910390a250565b60007f7965db0b000000000000000000000000000000000000000000000000000000007bffffffffffffffffffffffffffffffffffffffffffffffffffffffff1916827bffffffffffffffffffffffffffffffffffffffffffffffffffffffff1916148061206a575061206982613038565b5b9050919050565b60007f80bb2b638cc20bc4d0a60d66940f3ab4a00c1d7b313497ca82fb0b4ab0079300905090565b6000806120a58361311a565b9050600073ffffffffffffffffffffffffffffffffffffffff168173ffffffffffffffffffffffffffffffffffffffff160361211857826040517f7e27328900000000000000000000000000000000000000000000000000000000815260040161210f919061433c565b60405180910390fd5b80915050919050565b60008061212c612071565b905080600401600084815260200190815260200160002060009054906101000a900473ffffffffffffffffffffffffffffffffffffffff16915050919050565b600033905090565b6121818383836001613165565b505050565b60003073ffffffffffffffffffffffffffffffffffffffff16636352211e836040518263ffffffff1660e01b81526004016121c1919061433c565b602060405180830381865afa9250505080156121fb57506040513d601f19601f820116820180604052508101906121f891906150b0565b60015b612208576000905061220e565b60019150505b919050565b60008061221e612071565b9050600061222b8561311a565b9050600073ffffffffffffffffffffffffffffffffffffffff168473ffffffffffffffffffffffffffffffffffffffff161461226d5761226c818587613339565b5b600073ffffffffffffffffffffffffffffffffffffffff168173ffffffffffffffffffffffffffffffffffffffff1614612300576122af600086600080613165565b60018260030160008373ffffffffffffffffffffffffffffffffffffffff1673ffffffffffffffffffffffffffffffffffffffff168152602001908152602001600020600082825403925050819055505b600073ffffffffffffffffffffffffffffffffffffffff168673ffffffffffffffffffffffffffffffffffffffff16146123855760018260030160008873ffffffffffffffffffffffffffffffffffffffff1673ffffffffffffffffffffffffffffffffffffffff168152602001908152602001600020600082825401925050819055505b8582600201600087815260200190815260200160002060006101000a81548173ffffffffffffffffffffffffffffffffffffffff021916908373ffffffffffffffffffffffffffffffffffffffff160217905550848673ffffffffffffffffffffffffffffffffffffffff168273ffffffffffffffffffffffffffffffffffffffff167fddf252ad1be2c89b69c2b068fc378daa952ba7f163c4a11628f55a4df523b3ef60405160405180910390a480925050509392505050565b60007f02dd7bc7dec4dceedda775e58dd541e08a116c6c53815c0bd028192f7b626800905090565b6124728282611766565b6124b55780826040517fe2517d3f0000000000000000000000000000000000000000000000000000000081526004016124ac9291906150dd565b60405180910390fd5b5050565b6124ca816124c561216c565b612468565b50565b6000806124d8612440565b90506124e48484611766565b6125c257600181600001600086815260200190815260200160002060000160008573ffffffffffffffffffffffffffffffffffffffff1673ffffffffffffffffffffffffffffffffffffffff16815260200190815260200160002060006101000a81548160ff02191690831515021790555061255e61216c565b73ffffffffffffffffffffffffffffffffffffffff168373ffffffffffffffffffffffffffffffffffffffff16857f2f8788117e7eff1d82e926ec794901d17c78024a50270940304540a733656f0d60405160405180910390a460019150506125c8565b60009150505b92915050565b6000806125d9612440565b90506125e58484611766565b156126c457600081600001600086815260200190815260200160002060000160008573ffffffffffffffffffffffffffffffffffffffff1673ffffffffffffffffffffffffffffffffffffffff16815260200190815260200160002060006101000a81548160ff02191690831515021790555061266061216c565b73ffffffffffffffffffffffffffffffffffffffff168373ffffffffffffffffffffffffffffffffffffffff16857ff6391f5c32d9c69d2a47ea670b442974b53935d1edc7fd64eb21e047a839171b60405160405180910390a460019150506126ca565b60009150505b92915050565b6126d86133fd565b60006126e2612ba9565b905060008160000160006101000a81548160ff0219169083151502179055507f5db9ee0a495bf2e6ff9c91a7834c1ba4fdd244a5e8aa4e537bd38aeae4b073aa61272a61216c565b6040516127379190613e48565b60405180910390a150565b7f000000000000000000000000000000000000000000000000000000000000000073ffffffffffffffffffffffffffffffffffffffff163073ffffffffffffffffffffffffffffffffffffffff1614806127ef57507f000000000000000000000000000000000000000000000000000000000000000073ffffffffffffffffffffffffffffffffffffffff166127d661343d565b73ffffffffffffffffffffffffffffffffffffffff1614155b15612826576040517fe07c8dba00000000000000000000000000000000000000000000000000000000815260040160405180910390fd5b565b6128527f241ecf16d79d0f8dbfb92cbc07fe17840425976cf0667f022fe9877caa831b0833612468565b50565b8173ffffffffffffffffffffffffffffffffffffffff166352d1902d6040518163ffffffff1660e01b8152600401602060405180830381865afa9250505080156128bd57506040513d601f19601f820116820180604052508101906128ba919061511b565b60015b6128fe57816040517f4c9c8ce30000000000000000000000000000000000000000000000000000000081526004016128f59190613e48565b60405180910390fd5b7f360894a13ba1a3210667c828492db98dca3e2076cc3735a920a3ca505d382bbc60001b811461296557806040517faa1d49a400000000000000000000000000000000000000000000000000000000815260040161295c9190613ee8565b60405180910390fd5b61296f8383613494565b505050565b7f000000000000000000000000000000000000000000000000000000000000000073ffffffffffffffffffffffffffffffffffffffff163073ffffffffffffffffffffffffffffffffffffffff16146129f9576040517fe07c8dba00000000000000000000000000000000000000000000000000000000815260040160405180910390fd5b565b612a03611212565b15612a3a576040517fd93c066500000000000000000000000000000000000000000000000000000000815260040160405180910390fd5b565b600260005403612a78576040517f3ee5aeb500000000000000000000000000000000000000000000000000000000815260040160405180910390fd5b6002600081905550565b60016000815480929190612a9590615177565b9190505550565b6000600154905090565b600073ffffffffffffffffffffffffffffffffffffffff168273ffffffffffffffffffffffffffffffffffffffff1603612b185760006040517f64a0ae92000000000000000000000000000000000000000000000000000000008152600401612b0f9190613e48565b60405180910390fd5b6000612b2683836000612213565b9050600073ffffffffffffffffffffffffffffffffffffffff168173ffffffffffffffffffffffffffffffffffffffff1614612b9a5760006040517f73c6ac6e000000000000000000000000000000000000000000000000000000008152600401612b919190613e48565b60405180910390fd5b505050565b6001600081905550565b60007fcd5ed15c6e187e77e9aee88184c21f4f2182ab5827cb3b7e07fbedcd63f03300905090565b60007ff0c57e16840df040f15088dc2f81fe391c3923bec73e23a9662efc9c229c6a00905090565b612c01613507565b612c0b8282613547565b5050565b612c17613507565b565b612c21613507565b612c29613584565b565b612c33613507565b565b612c3d6129fb565b6000612c47612ba9565b905060018160000160006101000a81548160ff0219169083151502179055507f62e78cea01bee320cd4e420270b5ea74000d11b0c9f74754ebdbfc544b05a258612c8f61216c565b604051612c9c9190613e48565b60405180910390a150565b60007f19457468657265756d205369676e6564204d6573736167653a0a33320000000060005281601c52603c6000209050919050565b600080600080612ced86866135b8565b925092509250612cfd8282613614565b82935050505092915050565b6000612d13612071565b9050600073ffffffffffffffffffffffffffffffffffffffff168373ffffffffffffffffffffffffffffffffffffffff1603612d8657826040517f5b08ba18000000000000000000000000000000000000000000000000000000008152600401612d7d9190613e48565b60405180910390fd5b818160050160008673ffffffffffffffffffffffffffffffffffffffff1673ffffffffffffffffffffffffffffffffffffffff16815260200190815260200160002060008573ffffffffffffffffffffffffffffffffffffffff1673ffffffffffffffffffffffffffffffffffffffff16815260200190815260200160002060006101000a81548160ff0219169083151502179055508273ffffffffffffffffffffffffffffffffffffffff168473ffffffffffffffffffffffffffffffffffffffff167f17307eab39ab6107e8899845ad3d59bd9653f200f220920489ca2b5937696c3184604051612e799190613cd7565b60405180910390a350505050565b60008373ffffffffffffffffffffffffffffffffffffffff163b1115613031578273ffffffffffffffffffffffffffffffffffffffff1663150b7a02868685856040518563ffffffff1660e01b8152600401612ee694939291906151bf565b6020604051808303816000875af1925050508015612f2257506040513d601f19601f82011682018060405250810190612f1f9190615220565b60015b612fa6573d8060008114612f52576040519150601f19603f3d011682016040523d82523d6000602084013e612f57565b606091505b506000815103612f9e57836040517f64a0ae92000000000000000000000000000000000000000000000000000000008152600401612f959190613e48565b60405180910390fd5b805181602001fd5b63150b7a0260e01b7bffffffffffffffffffffffffffffffffffffffffffffffffffffffff1916817bffffffffffffffffffffffffffffffffffffffffffffffffffffffff19161461302f57836040517f64a0ae920000000000000000000000000000000000000000000000000000000081526004016130269190613e48565b60405180910390fd5b505b5050505050565b60007f80ac58cd000000000000000000000000000000000000000000000000000000007bffffffffffffffffffffffffffffffffffffffffffffffffffffffff1916827bffffffffffffffffffffffffffffffffffffffffffffffffffffffff1916148061310357507f5b5e139f000000000000000000000000000000000000000000000000000000007bffffffffffffffffffffffffffffffffffffffffffffffffffffffff1916827bffffffffffffffffffffffffffffffffffffffffffffffffffffffff1916145b80613113575061311282613778565b5b9050919050565b600080613125612071565b905080600201600084815260200190815260200160002060009054906101000a900473ffffffffffffffffffffffffffffffffffffffff16915050919050565b600061316f612071565b905081806131aa5750600073ffffffffffffffffffffffffffffffffffffffff168373ffffffffffffffffffffffffffffffffffffffff1614155b156132de5760006131ba85612099565b9050600073ffffffffffffffffffffffffffffffffffffffff168473ffffffffffffffffffffffffffffffffffffffff161415801561322557508373ffffffffffffffffffffffffffffffffffffffff168173ffffffffffffffffffffffffffffffffffffffff1614155b801561323857506132368185611d76565b155b1561327a57836040517fa9fbf51f0000000000000000000000000000000000000000000000000000000081526004016132719190613e48565b60405180910390fd5b82156132dc57848673ffffffffffffffffffffffffffffffffffffffff168273ffffffffffffffffffffffffffffffffffffffff167f8c5be1e5ebec7d5bd14f71427d1e84f3dd0314c0f7b2291e5b200ac8c7c3b92560405160405180910390a45b505b8481600401600086815260200190815260200160002060006101000a81548173ffffffffffffffffffffffffffffffffffffffff021916908373ffffffffffffffffffffffffffffffffffffffff1602179055505050505050565b6133448383836137e2565b6133f857600073ffffffffffffffffffffffffffffffffffffffff168373ffffffffffffffffffffffffffffffffffffffff16036133b957806040517f7e2732890000000000000000000000000000000000000000000000000000000081526004016133b0919061433c565b60405180910390fd5b81816040517f177e802f0000000000000000000000000000000000000000000000000000000081526004016133ef92919061524d565b60405180910390fd5b505050565b613405611212565b61343b576040517f8dfc202b00000000000000000000000000000000000000000000000000000000815260040160405180910390fd5b565b600061346b7f360894a13ba1a3210667c828492db98dca3e2076cc3735a920a3ca505d382bbc60001b6138a3565b60000160009054906101000a900473ffffffffffffffffffffffffffffffffffffffff16905090565b61349d826138ad565b8173ffffffffffffffffffffffffffffffffffffffff167fbc7cd75a20ee27fd9adebab32041f755214dbc6bffa90cc0225b39da2e5c2d3b60405160405180910390a26000815111156134fa576134f4828261397a565b50613503565b6135026139fe565b5b5050565b61350f613a3b565b613545576040517fd7e6bcf800000000000000000000000000000000000000000000000000000000815260040160405180910390fd5b565b61354f613507565b6000613559612071565b90508281600001908161356c9190614cb0565b508181600101908161357e9190614cb0565b50505050565b61358c613507565b6000613596612ba9565b905060008160000160006101000a81548160ff02191690831515021790555050565b600080600060418451036135fd5760008060006020870151925060408701519150606087015160001a90506135ef88828585613a5b565b95509550955050505061360d565b60006002855160001b9250925092505b9250925092565b600060038111156136285761362761456d565b5b82600381111561363b5761363a61456d565b5b031561377457600160038111156136555761365461456d565b5b8260038111156136685761366761456d565b5b0361369f576040517ff645eedf00000000000000000000000000000000000000000000000000000000815260040160405180910390fd5b600260038111156136b3576136b261456d565b5b8260038111156136c6576136c561456d565b5b0361370b578060001c6040517ffce698f7000000000000000000000000000000000000000000000000000000008152600401613702919061433c565b60405180910390fd5b60038081111561371e5761371d61456d565b5b8260038111156137315761373061456d565b5b0361377357806040517fd78bce0c00000000000000000000000000000000000000000000000000000000815260040161376a9190613ee8565b60405180910390fd5b5b5050565b60007f01ffc9a7000000000000000000000000000000000000000000000000000000007bffffffffffffffffffffffffffffffffffffffffffffffffffffffff1916827bffffffffffffffffffffffffffffffffffffffffffffffffffffffff1916149050919050565b60008073ffffffffffffffffffffffffffffffffffffffff168373ffffffffffffffffffffffffffffffffffffffff161415801561389a57508273ffffffffffffffffffffffffffffffffffffffff168473ffffffffffffffffffffffffffffffffffffffff16148061385b575061385a8484611d76565b5b8061389957508273ffffffffffffffffffffffffffffffffffffffff1661388183612121565b73ffffffffffffffffffffffffffffffffffffffff16145b5b90509392505050565b6000819050919050565b60008173ffffffffffffffffffffffffffffffffffffffff163b0361390957806040517f4c9c8ce30000000000000000000000000000000000000000000000000000000081526004016139009190613e48565b60405180910390fd5b806139367f360894a13ba1a3210667c828492db98dca3e2076cc3735a920a3ca505d382bbc60001b6138a3565b60000160006101000a81548173ffffffffffffffffffffffffffffffffffffffff021916908373ffffffffffffffffffffffffffffffffffffffff16021790555050565b60606000808473ffffffffffffffffffffffffffffffffffffffff16846040516139a491906152b2565b600060405180830381855af49150503d80600081146139df576040519150601f19603f3d011682016040523d82523d6000602084013e6139e4565b606091505b50915091506139f4858383613b4f565b9250505092915050565b6000341115613a39576040517fb398979f00000000000000000000000000000000000000000000000000000000815260040160405180910390fd5b565b6000613a45612bd1565b60000160089054906101000a900460ff16905090565b60008060007f7fffffffffffffffffffffffffffffff5d576e7357a4501ddfe92f46681b20a08460001c1115613a9b576000600385925092509250613b45565b600060018888888860405160008152602001604052604051613ac094939291906152e5565b6020604051602081039080840390855afa158015613ae2573d6000803e3d6000fd5b505050602060405103519050600073ffffffffffffffffffffffffffffffffffffffff168173ffffffffffffffffffffffffffffffffffffffff1603613b3657600060016000801b93509350935050613b45565b8060008060001b935093509350505b9450945094915050565b606082613b6457613b5f82613bde565b613bd6565b60008251148015613b8c575060008473ffffffffffffffffffffffffffffffffffffffff163b145b15613bce57836040517f9996b315000000000000000000000000000000000000000000000000000000008152600401613bc59190613e48565b60405180910390fd5b819050613bd7565b5b9392505050565b600081511115613bf15780518082602001fd5b6040517fd6bda27500000000000000000000000000000000000000000000000000000000815260040160405180910390fd5b6000604051905090565b600080fd5b600080fd5b60007fffffffff0000000000000000000000000000000000000000000000000000000082169050919050565b613c6c81613c37565b8114613c7757600080fd5b50565b600081359050613c8981613c63565b92915050565b600060208284031215613ca557613ca4613c2d565b5b6000613cb384828501613c7a565b91505092915050565b60008115159050919050565b613cd181613cbc565b82525050565b6000602082019050613cec6000830184613cc8565b92915050565b600081519050919050565b600082825260208201905092915050565b60005b83811015613d2c578082015181840152602081019050613d11565b60008484015250505050565b6000601f19601f8301169050919050565b6000613d5482613cf2565b613d5e8185613cfd565b9350613d6e818560208601613d0e565b613d7781613d38565b840191505092915050565b60006020820190508181036000830152613d9c8184613d49565b905092915050565b6000819050919050565b613db781613da4565b8114613dc257600080fd5b50565b600081359050613dd481613dae565b92915050565b600060208284031215613df057613def613c2d565b5b6000613dfe84828501613dc5565b91505092915050565b600073ffffffffffffffffffffffffffffffffffffffff82169050919050565b6000613e3282613e07565b9050919050565b613e4281613e27565b82525050565b6000602082019050613e5d6000830184613e39565b92915050565b613e6c81613e27565b8114613e7757600080fd5b50565b600081359050613e8981613e63565b92915050565b60008060408385031215613ea657613ea5613c2d565b5b6000613eb485828601613e7a565b9250506020613ec585828601613dc5565b9150509250929050565b6000819050919050565b613ee281613ecf565b82525050565b6000602082019050613efd6000830184613ed9565b92915050565b613f0c81613ecf565b8114613f1757600080fd5b50565b600081359050613f2981613f03565b92915050565b60008060408385031215613f4657613f45613c2d565b5b6000613f5485828601613dc5565b9250506020613f6585828601613f1a565b9150509250929050565b600080600060608486031215613f8857613f87613c2d565b5b6000613f9686828701613e7a565b9350506020613fa786828701613e7a565b9250506040613fb886828701613dc5565b9150509250925092565b600060208284031215613fd857613fd7613c2d565b5b6000613fe684828501613f1a565b91505092915050565b60006020828403121561400557614004613c2d565b5b600061401384828501613e7a565b91505092915050565b6000806040838503121561403357614032613c2d565b5b600061404185828601613f1a565b925050602061405285828601613e7a565b9150509250929050565b600080fd5b600080fd5b7f4e487b7100000000000000000000000000000000000000000000000000000000600052604160045260246000fd5b61409e82613d38565b810181811067ffffffffffffffff821117156140bd576140bc614066565b5b80604052505050565b60006140d0613c23565b90506140dc8282614095565b919050565b600067ffffffffffffffff8211156140fc576140fb614066565b5b61410582613d38565b9050602081019050919050565b82818337600083830152505050565b600061413461412f846140e1565b6140c6565b9050828152602081018484840111156141505761414f614061565b5b61415b848285614112565b509392505050565b600082601f8301126141785761417761405c565b5b8135614188848260208601614121565b91505092915050565b600080604083850312156141a8576141a7613c2d565b5b60006141b685828601613e7a565b925050602083013567ffffffffffffffff8111156141d7576141d6613c32565b5b6141e385828601614163565b9150509250929050565b600067ffffffffffffffff82111561420857614207614066565b5b61421182613d38565b9050602081019050919050565b600061423161422c846141ed565b6140c6565b90508281526020810184848401111561424d5761424c614061565b5b614258848285614112565b509392505050565b600082601f8301126142755761427461405c565b5b813561428584826020860161421e565b91505092915050565b600080600080608085870312156142a8576142a7613c2d565b5b60006142b687828801613e7a565b945050602085013567ffffffffffffffff8111156142d7576142d6613c32565b5b6142e387828801614260565b93505060406142f487828801613f1a565b925050606085013567ffffffffffffffff81111561431557614314613c32565b5b61432187828801614163565b91505092959194509250565b61433681613da4565b82525050565b6000602082019050614351600083018461432d565b92915050565b6000806040838503121561436e5761436d613c2d565b5b600061437c85828601613e7a565b925050602083013567ffffffffffffffff81111561439d5761439c613c32565b5b6143a985828601614260565b9150509250929050565b600080604083850312156143ca576143c9613c2d565b5b60006143d885828601613dc5565b925050602083013567ffffffffffffffff8111156143f9576143f8613c32565b5b61440585828601614260565b9150509250929050565b60008060006060848603121561442857614427613c2d565b5b600061443686828701613f1a565b935050602061444786828701613e7a565b925050604084013567ffffffffffffffff81111561446857614467613c32565b5b61447486828701614163565b9150509250925092565b61448781613cbc565b811461449257600080fd5b50565b6000813590506144a48161447e565b92915050565b600080604083850312156144c1576144c0613c2d565b5b60006144cf85828601613e7a565b92505060206144e085828601614495565b9150509250929050565b6000806000806080858703121561450457614503613c2d565b5b600061451287828801613e7a565b945050602061452387828801613e7a565b935050604061453487828801613dc5565b925050606085013567ffffffffffffffff81111561455557614554613c32565b5b61456187828801614163565b91505092959194509250565b7f4e487b7100000000000000000000000000000000000000000000000000000000600052602160045260246000fd5b600281106145ad576145ac61456d565b5b50565b60008190506145be8261459c565b919050565b60006145ce826145b0565b9050919050565b6145de816145c3565b82525050565b600081519050919050565b600082825260208201905092915050565b600061460b826145e4565b61461581856145ef565b9350614625818560208601613d0e565b61462e81613d38565b840191505092915050565b600060a08201905061464e600083018861432d565b81810360208301526146608187613d49565b905061466f60408301866145d5565b81810360608301526146818185614600565b90506146906080830184613e39565b9695505050505050565b600080604083850312156146b1576146b0613c2d565b5b60006146bf85828601613e7a565b92505060206146d085828601613e7a565b9150509250929050565b7f4e487b7100000000000000000000000000000000000000000000000000000000600052602260045260246000fd5b6000600282049050600182168061472157607f821691505b602082108103614734576147336146da565b5b50919050565b7f546f6b656e20646f6573206e6f74206578697374000000000000000000000000600082015250565b6000614770601483613cfd565b915061477b8261473a565b602082019050919050565b6000602082019050818103600083015261479f81614763565b9050919050565b60006060820190506147bb6000830186613e39565b6147c8602083018561432d565b6147d56040830184613e39565b949350505050565b7f4164647265737320697320616c72656164792061206d616e6167657200000000600082015250565b6000614813601c83613cfd565b915061481e826147dd565b602082019050919050565b6000602082019050818103600083015261484281614806565b9050919050565b7f4164647265737320697320616c726561647920616e20696e737469747574696f60008201527f6e00000000000000000000000000000000000000000000000000000000000000602082015250565b60006148a5602183613cfd565b91506148b082614849565b604082019050919050565b600060208201905081810360008301526148d481614898565b9050919050565b7f4164647265737320697320616c726561647920616e2061646d696e0000000000600082015250565b6000614911601b83613cfd565b915061491c826148db565b602082019050919050565b6000602082019050818103600083015261494081614904565b9050919050565b7f546f6b656e20494420616c726561647920657869737473000000000000000000600082015250565b600061497d601783613cfd565b915061498882614947565b602082019050919050565b600060208201905081810360008301526149ac81614970565b9050919050565b600081905092915050565b60006149c982613cf2565b6149d381856149b3565b93506149e3818560208601613d0e565b80840191505092915050565b60006149fb82846149be565b915081905092915050565b7f54686520495046532055524920697320616c726561647920697373756564206660008201527f6f7220612063726564656e7469616c0000000000000000000000000000000000602082015250565b6000614a62602f83613cfd565b9150614a6d82614a06565b604082019050919050565b60006020820190508181036000830152614a9181614a55565b9050919050565b7f496e76616c6964207369676e6174757265000000000000000000000000000000600082015250565b6000614ace601183613cfd565b9150614ad982614a98565b602082019050919050565b60006020820190508181036000830152614afd81614ac1565b9050919050565b60008190508160005260206000209050919050565b60006020601f8301049050919050565b600082821b905092915050565b600060088302614b667fffffffffffffffffffffffffffffffffffffffffffffffffffffffffffffffff82614b29565b614b708683614b29565b95508019841693508086168417925050509392505050565b6000819050919050565b6000614bad614ba8614ba384613da4565b614b88565b613da4565b9050919050565b6000819050919050565b614bc783614b92565b614bdb614bd382614bb4565b848454614b36565b825550505050565b600090565b614bf0614be3565b614bfb818484614bbe565b505050565b5b81811015614c1f57614c14600082614be8565b600181019050614c01565b5050565b601f821115614c6457614c3581614b04565b614c3e84614b19565b81016020851015614c4d578190505b614c61614c5985614b19565b830182614c00565b50505b505050565b600082821c905092915050565b6000614c8760001984600802614c69565b1980831691505092915050565b6000614ca08383614c76565b9150826002028217905092915050565b614cb982613cf2565b67ffffffffffffffff811115614cd257614cd1614066565b5b614cdc8254614709565b614ce7828285614c23565b600060209050601f831160018114614d1a5760008415614d08578287015190505b614d128582614c94565b865550614d7a565b601f198416614d2886614b04565b60005b82811015614d5057848901518255600182019150602085019450602081019050614d2b565b86831015614d6d5784890151614d69601f891682614c76565b8355505b6001600288020188555050505b505050505050565b60008190508160005260206000209050919050565b601f821115614dd857614da981614d82565b614db284614b19565b81016020851015614dc1578190505b614dd5614dcd85614b19565b830182614c00565b50505b505050565b614de6826145e4565b67ffffffffffffffff811115614dff57614dfe614066565b5b614e098254614709565b614e14828285614d97565b600060209050601f831160018114614e475760008415614e35578287015190505b614e3f8582614c94565b865550614ea7565b601f198416614e5586614d82565b60005b82811015614e7d57848901518255600182019150602085019450602081019050614e58565b86831015614e9a5784890151614e96601f891682614c76565b8355505b6001600288020188555050505b505050505050565b7f41646472657373206973206e6f7420616e20696e737469747574696f6e000000600082015250565b6000614ee5601d83613cfd565b9150614ef082614eaf565b602082019050919050565b60006020820190508181036000830152614f1481614ed8565b9050919050565b6000819050919050565b600067ffffffffffffffff82169050919050565b6000614f54614f4f614f4a84614f1b565b614b88565b614f25565b9050919050565b614f6481614f39565b82525050565b6000602082019050614f7f6000830184614f5b565b92915050565b7f41646472657373206973206e6f742061206d616e616765720000000000000000600082015250565b6000614fbb601883613cfd565b9150614fc682614f85565b602082019050919050565b60006020820190508181036000830152614fea81614fae565b9050919050565b7f43726564656e7469616c20697320616c7265616479205245564f4b4544000000600082015250565b6000615027601d83613cfd565b915061503282614ff1565b602082019050919050565b600060208201905081810360008301526150568161501a565b9050919050565b600060608201905061507260008301866145d5565b61507f60208301856145d5565b81810360408301526150918184613d49565b9050949350505050565b6000815190506150aa81613e63565b92915050565b6000602082840312156150c6576150c5613c2d565b5b60006150d48482850161509b565b91505092915050565b60006040820190506150f26000830185613e39565b6150ff6020830184613ed9565b9392505050565b60008151905061511581613f03565b92915050565b60006020828403121561513157615130613c2d565b5b600061513f84828501615106565b91505092915050565b7f4e487b7100000000000000000000000000000000000000000000000000000000600052601160045260246000fd5b600061518282613da4565b91507fffffffffffffffffffffffffffffffffffffffffffffffffffffffffffffffff82036151b4576151b3615148565b5b600182019050919050565b60006080820190506151d46000830187613e39565b6151e16020830186613e39565b6151ee604083018561432d565b81810360608301526152008184614600565b905095945050505050565b60008151905061521a81613c63565b92915050565b60006020828403121561523657615235613c2d565b5b60006152448482850161520b565b91505092915050565b60006040820190506152626000830185613e39565b61526f602083018461432d565b9392505050565b600081905092915050565b600061528c826145e4565b6152968185615276565b93506152a6818560208601613d0e565b80840191505092915050565b60006152be8284615281565b915081905092915050565b600060ff82169050919050565b6152df816152c9565b82525050565b60006080820190506152fa6000830187613ed9565b61530760208301866152d6565b6153146040830185613ed9565b6153216060830184613ed9565b9594505050505056fea264697066735822122032eee1231bf9b0d2671d44943dbfe13b2d6af1c3916ad4df0ba840728eda530264736f6c634300081b0033","opcodes":"PUSH1 0xA0 PUSH1 0x40 MSTORE ADDRESS PUSH20 0xFFFFFFFFFFFFFFFFFFFFFFFFFFFFFFFFFFFFFFFF AND PUSH1 0x80 SWAP1 PUSH20 0xFFFFFFFFFFFFFFFFFFFFFFFFFFFFFFFFFFFFFFFF AND DUP2 MSTORE POP PUSH1 0x0 PUSH1 0x1 SSTORE CALLVALUE DUP1 ISZERO PUSH2 0x48 JUMPI PUSH1 0x0 DUP1 REVERT JUMPDEST POP PUSH1 0x1 PUSH1 0x0 DUP2 SWAP1 SSTORE POP PUSH2 0x5F PUSH2 0x64 PUSH1 0x20 SHL PUSH1 0x20 SHR JUMP JUMPDEST PUSH2 0x1CE JUMP JUMPDEST PUSH1 0x0 PUSH2 0x74 PUSH2 0x168 PUSH1 0x20 SHL PUSH1 0x20 SHR JUMP JUMPDEST SWAP1 POP DUP1 PUSH1 0x0 ADD PUSH1 0x8 SWAP1 SLOAD SWAP1 PUSH2 0x100 EXP SWAP1 DIV PUSH1 0xFF AND ISZERO PUSH2 0xBF JUMPI PUSH1 0x40 MLOAD PUSH32 0xF92EE8A900000000000000000000000000000000000000000000000000000000 DUP2 MSTORE PUSH1 0x4 ADD PUSH1 0x40 MLOAD DUP1 SWAP2 SUB SWAP1 REVERT JUMPDEST PUSH8 0xFFFFFFFFFFFFFFFF DUP1 AND DUP2 PUSH1 0x0 ADD PUSH1 0x0 SWAP1 SLOAD SWAP1 PUSH2 0x100 EXP SWAP1 DIV PUSH8 0xFFFFFFFFFFFFFFFF AND PUSH8 0xFFFFFFFFFFFFFFFF AND EQ PUSH2 0x165 JUMPI PUSH8 0xFFFFFFFFFFFFFFFF DUP2 PUSH1 0x0 ADD PUSH1 0x0 PUSH2 0x100 EXP DUP2 SLOAD DUP2 PUSH8 0xFFFFFFFFFFFFFFFF MUL NOT AND SWAP1 DUP4 PUSH8 0xFFFFFFFFFFFFFFFF AND MUL OR SWAP1 SSTORE POP PUSH32 0xC7F505B2F371AE2175EE4913F4499E1F2633A7B5936321EED1CDAEB6115181D2 PUSH8 0xFFFFFFFFFFFFFFFF PUSH1 0x40 MLOAD PUSH2 0x15C SWAP2 SWAP1 PUSH2 0x1B3 JUMP JUMPDEST PUSH1 0x40 MLOAD DUP1 SWAP2 SUB SWAP1 LOG1 JUMPDEST POP JUMP JUMPDEST PUSH1 0x0 PUSH32 0xF0C57E16840DF040F15088DC2F81FE391C3923BEC73E23A9662EFC9C229C6A00 SWAP1 POP SWAP1 JUMP JUMPDEST PUSH1 0x0 PUSH8 0xFFFFFFFFFFFFFFFF DUP3 AND SWAP1 POP SWAP2 SWAP1 POP JUMP JUMPDEST PUSH2 0x1AD DUP2 PUSH2 0x190 JUMP JUMPDEST DUP3 MSTORE POP POP JUMP JUMPDEST PUSH1 0x0 PUSH1 0x20 DUP3 ADD SWAP1 POP PUSH2 0x1C8 PUSH1 0x0 DUP4 ADD DUP5 PUSH2 0x1A4 JUMP JUMPDEST SWAP3 SWAP2 POP POP JUMP JUMPDEST PUSH1 0x80 MLOAD PUSH2 0x5360 PUSH2 0x1F7 PUSH1 0x0 CODECOPY PUSH1 0x0 DUP2 DUP2 PUSH2 0x2744 ADD MSTORE DUP2 DUP2 PUSH2 0x2799 ADD MSTORE PUSH2 0x2976 ADD MSTORE PUSH2 0x5360 PUSH1 0x0 RETURN INVALID PUSH1 0x80 PUSH1 0x40 MSTORE PUSH1 0x4 CALLDATASIZE LT PUSH2 0x21A JUMPI PUSH1 0x0 CALLDATALOAD PUSH1 0xE0 SHR DUP1 PUSH4 0x70A08231 GT PUSH2 0x123 JUMPI DUP1 PUSH4 0xA217FDDF GT PUSH2 0xAB JUMPI DUP1 PUSH4 0xD547741F GT PUSH2 0x6F JUMPI DUP1 PUSH4 0xD547741F EQ PUSH2 0x7BE JUMPI DUP1 PUSH4 0xE0574E3F EQ PUSH2 0x7E7 JUMPI DUP1 PUSH4 0xE985E9C5 EQ PUSH2 0x828 JUMPI DUP1 PUSH4 0xEC87621C EQ PUSH2 0x865 JUMPI DUP1 PUSH4 0xF06D80FC EQ PUSH2 0x890 JUMPI PUSH2 0x21A JUMP JUMPDEST DUP1 PUSH4 0xA217FDDF EQ PUSH2 0x6D9 JUMPI DUP1 PUSH4 0xA22CB465 EQ PUSH2 0x704 JUMPI DUP1 PUSH4 0xAD3CB1CC EQ PUSH2 0x72D JUMPI DUP1 PUSH4 0xB88D4FDE EQ PUSH2 0x758 JUMPI DUP1 PUSH4 0xC87B56DD EQ PUSH2 0x781 JUMPI PUSH2 0x21A JUMP JUMPDEST DUP1 PUSH4 0x896695DE GT PUSH2 0xF2 JUMPI DUP1 PUSH4 0x896695DE EQ PUSH2 0x5E2 JUMPI DUP1 PUSH4 0x91D14854 EQ PUSH2 0x60B JUMPI DUP1 PUSH4 0x957A3205 EQ PUSH2 0x648 JUMPI DUP1 PUSH4 0x95D89B41 EQ PUSH2 0x671 JUMPI DUP1 PUSH4 0x98A3410D EQ PUSH2 0x69C JUMPI PUSH2 0x21A JUMP JUMPDEST DUP1 PUSH4 0x70A08231 EQ PUSH2 0x54E JUMPI DUP1 PUSH4 0x7BAA47D9 EQ PUSH2 0x58B JUMPI DUP1 PUSH4 0x8129FC1C EQ PUSH2 0x5B4 JUMPI DUP1 PUSH4 0x8456CB59 EQ PUSH2 0x5CB JUMPI PUSH2 0x21A JUMP JUMPDEST DUP1 PUSH4 0x2F2FF15D GT PUSH2 0x1A6 JUMPI DUP1 PUSH4 0x4F1EF286 GT PUSH2 0x175 JUMPI DUP1 PUSH4 0x4F1EF286 EQ PUSH2 0x476 JUMPI DUP1 PUSH4 0x52D1902D EQ PUSH2 0x492 JUMPI DUP1 PUSH4 0x593DC75C EQ PUSH2 0x4BD JUMPI DUP1 PUSH4 0x5C975ABB EQ PUSH2 0x4E6 JUMPI DUP1 PUSH4 0x6352211E EQ PUSH2 0x511 JUMPI PUSH2 0x21A JUMP JUMPDEST DUP1 PUSH4 0x2F2FF15D EQ PUSH2 0x3E4 JUMPI DUP1 PUSH4 0x36568ABE EQ PUSH2 0x40D JUMPI DUP1 PUSH4 0x3F4BA83A EQ PUSH2 0x436 JUMPI DUP1 PUSH4 0x42842E0E EQ PUSH2 0x44D JUMPI PUSH2 0x21A JUMP JUMPDEST DUP1 PUSH4 0x1B929C21 GT PUSH2 0x1ED JUMPI DUP1 PUSH4 0x1B929C21 EQ PUSH2 0x2ED JUMPI DUP1 PUSH4 0x1B9519A8 EQ PUSH2 0x318 JUMPI DUP1 PUSH4 0x23B872DD EQ PUSH2 0x355 JUMPI DUP1 PUSH4 0x248A9CA3 EQ PUSH2 0x37E JUMPI DUP1 PUSH4 0x2B2DA97E EQ PUSH2 0x3BB JUMPI PUSH2 0x21A JUMP JUMPDEST DUP1 PUSH4 0x1FFC9A7 EQ PUSH2 0x21F JUMPI DUP1 PUSH4 0x6FDDE03 EQ PUSH2 0x25C JUMPI DUP1 PUSH4 0x81812FC EQ PUSH2 0x287 JUMPI DUP1 PUSH4 0x95EA7B3 EQ PUSH2 0x2C4 JUMPI JUMPDEST PUSH1 0x0 DUP1 REVERT JUMPDEST CALLVALUE DUP1 ISZERO PUSH2 0x22B JUMPI PUSH1 0x0 DUP1 REVERT JUMPDEST POP PUSH2 0x246 PUSH1 0x4 DUP1 CALLDATASIZE SUB DUP2 ADD SWAP1 PUSH2 0x241 SWAP2 SWAP1 PUSH2 0x3C8F JUMP JUMPDEST PUSH2 0x8B9 JUMP JUMPDEST PUSH1 0x40 MLOAD PUSH2 0x253 SWAP2 SWAP1 PUSH2 0x3CD7 JUMP JUMPDEST PUSH1 0x40 MLOAD DUP1 SWAP2 SUB SWAP1 RETURN JUMPDEST CALLVALUE DUP1 ISZERO PUSH2 0x268 JUMPI PUSH1 0x0 DUP1 REVERT JUMPDEST POP PUSH2 0x271 PUSH2 0x8CB JUMP JUMPDEST PUSH1 0x40 MLOAD PUSH2 0x27E SWAP2 SWAP1 PUSH2 0x3D82 JUMP JUMPDEST PUSH1 0x40 MLOAD DUP1 SWAP2 SUB SWAP1 RETURN JUMPDEST CALLVALUE DUP1 ISZERO PUSH2 0x293 JUMPI PUSH1 0x0 DUP1 REVERT JUMPDEST POP PUSH2 0x2AE PUSH1 0x4 DUP1 CALLDATASIZE SUB DUP2 ADD SWAP1 PUSH2 0x2A9 SWAP2 SWAP1 PUSH2 0x3DDA JUMP JUMPDEST PUSH2 0x96C JUMP JUMPDEST PUSH1 0x40 MLOAD PUSH2 0x2BB SWAP2 SWAP1 PUSH2 0x3E48 JUMP JUMPDEST PUSH1 0x40 MLOAD DUP1 SWAP2 SUB SWAP1 RETURN JUMPDEST CALLVALUE DUP1 ISZERO PUSH2 0x2D0 JUMPI PUSH1 0x0 DUP1 REVERT JUMPDEST POP PUSH2 0x2EB PUSH1 0x4 DUP1 CALLDATASIZE SUB DUP2 ADD SWAP1 PUSH2 0x2E6 SWAP2 SWAP1 PUSH2 0x3E8F JUMP JUMPDEST PUSH2 0x988 JUMP JUMPDEST STOP JUMPDEST CALLVALUE DUP1 ISZERO PUSH2 0x2F9 JUMPI PUSH1 0x0 DUP1 REVERT JUMPDEST POP PUSH2 0x302 PUSH2 0x99E JUMP JUMPDEST PUSH1 0x40 MLOAD PUSH2 0x30F SWAP2 SWAP1 PUSH2 0x3EE8 JUMP JUMPDEST PUSH1 0x40 MLOAD DUP1 SWAP2 SUB SWAP1 RETURN JUMPDEST CALLVALUE DUP1 ISZERO PUSH2 0x324 JUMPI PUSH1 0x0 DUP1 REVERT JUMPDEST POP PUSH2 0x33F PUSH1 0x4 DUP1 CALLDATASIZE SUB DUP2 ADD SWAP1 PUSH2 0x33A SWAP2 SWAP1 PUSH2 0x3F2F JUMP JUMPDEST PUSH2 0x9C2 JUMP JUMPDEST PUSH1 0x40 MLOAD PUSH2 0x34C SWAP2 SWAP1 PUSH2 0x3CD7 JUMP JUMPDEST PUSH1 0x40 MLOAD DUP1 SWAP2 SUB SWAP1 RETURN JUMPDEST CALLVALUE DUP1 ISZERO PUSH2 0x361 JUMPI PUSH1 0x0 DUP1 REVERT JUMPDEST POP PUSH2 0x37C PUSH1 0x4 DUP1 CALLDATASIZE SUB DUP2 ADD SWAP1 PUSH2 0x377 SWAP2 SWAP1 PUSH2 0x3F6F JUMP JUMPDEST PUSH2 0xB05 JUMP JUMPDEST STOP JUMPDEST CALLVALUE DUP1 ISZERO PUSH2 0x38A JUMPI PUSH1 0x0 DUP1 REVERT JUMPDEST POP PUSH2 0x3A5 PUSH1 0x4 DUP1 CALLDATASIZE SUB DUP2 ADD SWAP1 PUSH2 0x3A0 SWAP2 SWAP1 PUSH2 0x3FC2 JUMP JUMPDEST PUSH2 0xC07 JUMP JUMPDEST PUSH1 0x40 MLOAD PUSH2 0x3B2 SWAP2 SWAP1 PUSH2 0x3EE8 JUMP JUMPDEST PUSH1 0x40 MLOAD DUP1 SWAP2 SUB SWAP1 RETURN JUMPDEST CALLVALUE DUP1 ISZERO PUSH2 0x3C7 JUMPI PUSH1 0x0 DUP1 REVERT JUMPDEST POP PUSH2 0x3E2 PUSH1 0x4 DUP1 CALLDATASIZE SUB DUP2 ADD SWAP1 PUSH2 0x3DD SWAP2 SWAP1 PUSH2 0x3FEF JUMP JUMPDEST PUSH2 0xC35 JUMP JUMPDEST STOP JUMPDEST CALLVALUE DUP1 ISZERO PUSH2 0x3F0 JUMPI PUSH1 0x0 DUP1 REVERT JUMPDEST POP PUSH2 0x40B PUSH1 0x4 DUP1 CALLDATASIZE SUB DUP2 ADD SWAP1 PUSH2 0x406 SWAP2 SWAP1 PUSH2 0x401C JUMP JUMPDEST PUSH2 0xDD3 JUMP JUMPDEST STOP JUMPDEST CALLVALUE DUP1 ISZERO PUSH2 0x419 JUMPI PUSH1 0x0 DUP1 REVERT JUMPDEST POP PUSH2 0x434 PUSH1 0x4 DUP1 CALLDATASIZE SUB DUP2 ADD SWAP1 PUSH2 0x42F SWAP2 SWAP1 PUSH2 0x401C JUMP JUMPDEST PUSH2 0xDF5 JUMP JUMPDEST STOP JUMPDEST CALLVALUE DUP1 ISZERO PUSH2 0x442 JUMPI PUSH1 0x0 DUP1 REVERT JUMPDEST POP PUSH2 0x44B PUSH2 0xE70 JUMP JUMPDEST STOP JUMPDEST CALLVALUE DUP1 ISZERO PUSH2 0x459 JUMPI PUSH1 0x0 DUP1 REVERT JUMPDEST POP PUSH2 0x474 PUSH1 0x4 DUP1 CALLDATASIZE SUB DUP2 ADD SWAP1 PUSH2 0x46F SWAP2 SWAP1 PUSH2 0x3F6F JUMP JUMPDEST PUSH2 0xEA4 JUMP JUMPDEST STOP JUMPDEST PUSH2 0x490 PUSH1 0x4 DUP1 CALLDATASIZE SUB DUP2 ADD SWAP1 PUSH2 0x48B SWAP2 SWAP1 PUSH2 0x4191 JUMP JUMPDEST PUSH2 0xEC4 JUMP JUMPDEST STOP JUMPDEST CALLVALUE DUP1 ISZERO PUSH2 0x49E JUMPI PUSH1 0x0 DUP1 REVERT JUMPDEST POP PUSH2 0x4A7 PUSH2 0xEE3 JUMP JUMPDEST PUSH1 0x40 MLOAD PUSH2 0x4B4 SWAP2 SWAP1 PUSH2 0x3EE8 JUMP JUMPDEST PUSH1 0x40 MLOAD DUP1 SWAP2 SUB SWAP1 RETURN JUMPDEST CALLVALUE DUP1 ISZERO PUSH2 0x4C9 JUMPI PUSH1 0x0 DUP1 REVERT JUMPDEST POP PUSH2 0x4E4 PUSH1 0x4 DUP1 CALLDATASIZE SUB DUP2 ADD SWAP1 PUSH2 0x4DF SWAP2 SWAP1 PUSH2 0x428E JUMP JUMPDEST PUSH2 0xF16 JUMP JUMPDEST STOP JUMPDEST CALLVALUE DUP1 ISZERO PUSH2 0x4F2 JUMPI PUSH1 0x0 DUP1 REVERT JUMPDEST POP PUSH2 0x4FB PUSH2 0x1212 JUMP JUMPDEST PUSH1 0x40 MLOAD PUSH2 0x508 SWAP2 SWAP1 PUSH2 0x3CD7 JUMP JUMPDEST PUSH1 0x40 MLOAD DUP1 SWAP2 SUB SWAP1 RETURN JUMPDEST CALLVALUE DUP1 ISZERO PUSH2 0x51D JUMPI PUSH1 0x0 DUP1 REVERT JUMPDEST POP PUSH2 0x538 PUSH1 0x4 DUP1 CALLDATASIZE SUB DUP2 ADD SWAP1 PUSH2 0x533 SWAP2 SWAP1 PUSH2 0x3DDA JUMP JUMPDEST PUSH2 0x1237 JUMP JUMPDEST PUSH1 0x40 MLOAD PUSH2 0x545 SWAP2 SWAP1 PUSH2 0x3E48 JUMP JUMPDEST PUSH1 0x40 MLOAD DUP1 SWAP2 SUB SWAP1 RETURN JUMPDEST CALLVALUE DUP1 ISZERO PUSH2 0x55A JUMPI PUSH1 0x0 DUP1 REVERT JUMPDEST POP PUSH2 0x575 PUSH1 0x4 DUP1 CALLDATASIZE SUB DUP2 ADD SWAP1 PUSH2 0x570 SWAP2 SWAP1 PUSH2 0x3FEF JUMP JUMPDEST PUSH2 0x1249 JUMP JUMPDEST PUSH1 0x40 MLOAD PUSH2 0x582 SWAP2 SWAP1 PUSH2 0x433C JUMP JUMPDEST PUSH1 0x40 MLOAD DUP1 SWAP2 SUB SWAP1 RETURN JUMPDEST CALLVALUE DUP1 ISZERO PUSH2 0x597 JUMPI PUSH1 0x0 DUP1 REVERT JUMPDEST POP PUSH2 0x5B2 PUSH1 0x4 DUP1 CALLDATASIZE SUB DUP2 ADD SWAP1 PUSH2 0x5AD SWAP2 SWAP1 PUSH2 0x4357 JUMP JUMPDEST PUSH2 0x1312 JUMP JUMPDEST STOP JUMPDEST CALLVALUE DUP1 ISZERO PUSH2 0x5C0 JUMPI PUSH1 0x0 DUP1 REVERT JUMPDEST POP PUSH2 0x5C9 PUSH2 0x1421 JUMP JUMPDEST STOP JUMPDEST CALLVALUE DUP1 ISZERO PUSH2 0x5D7 JUMPI PUSH1 0x0 DUP1 REVERT JUMPDEST POP PUSH2 0x5E0 PUSH2 0x1640 JUMP JUMPDEST STOP JUMPDEST CALLVALUE DUP1 ISZERO PUSH2 0x5EE JUMPI PUSH1 0x0 DUP1 REVERT JUMPDEST POP PUSH2 0x609 PUSH1 0x4 DUP1 CALLDATASIZE SUB DUP2 ADD SWAP1 PUSH2 0x604 SWAP2 SWAP1 PUSH2 0x4357 JUMP JUMPDEST PUSH2 0x1674 JUMP JUMPDEST STOP JUMPDEST CALLVALUE DUP1 ISZERO PUSH2 0x617 JUMPI PUSH1 0x0 DUP1 REVERT JUMPDEST POP PUSH2 0x632 PUSH1 0x4 DUP1 CALLDATASIZE SUB DUP2 ADD SWAP1 PUSH2 0x62D SWAP2 SWAP1 PUSH2 0x401C JUMP JUMPDEST PUSH2 0x1766 JUMP JUMPDEST PUSH1 0x40 MLOAD PUSH2 0x63F SWAP2 SWAP1 PUSH2 0x3CD7 JUMP JUMPDEST PUSH1 0x40 MLOAD DUP1 SWAP2 SUB SWAP1 RETURN JUMPDEST CALLVALUE DUP1 ISZERO PUSH2 0x654 JUMPI PUSH1 0x0 DUP1 REVERT JUMPDEST POP PUSH2 0x66F PUSH1 0x4 DUP1 CALLDATASIZE SUB DUP2 ADD SWAP1 PUSH2 0x66A SWAP2 SWAP1 PUSH2 0x43B3 JUMP JUMPDEST PUSH2 0x17DF JUMP JUMPDEST STOP JUMPDEST CALLVALUE DUP1 ISZERO PUSH2 0x67D JUMPI PUSH1 0x0 DUP1 REVERT JUMPDEST POP PUSH2 0x686 PUSH2 0x1976 JUMP JUMPDEST PUSH1 0x40 MLOAD PUSH2 0x693 SWAP2 SWAP1 PUSH2 0x3D82 JUMP JUMPDEST PUSH1 0x40 MLOAD DUP1 SWAP2 SUB SWAP1 RETURN JUMPDEST CALLVALUE DUP1 ISZERO PUSH2 0x6A8 JUMPI PUSH1 0x0 DUP1 REVERT JUMPDEST POP PUSH2 0x6C3 PUSH1 0x4 DUP1 CALLDATASIZE SUB DUP2 ADD SWAP1 PUSH2 0x6BE SWAP2 SWAP1 PUSH2 0x440F JUMP JUMPDEST PUSH2 0x1A17 JUMP JUMPDEST PUSH1 0x40 MLOAD PUSH2 0x6D0 SWAP2 SWAP1 PUSH2 0x3CD7 JUMP JUMPDEST PUSH1 0x40 MLOAD DUP1 SWAP2 SUB SWAP1 RETURN JUMPDEST CALLVALUE DUP1 ISZERO PUSH2 0x6E5 JUMPI PUSH1 0x0 DUP1 REVERT JUMPDEST POP PUSH2 0x6EE PUSH2 0x1A76 JUMP JUMPDEST PUSH1 0x40 MLOAD PUSH2 0x6FB SWAP2 SWAP1 PUSH2 0x3EE8 JUMP JUMPDEST PUSH1 0x40 MLOAD DUP1 SWAP2 SUB SWAP1 RETURN JUMPDEST CALLVALUE DUP1 ISZERO PUSH2 0x710 JUMPI PUSH1 0x0 DUP1 REVERT JUMPDEST POP PUSH2 0x72B PUSH1 0x4 DUP1 CALLDATASIZE SUB DUP2 ADD SWAP1 PUSH2 0x726 SWAP2 SWAP1 PUSH2 0x44AA JUMP JUMPDEST PUSH2 0x1A7D JUMP JUMPDEST STOP JUMPDEST CALLVALUE DUP1 ISZERO PUSH2 0x739 JUMPI PUSH1 0x0 DUP1 REVERT JUMPDEST POP PUSH2 0x742 PUSH2 0x1A93 JUMP JUMPDEST PUSH1 0x40 MLOAD PUSH2 0x74F SWAP2 SWAP1 PUSH2 0x3D82 JUMP JUMPDEST PUSH1 0x40 MLOAD DUP1 SWAP2 SUB SWAP1 RETURN JUMPDEST CALLVALUE DUP1 ISZERO PUSH2 0x764 JUMPI PUSH1 0x0 DUP1 REVERT JUMPDEST POP PUSH2 0x77F PUSH1 0x4 DUP1 CALLDATASIZE SUB DUP2 ADD SWAP1 PUSH2 0x77A SWAP2 SWAP1 PUSH2 0x44EA JUMP JUMPDEST PUSH2 0x1ACC JUMP JUMPDEST STOP JUMPDEST CALLVALUE DUP1 ISZERO PUSH2 0x78D JUMPI PUSH1 0x0 DUP1 REVERT JUMPDEST POP PUSH2 0x7A8 PUSH1 0x4 DUP1 CALLDATASIZE SUB DUP2 ADD SWAP1 PUSH2 0x7A3 SWAP2 SWAP1 PUSH2 0x3DDA JUMP JUMPDEST PUSH2 0x1AF1 JUMP JUMPDEST PUSH1 0x40 MLOAD PUSH2 0x7B5 SWAP2 SWAP1 PUSH2 0x3D82 JUMP JUMPDEST PUSH1 0x40 MLOAD DUP1 SWAP2 SUB SWAP1 RETURN JUMPDEST CALLVALUE DUP1 ISZERO PUSH2 0x7CA JUMPI PUSH1 0x0 DUP1 REVERT JUMPDEST POP PUSH2 0x7E5 PUSH1 0x4 DUP1 CALLDATASIZE SUB DUP2 ADD SWAP1 PUSH2 0x7E0 SWAP2 SWAP1 PUSH2 0x401C JUMP JUMPDEST PUSH2 0x1BE1 JUMP JUMPDEST STOP JUMPDEST CALLVALUE DUP1 ISZERO PUSH2 0x7F3 JUMPI PUSH1 0x0 DUP1 REVERT JUMPDEST POP PUSH2 0x80E PUSH1 0x4 DUP1 CALLDATASIZE SUB DUP2 ADD SWAP1 PUSH2 0x809 SWAP2 SWAP1 PUSH2 0x3DDA JUMP JUMPDEST PUSH2 0x1C03 JUMP JUMPDEST PUSH1 0x40 MLOAD PUSH2 0x81F SWAP6 SWAP5 SWAP4 SWAP3 SWAP2 SWAP1 PUSH2 0x4639 JUMP JUMPDEST PUSH1 0x40 MLOAD DUP1 SWAP2 SUB SWAP1 RETURN JUMPDEST CALLVALUE DUP1 ISZERO PUSH2 0x834 JUMPI PUSH1 0x0 DUP1 REVERT JUMPDEST POP PUSH2 0x84F PUSH1 0x4 DUP1 CALLDATASIZE SUB DUP2 ADD SWAP1 PUSH2 0x84A SWAP2 SWAP1 PUSH2 0x469A JUMP JUMPDEST PUSH2 0x1D76 JUMP JUMPDEST PUSH1 0x40 MLOAD PUSH2 0x85C SWAP2 SWAP1 PUSH2 0x3CD7 JUMP JUMPDEST PUSH1 0x40 MLOAD DUP1 SWAP2 SUB SWAP1 RETURN JUMPDEST CALLVALUE DUP1 ISZERO PUSH2 0x871 JUMPI PUSH1 0x0 DUP1 REVERT JUMPDEST POP PUSH2 0x87A PUSH2 0x1E18 JUMP JUMPDEST PUSH1 0x40 MLOAD PUSH2 0x887 SWAP2 SWAP1 PUSH2 0x3EE8 JUMP JUMPDEST PUSH1 0x40 MLOAD DUP1 SWAP2 SUB SWAP1 RETURN JUMPDEST CALLVALUE DUP1 ISZERO PUSH2 0x89C JUMPI PUSH1 0x0 DUP1 REVERT JUMPDEST POP PUSH2 0x8B7 PUSH1 0x4 DUP1 CALLDATASIZE SUB DUP2 ADD SWAP1 PUSH2 0x8B2 SWAP2 SWAP1 PUSH2 0x3FEF JUMP JUMPDEST PUSH2 0x1E3C JUMP JUMPDEST STOP JUMPDEST PUSH1 0x0 PUSH2 0x8C4 DUP3 PUSH2 0x1FF7 JUMP JUMPDEST SWAP1 POP SWAP2 SWAP1 POP JUMP JUMPDEST PUSH1 0x60 PUSH1 0x0 PUSH2 0x8D7 PUSH2 0x2071 JUMP JUMPDEST SWAP1 POP DUP1 PUSH1 0x0 ADD DUP1 SLOAD PUSH2 0x8E8 SWAP1 PUSH2 0x4709 JUMP JUMPDEST DUP1 PUSH1 0x1F ADD PUSH1 0x20 DUP1 SWAP2 DIV MUL PUSH1 0x20 ADD PUSH1 0x40 MLOAD SWAP1 DUP2 ADD PUSH1 0x40 MSTORE DUP1 SWAP3 SWAP2 SWAP1 DUP2 DUP2 MSTORE PUSH1 0x20 ADD DUP3 DUP1 SLOAD PUSH2 0x914 SWAP1 PUSH2 0x4709 JUMP JUMPDEST DUP1 ISZERO PUSH2 0x961 JUMPI DUP1 PUSH1 0x1F LT PUSH2 0x936 JUMPI PUSH2 0x100 DUP1 DUP4 SLOAD DIV MUL DUP4 MSTORE SWAP2 PUSH1 0x20 ADD SWAP2 PUSH2 0x961 JUMP JUMPDEST DUP3 ADD SWAP2 SWAP1 PUSH1 0x0 MSTORE PUSH1 0x20 PUSH1 0x0 KECCAK256 SWAP1 JUMPDEST DUP2 SLOAD DUP2 MSTORE SWAP1 PUSH1 0x1 ADD SWAP1 PUSH1 0x20 ADD DUP1 DUP4 GT PUSH2 0x944 JUMPI DUP3 SWAP1 SUB PUSH1 0x1F AND DUP3 ADD SWAP2 JUMPDEST POP POP POP POP POP SWAP2 POP POP SWAP1 JUMP JUMPDEST PUSH1 0x0 PUSH2 0x977 DUP3 PUSH2 0x2099 JUMP JUMPDEST POP PUSH2 0x981 DUP3 PUSH2 0x2121 JUMP JUMPDEST SWAP1 POP SWAP2 SWAP1 POP JUMP JUMPDEST PUSH2 0x99A DUP3 DUP3 PUSH2 0x995 PUSH2 0x216C JUMP JUMPDEST PUSH2 0x2174 JUMP JUMPDEST POP POP JUMP JUMPDEST PUSH32 0x1F18E249044142F95A61B39BAD5F99F3C70699C83BB85A1AD87FE9E68BD85D1 DUP2 JUMP JUMPDEST PUSH1 0x0 PUSH2 0x9CD DUP4 PUSH2 0x2186 JUMP JUMPDEST PUSH2 0xA0C JUMPI PUSH1 0x40 MLOAD PUSH32 0x8C379A000000000000000000000000000000000000000000000000000000000 DUP2 MSTORE PUSH1 0x4 ADD PUSH2 0xA03 SWAP1 PUSH2 0x4786 JUMP JUMPDEST PUSH1 0x40 MLOAD DUP1 SWAP2 SUB SWAP1 REVERT JUMPDEST PUSH1 0x0 PUSH1 0x2 PUSH1 0x0 DUP6 DUP2 MSTORE PUSH1 0x20 ADD SWAP1 DUP2 MSTORE PUSH1 0x20 ADD PUSH1 0x0 KECCAK256 PUSH1 0x3 ADD DUP1 SLOAD PUSH2 0xA2F SWAP1 PUSH2 0x4709 JUMP JUMPDEST DUP1 PUSH1 0x1F ADD PUSH1 0x20 DUP1 SWAP2 DIV MUL PUSH1 0x20 ADD PUSH1 0x40 MLOAD SWAP1 DUP2 ADD PUSH1 0x40 MSTORE DUP1 SWAP3 SWAP2 SWAP1 DUP2 DUP2 MSTORE PUSH1 0x20 ADD DUP3 DUP1 SLOAD PUSH2 0xA5B SWAP1 PUSH2 0x4709 JUMP JUMPDEST DUP1 ISZERO PUSH2 0xAA8 JUMPI DUP1 PUSH1 0x1F LT PUSH2 0xA7D JUMPI PUSH2 0x100 DUP1 DUP4 SLOAD DIV MUL DUP4 MSTORE SWAP2 PUSH1 0x20 ADD SWAP2 PUSH2 0xAA8 JUMP JUMPDEST DUP3 ADD SWAP2 SWAP1 PUSH1 0x0 MSTORE PUSH1 0x20 PUSH1 0x0 KECCAK256 SWAP1 JUMPDEST DUP2 SLOAD DUP2 MSTORE SWAP1 PUSH1 0x1 ADD SWAP1 PUSH1 0x20 ADD DUP1 DUP4 GT PUSH2 0xA8B JUMPI DUP3 SWAP1 SUB PUSH1 0x1F AND DUP3 ADD SWAP2 JUMPDEST POP POP POP POP POP SWAP1 POP PUSH1 0x0 PUSH1 0x2 PUSH1 0x0 DUP7 DUP2 MSTORE PUSH1 0x20 ADD SWAP1 DUP2 MSTORE PUSH1 0x20 ADD PUSH1 0x0 KECCAK256 PUSH1 0x4 ADD PUSH1 0x0 SWAP1 SLOAD SWAP1 PUSH2 0x100 EXP SWAP1 DIV PUSH20 0xFFFFFFFFFFFFFFFFFFFFFFFFFFFFFFFFFFFFFFFF AND SWAP1 POP PUSH1 0x0 PUSH2 0xAF7 DUP6 DUP4 DUP6 PUSH2 0x1A17 JUMP JUMPDEST SWAP1 POP DUP1 SWAP4 POP POP POP POP SWAP3 SWAP2 POP POP JUMP JUMPDEST PUSH1 0x0 PUSH20 0xFFFFFFFFFFFFFFFFFFFFFFFFFFFFFFFFFFFFFFFF AND DUP3 PUSH20 0xFFFFFFFFFFFFFFFFFFFFFFFFFFFFFFFFFFFFFFFF AND SUB PUSH2 0xB77 JUMPI PUSH1 0x0 PUSH1 0x40 MLOAD PUSH32 0x64A0AE9200000000000000000000000000000000000000000000000000000000 DUP2 MSTORE PUSH1 0x4 ADD PUSH2 0xB6E SWAP2 SWAP1 PUSH2 0x3E48 JUMP JUMPDEST PUSH1 0x40 MLOAD DUP1 SWAP2 SUB SWAP1 REVERT JUMPDEST PUSH1 0x0 PUSH2 0xB8B DUP4 DUP4 PUSH2 0xB86 PUSH2 0x216C JUMP JUMPDEST PUSH2 0x2213 JUMP JUMPDEST SWAP1 POP DUP4 PUSH20 0xFFFFFFFFFFFFFFFFFFFFFFFFFFFFFFFFFFFFFFFF AND DUP2 PUSH20 0xFFFFFFFFFFFFFFFFFFFFFFFFFFFFFFFFFFFFFFFF AND EQ PUSH2 0xC01 JUMPI DUP4 DUP3 DUP3 PUSH1 0x40 MLOAD PUSH32 0x64283D7B00000000000000000000000000000000000000000000000000000000 DUP2 MSTORE PUSH1 0x4 ADD PUSH2 0xBF8 SWAP4 SWAP3 SWAP2 SWAP1 PUSH2 0x47A6 JUMP JUMPDEST PUSH1 0x40 MLOAD DUP1 SWAP2 SUB SWAP1 REVERT JUMPDEST POP POP POP POP JUMP JUMPDEST PUSH1 0x0 DUP1 PUSH2 0xC12 PUSH2 0x2440 JUMP JUMPDEST SWAP1 POP DUP1 PUSH1 0x0 ADD PUSH1 0x0 DUP5 DUP2 MSTORE PUSH1 0x20 ADD SWAP1 DUP2 MSTORE PUSH1 0x20 ADD PUSH1 0x0 KECCAK256 PUSH1 0x1 ADD SLOAD SWAP2 POP POP SWAP2 SWAP1 POP JUMP JUMPDEST PUSH2 0xC42 PUSH1 0x0 DUP1 SHL CALLER PUSH2 0x2468 JUMP JUMPDEST PUSH2 0xC6C PUSH32 0x241ECF16D79D0F8DBFB92CBC07FE17840425976CF0667F022FE9877CAA831B08 DUP3 PUSH2 0x1766 JUMP JUMPDEST ISZERO PUSH2 0xCAC JUMPI PUSH1 0x40 MLOAD PUSH32 0x8C379A000000000000000000000000000000000000000000000000000000000 DUP2 MSTORE PUSH1 0x4 ADD PUSH2 0xCA3 SWAP1 PUSH2 0x4829 JUMP JUMPDEST PUSH1 0x40 MLOAD DUP1 SWAP2 SUB SWAP1 REVERT JUMPDEST PUSH2 0xCD6 PUSH32 0x1F18E249044142F95A61B39BAD5F99F3C70699C83BB85A1AD87FE9E68BD85D1 DUP3 PUSH2 0x1766 JUMP JUMPDEST ISZERO PUSH2 0xD16 JUMPI PUSH1 0x40 MLOAD PUSH32 0x8C379A000000000000000000000000000000000000000000000000000000000 DUP2 MSTORE PUSH1 0x4 ADD PUSH2 0xD0D SWAP1 PUSH2 0x48BB JUMP JUMPDEST PUSH1 0x40 MLOAD DUP1 SWAP2 SUB SWAP1 REVERT JUMPDEST PUSH2 0xD23 PUSH1 0x0 DUP1 SHL DUP3 PUSH2 0x1766 JUMP JUMPDEST ISZERO PUSH2 0xD63 JUMPI PUSH1 0x40 MLOAD PUSH32 0x8C379A000000000000000000000000000000000000000000000000000000000 DUP2 MSTORE PUSH1 0x4 ADD PUSH2 0xD5A SWAP1 PUSH2 0x4927 JUMP JUMPDEST PUSH1 0x40 MLOAD DUP1 SWAP2 SUB SWAP1 REVERT JUMPDEST PUSH2 0xD8D PUSH32 0x241ECF16D79D0F8DBFB92CBC07FE17840425976CF0667F022FE9877CAA831B08 DUP3 PUSH2 0xDD3 JUMP JUMPDEST DUP1 PUSH20 0xFFFFFFFFFFFFFFFFFFFFFFFFFFFFFFFFFFFFFFFF AND PUSH32 0x594022AE30F535100BD2169AB77AB37C1DBA3D7E89D04BD6BF17B121A3CA7C25 PUSH1 0x40 MLOAD PUSH1 0x40 MLOAD DUP1 SWAP2 SUB SWAP1 LOG2 POP JUMP JUMPDEST PUSH2 0xDDC DUP3 PUSH2 0xC07 JUMP JUMPDEST PUSH2 0xDE5 DUP2 PUSH2 0x24B9 JUMP JUMPDEST PUSH2 0xDEF DUP4 DUP4 PUSH2 0x24CD JUMP JUMPDEST POP POP POP POP JUMP JUMPDEST PUSH2 0xDFD PUSH2 0x216C JUMP JUMPDEST PUSH20 0xFFFFFFFFFFFFFFFFFFFFFFFFFFFFFFFFFFFFFFFF AND DUP2 PUSH20 0xFFFFFFFFFFFFFFFFFFFFFFFFFFFFFFFFFFFFFFFF AND EQ PUSH2 0xE61 JUMPI PUSH1 0x40 MLOAD PUSH32 0x6697B23200000000000000000000000000000000000000000000000000000000 DUP2 MSTORE PUSH1 0x4 ADD PUSH1 0x40 MLOAD DUP1 SWAP2 SUB SWAP1 REVERT JUMPDEST PUSH2 0xE6B DUP3 DUP3 PUSH2 0x25CE JUMP JUMPDEST POP POP POP JUMP JUMPDEST PUSH2 0xE9A PUSH32 0x241ECF16D79D0F8DBFB92CBC07FE17840425976CF0667F022FE9877CAA831B08 CALLER PUSH2 0x2468 JUMP JUMPDEST PUSH2 0xEA2 PUSH2 0x26D0 JUMP JUMPDEST JUMP JUMPDEST PUSH2 0xEBF DUP4 DUP4 DUP4 PUSH1 0x40 MLOAD DUP1 PUSH1 0x20 ADD PUSH1 0x40 MSTORE DUP1 PUSH1 0x0 DUP2 MSTORE POP PUSH2 0x1ACC JUMP JUMPDEST POP POP POP JUMP JUMPDEST PUSH2 0xECC PUSH2 0x2742 JUMP JUMPDEST PUSH2 0xED5 DUP3 PUSH2 0x2828 JUMP JUMPDEST PUSH2 0xEDF DUP3 DUP3 PUSH2 0x2855 JUMP JUMPDEST POP POP JUMP JUMPDEST PUSH1 0x0 PUSH2 0xEED PUSH2 0x2974 JUMP JUMPDEST PUSH32 0x360894A13BA1A3210667C828492DB98DCA3E2076CC3735A920A3CA505D382BBC PUSH1 0x0 SHL SWAP1 POP SWAP1 JUMP JUMPDEST PUSH2 0xF40 PUSH32 0x1F18E249044142F95A61B39BAD5F99F3C70699C83BB85A1AD87FE9E68BD85D1 CALLER PUSH2 0x2468 JUMP JUMPDEST PUSH2 0xF48 PUSH2 0x29FB JUMP JUMPDEST PUSH2 0xF50 PUSH2 0x2A3C JUMP JUMPDEST PUSH2 0xF58 PUSH2 0x2A82 JUMP JUMPDEST PUSH1 0x0 PUSH2 0xF62 PUSH2 0x2A9C JUMP JUMPDEST SWAP1 POP PUSH1 0x0 PUSH1 0x2 PUSH1 0x0 DUP4 DUP2 MSTORE PUSH1 0x20 ADD SWAP1 DUP2 MSTORE PUSH1 0x20 ADD PUSH1 0x0 KECCAK256 PUSH1 0x0 ADD SLOAD EQ PUSH2 0xFBD JUMPI PUSH1 0x40 MLOAD PUSH32 0x8C379A000000000000000000000000000000000000000000000000000000000 DUP2 MSTORE PUSH1 0x4 ADD PUSH2 0xFB4 SWAP1 PUSH2 0x4993 JUMP JUMPDEST PUSH1 0x40 MLOAD DUP1 SWAP2 SUB SWAP1 REVERT JUMPDEST PUSH1 0x0 PUSH1 0x3 DUP6 PUSH1 0x40 MLOAD PUSH2 0xFCF SWAP2 SWAP1 PUSH2 0x49EF JUMP JUMPDEST SWAP1 DUP2 MSTORE PUSH1 0x20 ADD PUSH1 0x40 MLOAD DUP1 SWAP2 SUB SWAP1 KECCAK256 SLOAD EQ PUSH2 0x101E JUMPI PUSH1 0x40 MLOAD PUSH32 0x8C379A000000000000000000000000000000000000000000000000000000000 DUP2 MSTORE PUSH1 0x4 ADD PUSH2 0x1015 SWAP1 PUSH2 0x4A78 JUMP JUMPDEST PUSH1 0x40 MLOAD DUP1 SWAP2 SUB SWAP1 REVERT JUMPDEST PUSH2 0x1029 DUP4 CALLER DUP5 PUSH2 0x1A17 JUMP JUMPDEST PUSH2 0x1068 JUMPI PUSH1 0x40 MLOAD PUSH32 0x8C379A000000000000000000000000000000000000000000000000000000000 DUP2 MSTORE PUSH1 0x4 ADD PUSH2 0x105F SWAP1 PUSH2 0x4AE4 JUMP JUMPDEST PUSH1 0x40 MLOAD DUP1 SWAP2 SUB SWAP1 REVERT JUMPDEST PUSH1 0x40 MLOAD DUP1 PUSH1 0xA0 ADD PUSH1 0x40 MSTORE DUP1 DUP3 DUP2 MSTORE PUSH1 0x20 ADD DUP6 DUP2 MSTORE PUSH1 0x20 ADD PUSH1 0x0 PUSH1 0x1 DUP2 GT ISZERO PUSH2 0x1093 JUMPI PUSH2 0x1092 PUSH2 0x456D JUMP JUMPDEST JUMPDEST DUP2 MSTORE PUSH1 0x20 ADD DUP4 DUP2 MSTORE PUSH1 0x20 ADD CALLER PUSH20 0xFFFFFFFFFFFFFFFFFFFFFFFFFFFFFFFFFFFFFFFF AND DUP2 MSTORE POP PUSH1 0x2 PUSH1 0x0 DUP4 DUP2 MSTORE PUSH1 0x20 ADD SWAP1 DUP2 MSTORE PUSH1 0x20 ADD PUSH1 0x0 KECCAK256 PUSH1 0x0 DUP3 ADD MLOAD DUP2 PUSH1 0x0 ADD SSTORE PUSH1 0x20 DUP3 ADD MLOAD DUP2 PUSH1 0x1 ADD SWAP1 DUP2 PUSH2 0x10EA SWAP2 SWAP1 PUSH2 0x4CB0 JUMP JUMPDEST POP PUSH1 0x40 DUP3 ADD MLOAD DUP2 PUSH1 0x2 ADD PUSH1 0x0 PUSH2 0x100 EXP DUP2 SLOAD DUP2 PUSH1 0xFF MUL NOT AND SWAP1 DUP4 PUSH1 0x1 DUP2 GT ISZERO PUSH2 0x1116 JUMPI PUSH2 0x1115 PUSH2 0x456D JUMP JUMPDEST JUMPDEST MUL OR SWAP1 SSTORE POP PUSH1 0x60 DUP3 ADD MLOAD DUP2 PUSH1 0x3 ADD SWAP1 DUP2 PUSH2 0x1130 SWAP2 SWAP1 PUSH2 0x4DDD JUMP JUMPDEST POP PUSH1 0x80 DUP3 ADD MLOAD DUP2 PUSH1 0x4 ADD PUSH1 0x0 PUSH2 0x100 EXP DUP2 SLOAD DUP2 PUSH20 0xFFFFFFFFFFFFFFFFFFFFFFFFFFFFFFFFFFFFFFFF MUL NOT AND SWAP1 DUP4 PUSH20 0xFFFFFFFFFFFFFFFFFFFFFFFFFFFFFFFFFFFFFFFF AND MUL OR SWAP1 SSTORE POP SWAP1 POP POP DUP1 PUSH1 0x3 DUP6 PUSH1 0x40 MLOAD PUSH2 0x118C SWAP2 SWAP1 PUSH2 0x49EF JUMP JUMPDEST SWAP1 DUP2 MSTORE PUSH1 0x20 ADD PUSH1 0x40 MLOAD DUP1 SWAP2 SUB SWAP1 KECCAK256 DUP2 SWAP1 SSTORE POP PUSH2 0x11A8 DUP6 DUP3 PUSH2 0x2AA6 JUMP JUMPDEST CALLER PUSH20 0xFFFFFFFFFFFFFFFFFFFFFFFFFFFFFFFFFFFFFFFF AND DUP6 PUSH20 0xFFFFFFFFFFFFFFFFFFFFFFFFFFFFFFFFFFFFFFFF AND DUP3 PUSH32 0xD3BD681D2FE91FDA330D69FECA5DC6A668F4862360861444DE295F833E351053 PUSH1 0x40 MLOAD PUSH1 0x40 MLOAD DUP1 SWAP2 SUB SWAP1 LOG4 POP PUSH2 0x120C PUSH2 0x2B9F JUMP JUMPDEST POP POP POP POP JUMP JUMPDEST PUSH1 0x0 DUP1 PUSH2 0x121D PUSH2 0x2BA9 JUMP JUMPDEST SWAP1 POP DUP1 PUSH1 0x0 ADD PUSH1 0x0 SWAP1 SLOAD SWAP1 PUSH2 0x100 EXP SWAP1 DIV PUSH1 0xFF AND SWAP2 POP POP SWAP1 JUMP JUMPDEST PUSH1 0x0 PUSH2 0x1242 DUP3 PUSH2 0x2099 JUMP JUMPDEST SWAP1 POP SWAP2 SWAP1 POP JUMP JUMPDEST PUSH1 0x0 DUP1 PUSH2 0x1254 PUSH2 0x2071 JUMP JUMPDEST SWAP1 POP PUSH1 0x0 PUSH20 0xFFFFFFFFFFFFFFFFFFFFFFFFFFFFFFFFFFFFFFFF AND DUP4 PUSH20 0xFFFFFFFFFFFFFFFFFFFFFFFFFFFFFFFFFFFFFFFF AND SUB PUSH2 0x12C8 JUMPI PUSH1 0x0 PUSH1 0x40 MLOAD PUSH32 0x89C62B6400000000000000000000000000000000000000000000000000000000 DUP2 MSTORE PUSH1 0x4 ADD PUSH2 0x12BF SWAP2 SWAP1 PUSH2 0x3E48 JUMP JUMPDEST PUSH1 0x40 MLOAD DUP1 SWAP2 SUB SWAP1 REVERT JUMPDEST DUP1 PUSH1 0x3 ADD PUSH1 0x0 DUP5 PUSH20 0xFFFFFFFFFFFFFFFFFFFFFFFFFFFFFFFFFFFFFFFF AND PUSH20 0xFFFFFFFFFFFFFFFFFFFFFFFFFFFFFFFFFFFFFFFF AND DUP2 MSTORE PUSH1 0x20 ADD SWAP1 DUP2 MSTORE PUSH1 0x20 ADD PUSH1 0x0 KECCAK256 SLOAD SWAP2 POP POP SWAP2 SWAP1 POP JUMP JUMPDEST PUSH2 0x133C PUSH32 0x241ECF16D79D0F8DBFB92CBC07FE17840425976CF0667F022FE9877CAA831B08 CALLER PUSH2 0x2468 JUMP JUMPDEST PUSH2 0x1366 PUSH32 0x1F18E249044142F95A61B39BAD5F99F3C70699C83BB85A1AD87FE9E68BD85D1 DUP4 PUSH2 0x1766 JUMP JUMPDEST PUSH2 0x13A5 JUMPI PUSH1 0x40 MLOAD PUSH32 0x8C379A000000000000000000000000000000000000000000000000000000000 DUP2 MSTORE PUSH1 0x4 ADD PUSH2 0x139C SWAP1 PUSH2 0x4EFB JUMP JUMPDEST PUSH1 0x40 MLOAD DUP1 SWAP2 SUB SWAP1 REVERT JUMPDEST PUSH2 0x13CF PUSH32 0x1F18E249044142F95A61B39BAD5F99F3C70699C83BB85A1AD87FE9E68BD85D1 DUP4 PUSH2 0x1BE1 JUMP JUMPDEST DUP2 PUSH20 0xFFFFFFFFFFFFFFFFFFFFFFFFFFFFFFFFFFFFFFFF AND PUSH32 0xAC234B0E1C8C07E26DC3F3271849BABAC0394B68F7D0E15F1B8D9EA28D482DFD DUP3 PUSH1 0x40 MLOAD PUSH2 0x1415 SWAP2 SWAP1 PUSH2 0x3D82 JUMP JUMPDEST PUSH1 0x40 MLOAD DUP1 SWAP2 SUB SWAP1 LOG2 POP POP JUMP JUMPDEST PUSH1 0x0 PUSH2 0x142B PUSH2 0x2BD1 JUMP JUMPDEST SWAP1 POP PUSH1 0x0 DUP2 PUSH1 0x0 ADD PUSH1 0x8 SWAP1 SLOAD SWAP1 PUSH2 0x100 EXP SWAP1 DIV PUSH1 0xFF AND ISZERO SWAP1 POP PUSH1 0x0 DUP3 PUSH1 0x0 ADD PUSH1 0x0 SWAP1 SLOAD SWAP1 PUSH2 0x100 EXP SWAP1 DIV PUSH8 0xFFFFFFFFFFFFFFFF AND SWAP1 POP PUSH1 0x0 DUP1 DUP3 PUSH8 0xFFFFFFFFFFFFFFFF AND EQ DUP1 ISZERO PUSH2 0x1479 JUMPI POP DUP3 JUMPDEST SWAP1 POP PUSH1 0x0 PUSH1 0x1 DUP4 PUSH8 0xFFFFFFFFFFFFFFFF AND EQ DUP1 ISZERO PUSH2 0x14AE JUMPI POP PUSH1 0x0 ADDRESS PUSH20 0xFFFFFFFFFFFFFFFFFFFFFFFFFFFFFFFFFFFFFFFF AND EXTCODESIZE EQ JUMPDEST SWAP1 POP DUP2 ISZERO DUP1 ISZERO PUSH2 0x14BC JUMPI POP DUP1 ISZERO JUMPDEST ISZERO PUSH2 0x14F3 JUMPI PUSH1 0x40 MLOAD PUSH32 0xF92EE8A900000000000000000000000000000000000000000000000000000000 DUP2 MSTORE PUSH1 0x4 ADD PUSH1 0x40 MLOAD DUP1 SWAP2 SUB SWAP1 REVERT JUMPDEST PUSH1 0x1 DUP6 PUSH1 0x0 ADD PUSH1 0x0 PUSH2 0x100 EXP DUP2 SLOAD DUP2 PUSH8 0xFFFFFFFFFFFFFFFF MUL NOT AND SWAP1 DUP4 PUSH8 0xFFFFFFFFFFFFFFFF AND MUL OR SWAP1 SSTORE POP DUP4 ISZERO PUSH2 0x1543 JUMPI PUSH1 0x1 DUP6 PUSH1 0x0 ADD PUSH1 0x8 PUSH2 0x100 EXP DUP2 SLOAD DUP2 PUSH1 0xFF MUL NOT AND SWAP1 DUP4 ISZERO ISZERO MUL OR SWAP1 SSTORE POP JUMPDEST PUSH2 0x15B7 PUSH1 0x40 MLOAD DUP1 PUSH1 0x40 ADD PUSH1 0x40 MSTORE DUP1 PUSH1 0x14 DUP2 MSTORE PUSH1 0x20 ADD PUSH32 0x41636164656D69632043726564656E7469616C73000000000000000000000000 DUP2 MSTORE POP PUSH1 0x40 MLOAD DUP1 PUSH1 0x40 ADD PUSH1 0x40 MSTORE DUP1 PUSH1 0x5 DUP2 MSTORE PUSH1 0x20 ADD PUSH32 0x4143524544000000000000000000000000000000000000000000000000000000 DUP2 MSTORE POP PUSH2 0x2BF9 JUMP JUMPDEST PUSH2 0x15BF PUSH2 0x2C0F JUMP JUMPDEST PUSH2 0x15C7 PUSH2 0x2C19 JUMP JUMPDEST PUSH2 0x15CF PUSH2 0x2C2B JUMP JUMPDEST PUSH2 0x15DC PUSH1 0x0 DUP1 SHL CALLER PUSH2 0x24CD JUMP JUMPDEST POP DUP4 ISZERO PUSH2 0x1639 JUMPI PUSH1 0x0 DUP6 PUSH1 0x0 ADD PUSH1 0x8 PUSH2 0x100 EXP DUP2 SLOAD DUP2 PUSH1 0xFF MUL NOT AND SWAP1 DUP4 ISZERO ISZERO MUL OR SWAP1 SSTORE POP PUSH32 0xC7F505B2F371AE2175EE4913F4499E1F2633A7B5936321EED1CDAEB6115181D2 PUSH1 0x1 PUSH1 0x40 MLOAD PUSH2 0x1630 SWAP2 SWAP1 PUSH2 0x4F6A JUMP JUMPDEST PUSH1 0x40 MLOAD DUP1 SWAP2 SUB SWAP1 LOG1 JUMPDEST POP POP POP POP POP JUMP JUMPDEST PUSH2 0x166A PUSH32 0x241ECF16D79D0F8DBFB92CBC07FE17840425976CF0667F022FE9877CAA831B08 CALLER PUSH2 0x2468 JUMP JUMPDEST PUSH2 0x1672 PUSH2 0x2C35 JUMP JUMPDEST JUMP JUMPDEST PUSH2 0x1681 PUSH1 0x0 DUP1 SHL CALLER PUSH2 0x2468 JUMP JUMPDEST PUSH2 0x16AB PUSH32 0x241ECF16D79D0F8DBFB92CBC07FE17840425976CF0667F022FE9877CAA831B08 DUP4 PUSH2 0x1766 JUMP JUMPDEST PUSH2 0x16EA JUMPI PUSH1 0x40 MLOAD PUSH32 0x8C379A000000000000000000000000000000000000000000000000000000000 DUP2 MSTORE PUSH1 0x4 ADD PUSH2 0x16E1 SWAP1 PUSH2 0x4FD1 JUMP JUMPDEST PUSH1 0x40 MLOAD DUP1 SWAP2 SUB SWAP1 REVERT JUMPDEST PUSH2 0x1714 PUSH32 0x241ECF16D79D0F8DBFB92CBC07FE17840425976CF0667F022FE9877CAA831B08 DUP4 PUSH2 0x1BE1 JUMP JUMPDEST DUP2 PUSH20 0xFFFFFFFFFFFFFFFFFFFFFFFFFFFFFFFFFFFFFFFF AND PUSH32 0x2A65D71DDD7E0FC167105C9D6A51832464FCA91D67B3D8871C2ED3D1FAB22787 DUP3 PUSH1 0x40 MLOAD PUSH2 0x175A SWAP2 SWAP1 PUSH2 0x3D82 JUMP JUMPDEST PUSH1 0x40 MLOAD DUP1 SWAP2 SUB SWAP1 LOG2 POP POP JUMP JUMPDEST PUSH1 0x0 DUP1 PUSH2 0x1771 PUSH2 0x2440 JUMP JUMPDEST SWAP1 POP DUP1 PUSH1 0x0 ADD PUSH1 0x0 DUP6 DUP2 MSTORE PUSH1 0x20 ADD SWAP1 DUP2 MSTORE PUSH1 0x20 ADD PUSH1 0x0 KECCAK256 PUSH1 0x0 ADD PUSH1 0x0 DUP5 PUSH20 0xFFFFFFFFFFFFFFFFFFFFFFFFFFFFFFFFFFFFFFFF AND PUSH20 0xFFFFFFFFFFFFFFFFFFFFFFFFFFFFFFFFFFFFFFFF AND DUP2 MSTORE PUSH1 0x20 ADD SWAP1 DUP2 MSTORE PUSH1 0x20 ADD PUSH1 0x0 KECCAK256 PUSH1 0x0 SWAP1 SLOAD SWAP1 PUSH2 0x100 EXP SWAP1 DIV PUSH1 0xFF AND SWAP2 POP POP SWAP3 SWAP2 POP POP JUMP JUMPDEST PUSH2 0x1809 PUSH32 0x1F18E249044142F95A61B39BAD5F99F3C70699C83BB85A1AD87FE9E68BD85D1 CALLER PUSH2 0x2468 JUMP JUMPDEST PUSH2 0x1811 PUSH2 0x2A3C JUMP JUMPDEST PUSH2 0x181A DUP3 PUSH2 0x2186 JUMP JUMPDEST PUSH2 0x1859 JUMPI PUSH1 0x40 MLOAD PUSH32 0x8C379A000000000000000000000000000000000000000000000000000000000 DUP2 MSTORE PUSH1 0x4 ADD PUSH2 0x1850 SWAP1 PUSH2 0x4786 JUMP JUMPDEST PUSH1 0x40 MLOAD DUP1 SWAP2 SUB SWAP1 REVERT JUMPDEST PUSH1 0x0 PUSH1 0x2 PUSH1 0x0 DUP5 DUP2 MSTORE PUSH1 0x20 ADD SWAP1 DUP2 MSTORE PUSH1 0x20 ADD PUSH1 0x0 KECCAK256 SWAP1 POP PUSH1 0x0 PUSH1 0x1 DUP2 GT ISZERO PUSH2 0x1884 JUMPI PUSH2 0x1883 PUSH2 0x456D JUMP JUMPDEST JUMPDEST DUP2 PUSH1 0x2 ADD PUSH1 0x0 SWAP1 SLOAD SWAP1 PUSH2 0x100 EXP SWAP1 DIV PUSH1 0xFF AND PUSH1 0x1 DUP2 GT ISZERO PUSH2 0x18A8 JUMPI PUSH2 0x18A7 PUSH2 0x456D JUMP JUMPDEST JUMPDEST EQ PUSH2 0x18E8 JUMPI PUSH1 0x40 MLOAD PUSH32 0x8C379A000000000000000000000000000000000000000000000000000000000 DUP2 MSTORE PUSH1 0x4 ADD PUSH2 0x18DF SWAP1 PUSH2 0x503D JUMP JUMPDEST PUSH1 0x40 MLOAD DUP1 SWAP2 SUB SWAP1 REVERT JUMPDEST PUSH1 0x0 DUP2 PUSH1 0x2 ADD PUSH1 0x0 SWAP1 SLOAD SWAP1 PUSH2 0x100 EXP SWAP1 DIV PUSH1 0xFF AND SWAP1 POP PUSH1 0x1 DUP3 PUSH1 0x2 ADD PUSH1 0x0 PUSH2 0x100 EXP DUP2 SLOAD DUP2 PUSH1 0xFF MUL NOT AND SWAP1 DUP4 PUSH1 0x1 DUP2 GT ISZERO PUSH2 0x1926 JUMPI PUSH2 0x1925 PUSH2 0x456D JUMP JUMPDEST JUMPDEST MUL OR SWAP1 SSTORE POP DUP4 PUSH32 0x2840FBA00BDCDA6213AC8F2DF6BD0EAA93C78B71E752268CEF89210A1705E4EF DUP3 PUSH1 0x1 DUP7 PUSH1 0x40 MLOAD PUSH2 0x1960 SWAP4 SWAP3 SWAP2 SWAP1 PUSH2 0x505D JUMP JUMPDEST PUSH1 0x40 MLOAD DUP1 SWAP2 SUB SWAP1 LOG2 POP POP PUSH2 0x1972 PUSH2 0x2B9F JUMP JUMPDEST POP POP JUMP JUMPDEST PUSH1 0x60 PUSH1 0x0 PUSH2 0x1982 PUSH2 0x2071 JUMP JUMPDEST SWAP1 POP DUP1 PUSH1 0x1 ADD DUP1 SLOAD PUSH2 0x1993 SWAP1 PUSH2 0x4709 JUMP JUMPDEST DUP1 PUSH1 0x1F ADD PUSH1 0x20 DUP1 SWAP2 DIV MUL PUSH1 0x20 ADD PUSH1 0x40 MLOAD SWAP1 DUP2 ADD PUSH1 0x40 MSTORE DUP1 SWAP3 SWAP2 SWAP1 DUP2 DUP2 MSTORE PUSH1 0x20 ADD DUP3 DUP1 SLOAD PUSH2 0x19BF SWAP1 PUSH2 0x4709 JUMP JUMPDEST DUP1 ISZERO PUSH2 0x1A0C JUMPI DUP1 PUSH1 0x1F LT PUSH2 0x19E1 JUMPI PUSH2 0x100 DUP1 DUP4 SLOAD DIV MUL DUP4 MSTORE SWAP2 PUSH1 0x20 ADD SWAP2 PUSH2 0x1A0C JUMP JUMPDEST DUP3 ADD SWAP2 SWAP1 PUSH1 0x0 MSTORE PUSH1 0x20 PUSH1 0x0 KECCAK256 SWAP1 JUMPDEST DUP2 SLOAD DUP2 MSTORE SWAP1 PUSH1 0x1 ADD SWAP1 PUSH1 0x20 ADD DUP1 DUP4 GT PUSH2 0x19EF JUMPI DUP3 SWAP1 SUB PUSH1 0x1F AND DUP3 ADD SWAP2 JUMPDEST POP POP POP POP POP SWAP2 POP POP SWAP1 JUMP JUMPDEST PUSH1 0x0 DUP1 PUSH2 0x1A23 DUP6 PUSH2 0x2CA7 JUMP JUMPDEST SWAP1 POP PUSH1 0x0 PUSH2 0x1A3A DUP5 DUP4 PUSH2 0x2CDD SWAP1 SWAP2 SWAP1 PUSH4 0xFFFFFFFF AND JUMP JUMPDEST SWAP1 POP DUP1 PUSH20 0xFFFFFFFFFFFFFFFFFFFFFFFFFFFFFFFFFFFFFFFF AND DUP6 PUSH20 0xFFFFFFFFFFFFFFFFFFFFFFFFFFFFFFFFFFFFFFFF AND EQ SWAP3 POP POP POP SWAP4 SWAP3 POP POP POP JUMP JUMPDEST PUSH1 0x0 DUP1 SHL DUP2 JUMP JUMPDEST PUSH2 0x1A8F PUSH2 0x1A88 PUSH2 0x216C JUMP JUMPDEST DUP4 DUP4 PUSH2 0x2D09 JUMP JUMPDEST POP POP JUMP JUMPDEST PUSH1 0x40 MLOAD DUP1 PUSH1 0x40 ADD PUSH1 0x40 MSTORE DUP1 PUSH1 0x5 DUP2 MSTORE PUSH1 0x20 ADD PUSH32 0x352E302E30000000000000000000000000000000000000000000000000000000 DUP2 MSTORE POP DUP2 JUMP JUMPDEST PUSH2 0x1AD7 DUP5 DUP5 DUP5 PUSH2 0xB05 JUMP JUMPDEST PUSH2 0x1AEB PUSH2 0x1AE2 PUSH2 0x216C JUMP JUMPDEST DUP6 DUP6 DUP6 DUP6 PUSH2 0x2E87 JUMP JUMPDEST POP POP POP POP JUMP JUMPDEST PUSH1 0x60 PUSH2 0x1AFC DUP3 PUSH2 0x2186 JUMP JUMPDEST PUSH2 0x1B3B JUMPI PUSH1 0x40 MLOAD PUSH32 0x8C379A000000000000000000000000000000000000000000000000000000000 DUP2 MSTORE PUSH1 0x4 ADD PUSH2 0x1B32 SWAP1 PUSH2 0x4786 JUMP JUMPDEST PUSH1 0x40 MLOAD DUP1 SWAP2 SUB SWAP1 REVERT JUMPDEST PUSH1 0x2 PUSH1 0x0 DUP4 DUP2 MSTORE PUSH1 0x20 ADD SWAP1 DUP2 MSTORE PUSH1 0x20 ADD PUSH1 0x0 KECCAK256 PUSH1 0x1 ADD DUP1 SLOAD PUSH2 0x1B5C SWAP1 PUSH2 0x4709 JUMP JUMPDEST DUP1 PUSH1 0x1F ADD PUSH1 0x20 DUP1 SWAP2 DIV MUL PUSH1 0x20 ADD PUSH1 0x40 MLOAD SWAP1 DUP2 ADD PUSH1 0x40 MSTORE DUP1 SWAP3 SWAP2 SWAP1 DUP2 DUP2 MSTORE PUSH1 0x20 ADD DUP3 DUP1 SLOAD PUSH2 0x1B88 SWAP1 PUSH2 0x4709 JUMP JUMPDEST DUP1 ISZERO PUSH2 0x1BD5 JUMPI DUP1 PUSH1 0x1F LT PUSH2 0x1BAA JUMPI PUSH2 0x100 DUP1 DUP4 SLOAD DIV MUL DUP4 MSTORE SWAP2 PUSH1 0x20 ADD SWAP2 PUSH2 0x1BD5 JUMP JUMPDEST DUP3 ADD SWAP2 SWAP1 PUSH1 0x0 MSTORE PUSH1 0x20 PUSH1 0x0 KECCAK256 SWAP1 JUMPDEST DUP2 SLOAD DUP2 MSTORE SWAP1 PUSH1 0x1 ADD SWAP1 PUSH1 0x20 ADD DUP1 DUP4 GT PUSH2 0x1BB8 JUMPI DUP3 SWAP1 SUB PUSH1 0x1F AND DUP3 ADD SWAP2 JUMPDEST POP POP POP POP POP SWAP1 POP SWAP2 SWAP1 POP JUMP JUMPDEST PUSH2 0x1BEA DUP3 PUSH2 0xC07 JUMP JUMPDEST PUSH2 0x1BF3 DUP2 PUSH2 0x24B9 JUMP JUMPDEST PUSH2 0x1BFD DUP4 DUP4 PUSH2 0x25CE JUMP JUMPDEST POP POP POP POP JUMP JUMPDEST PUSH1 0x2 PUSH1 0x20 MSTORE DUP1 PUSH1 0x0 MSTORE PUSH1 0x40 PUSH1 0x0 KECCAK256 PUSH1 0x0 SWAP2 POP SWAP1 POP DUP1 PUSH1 0x0 ADD SLOAD SWAP1 DUP1 PUSH1 0x1 ADD DUP1 SLOAD PUSH2 0x1C2C SWAP1 PUSH2 0x4709 JUMP JUMPDEST DUP1 PUSH1 0x1F ADD PUSH1 0x20 DUP1 SWAP2 DIV MUL PUSH1 0x20 ADD PUSH1 0x40 MLOAD SWAP1 DUP2 ADD PUSH1 0x40 MSTORE DUP1 SWAP3 SWAP2 SWAP1 DUP2 DUP2 MSTORE PUSH1 0x20 ADD DUP3 DUP1 SLOAD PUSH2 0x1C58 SWAP1 PUSH2 0x4709 JUMP JUMPDEST DUP1 ISZERO PUSH2 0x1CA5 JUMPI DUP1 PUSH1 0x1F LT PUSH2 0x1C7A JUMPI PUSH2 0x100 DUP1 DUP4 SLOAD DIV MUL DUP4 MSTORE SWAP2 PUSH1 0x20 ADD SWAP2 PUSH2 0x1CA5 JUMP JUMPDEST DUP3 ADD SWAP2 SWAP1 PUSH1 0x0 MSTORE PUSH1 0x20 PUSH1 0x0 KECCAK256 SWAP1 JUMPDEST DUP2 SLOAD DUP2 MSTORE SWAP1 PUSH1 0x1 ADD SWAP1 PUSH1 0x20 ADD DUP1 DUP4 GT PUSH2 0x1C88 JUMPI DUP3 SWAP1 SUB PUSH1 0x1F AND DUP3 ADD SWAP2 JUMPDEST POP POP POP POP POP SWAP1 DUP1 PUSH1 0x2 ADD PUSH1 0x0 SWAP1 SLOAD SWAP1 PUSH2 0x100 EXP SWAP1 DIV PUSH1 0xFF AND SWAP1 DUP1 PUSH1 0x3 ADD DUP1 SLOAD PUSH2 0x1CCD SWAP1 PUSH2 0x4709 JUMP JUMPDEST DUP1 PUSH1 0x1F ADD PUSH1 0x20 DUP1 SWAP2 DIV MUL PUSH1 0x20 ADD PUSH1 0x40 MLOAD SWAP1 DUP2 ADD PUSH1 0x40 MSTORE DUP1 SWAP3 SWAP2 SWAP1 DUP2 DUP2 MSTORE PUSH1 0x20 ADD DUP3 DUP1 SLOAD PUSH2 0x1CF9 SWAP1 PUSH2 0x4709 JUMP JUMPDEST DUP1 ISZERO PUSH2 0x1D46 JUMPI DUP1 PUSH1 0x1F LT PUSH2 0x1D1B JUMPI PUSH2 0x100 DUP1 DUP4 SLOAD DIV MUL DUP4 MSTORE SWAP2 PUSH1 0x20 ADD SWAP2 PUSH2 0x1D46 JUMP JUMPDEST DUP3 ADD SWAP2 SWAP1 PUSH1 0x0 MSTORE PUSH1 0x20 PUSH1 0x0 KECCAK256 SWAP1 JUMPDEST DUP2 SLOAD DUP2 MSTORE SWAP1 PUSH1 0x1 ADD SWAP1 PUSH1 0x20 ADD DUP1 DUP4 GT PUSH2 0x1D29 JUMPI DUP3 SWAP1 SUB PUSH1 0x1F AND DUP3 ADD SWAP2 JUMPDEST POP POP POP POP POP SWAP1 DUP1 PUSH1 0x4 ADD PUSH1 0x0 SWAP1 SLOAD SWAP1 PUSH2 0x100 EXP SWAP1 DIV PUSH20 0xFFFFFFFFFFFFFFFFFFFFFFFFFFFFFFFFFFFFFFFF AND SWAP1 POP DUP6 JUMP JUMPDEST PUSH1 0x0 DUP1 PUSH2 0x1D81 PUSH2 0x2071 JUMP JUMPDEST SWAP1 POP DUP1 PUSH1 0x5 ADD PUSH1 0x0 DUP6 PUSH20 0xFFFFFFFFFFFFFFFFFFFFFFFFFFFFFFFFFFFFFFFF AND PUSH20 0xFFFFFFFFFFFFFFFFFFFFFFFFFFFFFFFFFFFFFFFF AND DUP2 MSTORE PUSH1 0x20 ADD SWAP1 DUP2 MSTORE PUSH1 0x20 ADD PUSH1 0x0 KECCAK256 PUSH1 0x0 DUP5 PUSH20 0xFFFFFFFFFFFFFFFFFFFFFFFFFFFFFFFFFFFFFFFF AND PUSH20 0xFFFFFFFFFFFFFFFFFFFFFFFFFFFFFFFFFFFFFFFF AND DUP2 MSTORE PUSH1 0x20 ADD SWAP1 DUP2 MSTORE PUSH1 0x20 ADD PUSH1 0x0 KECCAK256 PUSH1 0x0 SWAP1 SLOAD SWAP1 PUSH2 0x100 EXP SWAP1 DIV PUSH1 0xFF AND SWAP2 POP POP SWAP3 SWAP2 POP POP JUMP JUMPDEST PUSH32 0x241ECF16D79D0F8DBFB92CBC07FE17840425976CF0667F022FE9877CAA831B08 DUP2 JUMP JUMPDEST PUSH2 0x1E66 PUSH32 0x241ECF16D79D0F8DBFB92CBC07FE17840425976CF0667F022FE9877CAA831B08 CALLER PUSH2 0x2468 JUMP JUMPDEST PUSH2 0x1E90 PUSH32 0x241ECF16D79D0F8DBFB92CBC07FE17840425976CF0667F022FE9877CAA831B08 DUP3 PUSH2 0x1766 JUMP JUMPDEST ISZERO PUSH2 0x1ED0 JUMPI PUSH1 0x40 MLOAD PUSH32 0x8C379A000000000000000000000000000000000000000000000000000000000 DUP2 MSTORE PUSH1 0x4 ADD PUSH2 0x1EC7 SWAP1 PUSH2 0x4829 JUMP JUMPDEST PUSH1 0x40 MLOAD DUP1 SWAP2 SUB SWAP1 REVERT JUMPDEST PUSH2 0x1EFA PUSH32 0x1F18E249044142F95A61B39BAD5F99F3C70699C83BB85A1AD87FE9E68BD85D1 DUP3 PUSH2 0x1766 JUMP JUMPDEST ISZERO PUSH2 0x1F3A JUMPI PUSH1 0x40 MLOAD PUSH32 0x8C379A000000000000000000000000000000000000000000000000000000000 DUP2 MSTORE PUSH1 0x4 ADD PUSH2 0x1F31 SWAP1 PUSH2 0x48BB JUMP JUMPDEST PUSH1 0x40 MLOAD DUP1 SWAP2 SUB SWAP1 REVERT JUMPDEST PUSH2 0x1F47 PUSH1 0x0 DUP1 SHL DUP3 PUSH2 0x1766 JUMP JUMPDEST ISZERO PUSH2 0x1F87 JUMPI PUSH1 0x40 MLOAD PUSH32 0x8C379A000000000000000000000000000000000000000000000000000000000 DUP2 MSTORE PUSH1 0x4 ADD PUSH2 0x1F7E SWAP1 PUSH2 0x4927 JUMP JUMPDEST PUSH1 0x40 MLOAD DUP1 SWAP2 SUB SWAP1 REVERT JUMPDEST PUSH2 0x1FB1 PUSH32 0x1F18E249044142F95A61B39BAD5F99F3C70699C83BB85A1AD87FE9E68BD85D1 DUP3 PUSH2 0xDD3 JUMP JUMPDEST DUP1 PUSH20 0xFFFFFFFFFFFFFFFFFFFFFFFFFFFFFFFFFFFFFFFF AND PUSH32 0x88FAE95B509FF46EC752CD32B3C9E319FA7A8DD9AEFC64FB91C1AA6BA4E88897 PUSH1 0x40 MLOAD PUSH1 0x40 MLOAD DUP1 SWAP2 SUB SWAP1 LOG2 POP JUMP JUMPDEST PUSH1 0x0 PUSH32 0x7965DB0B00000000000000000000000000000000000000000000000000000000 PUSH28 0xFFFFFFFFFFFFFFFFFFFFFFFFFFFFFFFFFFFFFFFFFFFFFFFFFFFFFFFF NOT AND DUP3 PUSH28 0xFFFFFFFFFFFFFFFFFFFFFFFFFFFFFFFFFFFFFFFFFFFFFFFFFFFFFFFF NOT AND EQ DUP1 PUSH2 0x206A JUMPI POP PUSH2 0x2069 DUP3 PUSH2 0x3038 JUMP JUMPDEST JUMPDEST SWAP1 POP SWAP2 SWAP1 POP JUMP JUMPDEST PUSH1 0x0 PUSH32 0x80BB2B638CC20BC4D0A60D66940F3AB4A00C1D7B313497CA82FB0B4AB0079300 SWAP1 POP SWAP1 JUMP JUMPDEST PUSH1 0x0 DUP1 PUSH2 0x20A5 DUP4 PUSH2 0x311A JUMP JUMPDEST SWAP1 POP PUSH1 0x0 PUSH20 0xFFFFFFFFFFFFFFFFFFFFFFFFFFFFFFFFFFFFFFFF AND DUP2 PUSH20 0xFFFFFFFFFFFFFFFFFFFFFFFFFFFFFFFFFFFFFFFF AND SUB PUSH2 0x2118 JUMPI DUP3 PUSH1 0x40 MLOAD PUSH32 0x7E27328900000000000000000000000000000000000000000000000000000000 DUP2 MSTORE PUSH1 0x4 ADD PUSH2 0x210F SWAP2 SWAP1 PUSH2 0x433C JUMP JUMPDEST PUSH1 0x40 MLOAD DUP1 SWAP2 SUB SWAP1 REVERT JUMPDEST DUP1 SWAP2 POP POP SWAP2 SWAP1 POP JUMP JUMPDEST PUSH1 0x0 DUP1 PUSH2 0x212C PUSH2 0x2071 JUMP JUMPDEST SWAP1 POP DUP1 PUSH1 0x4 ADD PUSH1 0x0 DUP5 DUP2 MSTORE PUSH1 0x20 ADD SWAP1 DUP2 MSTORE PUSH1 0x20 ADD PUSH1 0x0 KECCAK256 PUSH1 0x0 SWAP1 SLOAD SWAP1 PUSH2 0x100 EXP SWAP1 DIV PUSH20 0xFFFFFFFFFFFFFFFFFFFFFFFFFFFFFFFFFFFFFFFF AND SWAP2 POP POP SWAP2 SWAP1 POP JUMP JUMPDEST PUSH1 0x0 CALLER SWAP1 POP SWAP1 JUMP JUMPDEST PUSH2 0x2181 DUP4 DUP4 DUP4 PUSH1 0x1 PUSH2 0x3165 JUMP JUMPDEST POP POP POP JUMP JUMPDEST PUSH1 0x0 ADDRESS PUSH20 0xFFFFFFFFFFFFFFFFFFFFFFFFFFFFFFFFFFFFFFFF AND PUSH4 0x6352211E DUP4 PUSH1 0x40 MLOAD DUP3 PUSH4 0xFFFFFFFF AND PUSH1 0xE0 SHL DUP2 MSTORE PUSH1 0x4 ADD PUSH2 0x21C1 SWAP2 SWAP1 PUSH2 0x433C JUMP JUMPDEST PUSH1 0x20 PUSH1 0x40 MLOAD DUP1 DUP4 SUB DUP2 DUP7 GAS STATICCALL SWAP3 POP POP POP DUP1 ISZERO PUSH2 0x21FB JUMPI POP PUSH1 0x40 MLOAD RETURNDATASIZE PUSH1 0x1F NOT PUSH1 0x1F DUP3 ADD AND DUP3 ADD DUP1 PUSH1 0x40 MSTORE POP DUP2 ADD SWAP1 PUSH2 0x21F8 SWAP2 SWAP1 PUSH2 0x50B0 JUMP JUMPDEST PUSH1 0x1 JUMPDEST PUSH2 0x2208 JUMPI PUSH1 0x0 SWAP1 POP PUSH2 0x220E JUMP JUMPDEST PUSH1 0x1 SWAP2 POP POP JUMPDEST SWAP2 SWAP1 POP JUMP JUMPDEST PUSH1 0x0 DUP1 PUSH2 0x221E PUSH2 0x2071 JUMP JUMPDEST SWAP1 POP PUSH1 0x0 PUSH2 0x222B DUP6 PUSH2 0x311A JUMP JUMPDEST SWAP1 POP PUSH1 0x0 PUSH20 0xFFFFFFFFFFFFFFFFFFFFFFFFFFFFFFFFFFFFFFFF AND DUP5 PUSH20 0xFFFFFFFFFFFFFFFFFFFFFFFFFFFFFFFFFFFFFFFF AND EQ PUSH2 0x226D JUMPI PUSH2 0x226C DUP2 DUP6 DUP8 PUSH2 0x3339 JUMP JUMPDEST JUMPDEST PUSH1 0x0 PUSH20 0xFFFFFFFFFFFFFFFFFFFFFFFFFFFFFFFFFFFFFFFF AND DUP2 PUSH20 0xFFFFFFFFFFFFFFFFFFFFFFFFFFFFFFFFFFFFFFFF AND EQ PUSH2 0x2300 JUMPI PUSH2 0x22AF PUSH1 0x0 DUP7 PUSH1 0x0 DUP1 PUSH2 0x3165 JUMP JUMPDEST PUSH1 0x1 DUP3 PUSH1 0x3 ADD PUSH1 0x0 DUP4 PUSH20 0xFFFFFFFFFFFFFFFFFFFFFFFFFFFFFFFFFFFFFFFF AND PUSH20 0xFFFFFFFFFFFFFFFFFFFFFFFFFFFFFFFFFFFFFFFF AND DUP2 MSTORE PUSH1 0x20 ADD SWAP1 DUP2 MSTORE PUSH1 0x20 ADD PUSH1 0x0 KECCAK256 PUSH1 0x0 DUP3 DUP3 SLOAD SUB SWAP3 POP POP DUP2 SWAP1 SSTORE POP JUMPDEST PUSH1 0x0 PUSH20 0xFFFFFFFFFFFFFFFFFFFFFFFFFFFFFFFFFFFFFFFF AND DUP7 PUSH20 0xFFFFFFFFFFFFFFFFFFFFFFFFFFFFFFFFFFFFFFFF AND EQ PUSH2 0x2385 JUMPI PUSH1 0x1 DUP3 PUSH1 0x3 ADD PUSH1 0x0 DUP9 PUSH20 0xFFFFFFFFFFFFFFFFFFFFFFFFFFFFFFFFFFFFFFFF AND PUSH20 0xFFFFFFFFFFFFFFFFFFFFFFFFFFFFFFFFFFFFFFFF AND DUP2 MSTORE PUSH1 0x20 ADD SWAP1 DUP2 MSTORE PUSH1 0x20 ADD PUSH1 0x0 KECCAK256 PUSH1 0x0 DUP3 DUP3 SLOAD ADD SWAP3 POP POP DUP2 SWAP1 SSTORE POP JUMPDEST DUP6 DUP3 PUSH1 0x2 ADD PUSH1 0x0 DUP8 DUP2 MSTORE PUSH1 0x20 ADD SWAP1 DUP2 MSTORE PUSH1 0x20 ADD PUSH1 0x0 KECCAK256 PUSH1 0x0 PUSH2 0x100 EXP DUP2 SLOAD DUP2 PUSH20 0xFFFFFFFFFFFFFFFFFFFFFFFFFFFFFFFFFFFFFFFF MUL NOT AND SWAP1 DUP4 PUSH20 0xFFFFFFFFFFFFFFFFFFFFFFFFFFFFFFFFFFFFFFFF AND MUL OR SWAP1 SSTORE POP DUP5 DUP7 PUSH20 0xFFFFFFFFFFFFFFFFFFFFFFFFFFFFFFFFFFFFFFFF AND DUP3 PUSH20 0xFFFFFFFFFFFFFFFFFFFFFFFFFFFFFFFFFFFFFFFF AND PUSH32 0xDDF252AD1BE2C89B69C2B068FC378DAA952BA7F163C4A11628F55A4DF523B3EF PUSH1 0x40 MLOAD PUSH1 0x40 MLOAD DUP1 SWAP2 SUB SWAP1 LOG4 DUP1 SWAP3 POP POP POP SWAP4 SWAP3 POP POP POP JUMP JUMPDEST PUSH1 0x0 PUSH32 0x2DD7BC7DEC4DCEEDDA775E58DD541E08A116C6C53815C0BD028192F7B626800 SWAP1 POP SWAP1 JUMP JUMPDEST PUSH2 0x2472 DUP3 DUP3 PUSH2 0x1766 JUMP JUMPDEST PUSH2 0x24B5 JUMPI DUP1 DUP3 PUSH1 0x40 MLOAD PUSH32 0xE2517D3F00000000000000000000000000000000000000000000000000000000 DUP2 MSTORE PUSH1 0x4 ADD PUSH2 0x24AC SWAP3 SWAP2 SWAP1 PUSH2 0x50DD JUMP JUMPDEST PUSH1 0x40 MLOAD DUP1 SWAP2 SUB SWAP1 REVERT JUMPDEST POP POP JUMP JUMPDEST PUSH2 0x24CA DUP2 PUSH2 0x24C5 PUSH2 0x216C JUMP JUMPDEST PUSH2 0x2468 JUMP JUMPDEST POP JUMP JUMPDEST PUSH1 0x0 DUP1 PUSH2 0x24D8 PUSH2 0x2440 JUMP JUMPDEST SWAP1 POP PUSH2 0x24E4 DUP5 DUP5 PUSH2 0x1766 JUMP JUMPDEST PUSH2 0x25C2 JUMPI PUSH1 0x1 DUP2 PUSH1 0x0 ADD PUSH1 0x0 DUP7 DUP2 MSTORE PUSH1 0x20 ADD SWAP1 DUP2 MSTORE PUSH1 0x20 ADD PUSH1 0x0 KECCAK256 PUSH1 0x0 ADD PUSH1 0x0 DUP6 PUSH20 0xFFFFFFFFFFFFFFFFFFFFFFFFFFFFFFFFFFFFFFFF AND PUSH20 0xFFFFFFFFFFFFFFFFFFFFFFFFFFFFFFFFFFFFFFFF AND DUP2 MSTORE PUSH1 0x20 ADD SWAP1 DUP2 MSTORE PUSH1 0x20 ADD PUSH1 0x0 KECCAK256 PUSH1 0x0 PUSH2 0x100 EXP DUP2 SLOAD DUP2 PUSH1 0xFF MUL NOT AND SWAP1 DUP4 ISZERO ISZERO MUL OR SWAP1 SSTORE POP PUSH2 0x255E PUSH2 0x216C JUMP JUMPDEST PUSH20 0xFFFFFFFFFFFFFFFFFFFFFFFFFFFFFFFFFFFFFFFF AND DUP4 PUSH20 0xFFFFFFFFFFFFFFFFFFFFFFFFFFFFFFFFFFFFFFFF AND DUP6 PUSH32 0x2F8788117E7EFF1D82E926EC794901D17C78024A50270940304540A733656F0D PUSH1 0x40 MLOAD PUSH1 0x40 MLOAD DUP1 SWAP2 SUB SWAP1 LOG4 PUSH1 0x1 SWAP2 POP POP PUSH2 0x25C8 JUMP JUMPDEST PUSH1 0x0 SWAP2 POP POP JUMPDEST SWAP3 SWAP2 POP POP JUMP JUMPDEST PUSH1 0x0 DUP1 PUSH2 0x25D9 PUSH2 0x2440 JUMP JUMPDEST SWAP1 POP PUSH2 0x25E5 DUP5 DUP5 PUSH2 0x1766 JUMP JUMPDEST ISZERO PUSH2 0x26C4 JUMPI PUSH1 0x0 DUP2 PUSH1 0x0 ADD PUSH1 0x0 DUP7 DUP2 MSTORE PUSH1 0x20 ADD SWAP1 DUP2 MSTORE PUSH1 0x20 ADD PUSH1 0x0 KECCAK256 PUSH1 0x0 ADD PUSH1 0x0 DUP6 PUSH20 0xFFFFFFFFFFFFFFFFFFFFFFFFFFFFFFFFFFFFFFFF AND PUSH20 0xFFFFFFFFFFFFFFFFFFFFFFFFFFFFFFFFFFFFFFFF AND DUP2 MSTORE PUSH1 0x20 ADD SWAP1 DUP2 MSTORE PUSH1 0x20 ADD PUSH1 0x0 KECCAK256 PUSH1 0x0 PUSH2 0x100 EXP DUP2 SLOAD DUP2 PUSH1 0xFF MUL NOT AND SWAP1 DUP4 ISZERO ISZERO MUL OR SWAP1 SSTORE POP PUSH2 0x2660 PUSH2 0x216C JUMP JUMPDEST PUSH20 0xFFFFFFFFFFFFFFFFFFFFFFFFFFFFFFFFFFFFFFFF AND DUP4 PUSH20 0xFFFFFFFFFFFFFFFFFFFFFFFFFFFFFFFFFFFFFFFF AND DUP6 PUSH32 0xF6391F5C32D9C69D2A47EA670B442974B53935D1EDC7FD64EB21E047A839171B PUSH1 0x40 MLOAD PUSH1 0x40 MLOAD DUP1 SWAP2 SUB SWAP1 LOG4 PUSH1 0x1 SWAP2 POP POP PUSH2 0x26CA JUMP JUMPDEST PUSH1 0x0 SWAP2 POP POP JUMPDEST SWAP3 SWAP2 POP POP JUMP JUMPDEST PUSH2 0x26D8 PUSH2 0x33FD JUMP JUMPDEST PUSH1 0x0 PUSH2 0x26E2 PUSH2 0x2BA9 JUMP JUMPDEST SWAP1 POP PUSH1 0x0 DUP2 PUSH1 0x0 ADD PUSH1 0x0 PUSH2 0x100 EXP DUP2 SLOAD DUP2 PUSH1 0xFF MUL NOT AND SWAP1 DUP4 ISZERO ISZERO MUL OR SWAP1 SSTORE POP PUSH32 0x5DB9EE0A495BF2E6FF9C91A7834C1BA4FDD244A5E8AA4E537BD38AEAE4B073AA PUSH2 0x272A PUSH2 0x216C JUMP JUMPDEST PUSH1 0x40 MLOAD PUSH2 0x2737 SWAP2 SWAP1 PUSH2 0x3E48 JUMP JUMPDEST PUSH1 0x40 MLOAD DUP1 SWAP2 SUB SWAP1 LOG1 POP JUMP JUMPDEST PUSH32 0x0 PUSH20 0xFFFFFFFFFFFFFFFFFFFFFFFFFFFFFFFFFFFFFFFF AND ADDRESS PUSH20 0xFFFFFFFFFFFFFFFFFFFFFFFFFFFFFFFFFFFFFFFF AND EQ DUP1 PUSH2 0x27EF JUMPI POP PUSH32 0x0 PUSH20 0xFFFFFFFFFFFFFFFFFFFFFFFFFFFFFFFFFFFFFFFF AND PUSH2 0x27D6 PUSH2 0x343D JUMP JUMPDEST PUSH20 0xFFFFFFFFFFFFFFFFFFFFFFFFFFFFFFFFFFFFFFFF AND EQ ISZERO JUMPDEST ISZERO PUSH2 0x2826 JUMPI PUSH1 0x40 MLOAD PUSH32 0xE07C8DBA00000000000000000000000000000000000000000000000000000000 DUP2 MSTORE PUSH1 0x4 ADD PUSH1 0x40 MLOAD DUP1 SWAP2 SUB SWAP1 REVERT JUMPDEST JUMP JUMPDEST PUSH2 0x2852 PUSH32 0x241ECF16D79D0F8DBFB92CBC07FE17840425976CF0667F022FE9877CAA831B08 CALLER PUSH2 0x2468 JUMP JUMPDEST POP JUMP JUMPDEST DUP2 PUSH20 0xFFFFFFFFFFFFFFFFFFFFFFFFFFFFFFFFFFFFFFFF AND PUSH4 0x52D1902D PUSH1 0x40 MLOAD DUP2 PUSH4 0xFFFFFFFF AND PUSH1 0xE0 SHL DUP2 MSTORE PUSH1 0x4 ADD PUSH1 0x20 PUSH1 0x40 MLOAD DUP1 DUP4 SUB DUP2 DUP7 GAS STATICCALL SWAP3 POP POP POP DUP1 ISZERO PUSH2 0x28BD JUMPI POP PUSH1 0x40 MLOAD RETURNDATASIZE PUSH1 0x1F NOT PUSH1 0x1F DUP3 ADD AND DUP3 ADD DUP1 PUSH1 0x40 MSTORE POP DUP2 ADD SWAP1 PUSH2 0x28BA SWAP2 SWAP1 PUSH2 0x511B JUMP JUMPDEST PUSH1 0x1 JUMPDEST PUSH2 0x28FE JUMPI DUP2 PUSH1 0x40 MLOAD PUSH32 0x4C9C8CE300000000000000000000000000000000000000000000000000000000 DUP2 MSTORE PUSH1 0x4 ADD PUSH2 0x28F5 SWAP2 SWAP1 PUSH2 0x3E48 JUMP JUMPDEST PUSH1 0x40 MLOAD DUP1 SWAP2 SUB SWAP1 REVERT JUMPDEST PUSH32 0x360894A13BA1A3210667C828492DB98DCA3E2076CC3735A920A3CA505D382BBC PUSH1 0x0 SHL DUP2 EQ PUSH2 0x2965 JUMPI DUP1 PUSH1 0x40 MLOAD PUSH32 0xAA1D49A400000000000000000000000000000000000000000000000000000000 DUP2 MSTORE PUSH1 0x4 ADD PUSH2 0x295C SWAP2 SWAP1 PUSH2 0x3EE8 JUMP JUMPDEST PUSH1 0x40 MLOAD DUP1 SWAP2 SUB SWAP1 REVERT JUMPDEST PUSH2 0x296F DUP4 DUP4 PUSH2 0x3494 JUMP JUMPDEST POP POP POP JUMP JUMPDEST PUSH32 0x0 PUSH20 0xFFFFFFFFFFFFFFFFFFFFFFFFFFFFFFFFFFFFFFFF AND ADDRESS PUSH20 0xFFFFFFFFFFFFFFFFFFFFFFFFFFFFFFFFFFFFFFFF AND EQ PUSH2 0x29F9 JUMPI PUSH1 0x40 MLOAD PUSH32 0xE07C8DBA00000000000000000000000000000000000000000000000000000000 DUP2 MSTORE PUSH1 0x4 ADD PUSH1 0x40 MLOAD DUP1 SWAP2 SUB SWAP1 REVERT JUMPDEST JUMP JUMPDEST PUSH2 0x2A03 PUSH2 0x1212 JUMP JUMPDEST ISZERO PUSH2 0x2A3A JUMPI PUSH1 0x40 MLOAD PUSH32 0xD93C066500000000000000000000000000000000000000000000000000000000 DUP2 MSTORE PUSH1 0x4 ADD PUSH1 0x40 MLOAD DUP1 SWAP2 SUB SWAP1 REVERT JUMPDEST JUMP JUMPDEST PUSH1 0x2 PUSH1 0x0 SLOAD SUB PUSH2 0x2A78 JUMPI PUSH1 0x40 MLOAD PUSH32 0x3EE5AEB500000000000000000000000000000000000000000000000000000000 DUP2 MSTORE PUSH1 0x4 ADD PUSH1 0x40 MLOAD DUP1 SWAP2 SUB SWAP1 REVERT JUMPDEST PUSH1 0x2 PUSH1 0x0 DUP2 SWAP1 SSTORE POP JUMP JUMPDEST PUSH1 0x1 PUSH1 0x0 DUP2 SLOAD DUP1 SWAP3 SWAP2 SWAP1 PUSH2 0x2A95 SWAP1 PUSH2 0x5177 JUMP JUMPDEST SWAP2 SWAP1 POP SSTORE POP JUMP JUMPDEST PUSH1 0x0 PUSH1 0x1 SLOAD SWAP1 POP SWAP1 JUMP JUMPDEST PUSH1 0x0 PUSH20 0xFFFFFFFFFFFFFFFFFFFFFFFFFFFFFFFFFFFFFFFF AND DUP3 PUSH20 0xFFFFFFFFFFFFFFFFFFFFFFFFFFFFFFFFFFFFFFFF AND SUB PUSH2 0x2B18 JUMPI PUSH1 0x0 PUSH1 0x40 MLOAD PUSH32 0x64A0AE9200000000000000000000000000000000000000000000000000000000 DUP2 MSTORE PUSH1 0x4 ADD PUSH2 0x2B0F SWAP2 SWAP1 PUSH2 0x3E48 JUMP JUMPDEST PUSH1 0x40 MLOAD DUP1 SWAP2 SUB SWAP1 REVERT JUMPDEST PUSH1 0x0 PUSH2 0x2B26 DUP4 DUP4 PUSH1 0x0 PUSH2 0x2213 JUMP JUMPDEST SWAP1 POP PUSH1 0x0 PUSH20 0xFFFFFFFFFFFFFFFFFFFFFFFFFFFFFFFFFFFFFFFF AND DUP2 PUSH20 0xFFFFFFFFFFFFFFFFFFFFFFFFFFFFFFFFFFFFFFFF AND EQ PUSH2 0x2B9A JUMPI PUSH1 0x0 PUSH1 0x40 MLOAD PUSH32 0x73C6AC6E00000000000000000000000000000000000000000000000000000000 DUP2 MSTORE PUSH1 0x4 ADD PUSH2 0x2B91 SWAP2 SWAP1 PUSH2 0x3E48 JUMP JUMPDEST PUSH1 0x40 MLOAD DUP1 SWAP2 SUB SWAP1 REVERT JUMPDEST POP POP POP JUMP JUMPDEST PUSH1 0x1 PUSH1 0x0 DUP2 SWAP1 SSTORE POP JUMP JUMPDEST PUSH1 0x0 PUSH32 0xCD5ED15C6E187E77E9AEE88184C21F4F2182AB5827CB3B7E07FBEDCD63F03300 SWAP1 POP SWAP1 JUMP JUMPDEST PUSH1 0x0 PUSH32 0xF0C57E16840DF040F15088DC2F81FE391C3923BEC73E23A9662EFC9C229C6A00 SWAP1 POP SWAP1 JUMP JUMPDEST PUSH2 0x2C01 PUSH2 0x3507 JUMP JUMPDEST PUSH2 0x2C0B DUP3 DUP3 PUSH2 0x3547 JUMP JUMPDEST POP POP JUMP JUMPDEST PUSH2 0x2C17 PUSH2 0x3507 JUMP JUMPDEST JUMP JUMPDEST PUSH2 0x2C21 PUSH2 0x3507 JUMP JUMPDEST PUSH2 0x2C29 PUSH2 0x3584 JUMP JUMPDEST JUMP JUMPDEST PUSH2 0x2C33 PUSH2 0x3507 JUMP JUMPDEST JUMP JUMPDEST PUSH2 0x2C3D PUSH2 0x29FB JUMP JUMPDEST PUSH1 0x0 PUSH2 0x2C47 PUSH2 0x2BA9 JUMP JUMPDEST SWAP1 POP PUSH1 0x1 DUP2 PUSH1 0x0 ADD PUSH1 0x0 PUSH2 0x100 EXP DUP2 SLOAD DUP2 PUSH1 0xFF MUL NOT AND SWAP1 DUP4 ISZERO ISZERO MUL OR SWAP1 SSTORE POP PUSH32 0x62E78CEA01BEE320CD4E420270B5EA74000D11B0C9F74754EBDBFC544B05A258 PUSH2 0x2C8F PUSH2 0x216C JUMP JUMPDEST PUSH1 0x40 MLOAD PUSH2 0x2C9C SWAP2 SWAP1 PUSH2 0x3E48 JUMP JUMPDEST PUSH1 0x40 MLOAD DUP1 SWAP2 SUB SWAP1 LOG1 POP JUMP JUMPDEST PUSH1 0x0 PUSH32 0x19457468657265756D205369676E6564204D6573736167653A0A333200000000 PUSH1 0x0 MSTORE DUP2 PUSH1 0x1C MSTORE PUSH1 0x3C PUSH1 0x0 KECCAK256 SWAP1 POP SWAP2 SWAP1 POP JUMP JUMPDEST PUSH1 0x0 DUP1 PUSH1 0x0 DUP1 PUSH2 0x2CED DUP7 DUP7 PUSH2 0x35B8 JUMP JUMPDEST SWAP3 POP SWAP3 POP SWAP3 POP PUSH2 0x2CFD DUP3 DUP3 PUSH2 0x3614 JUMP JUMPDEST DUP3 SWAP4 POP POP POP POP SWAP3 SWAP2 POP POP JUMP JUMPDEST PUSH1 0x0 PUSH2 0x2D13 PUSH2 0x2071 JUMP JUMPDEST SWAP1 POP PUSH1 0x0 PUSH20 0xFFFFFFFFFFFFFFFFFFFFFFFFFFFFFFFFFFFFFFFF AND DUP4 PUSH20 0xFFFFFFFFFFFFFFFFFFFFFFFFFFFFFFFFFFFFFFFF AND SUB PUSH2 0x2D86 JUMPI DUP3 PUSH1 0x40 MLOAD PUSH32 0x5B08BA1800000000000000000000000000000000000000000000000000000000 DUP2 MSTORE PUSH1 0x4 ADD PUSH2 0x2D7D SWAP2 SWAP1 PUSH2 0x3E48 JUMP JUMPDEST PUSH1 0x40 MLOAD DUP1 SWAP2 SUB SWAP1 REVERT JUMPDEST DUP2 DUP2 PUSH1 0x5 ADD PUSH1 0x0 DUP7 PUSH20 0xFFFFFFFFFFFFFFFFFFFFFFFFFFFFFFFFFFFFFFFF AND PUSH20 0xFFFFFFFFFFFFFFFFFFFFFFFFFFFFFFFFFFFFFFFF AND DUP2 MSTORE PUSH1 0x20 ADD SWAP1 DUP2 MSTORE PUSH1 0x20 ADD PUSH1 0x0 KECCAK256 PUSH1 0x0 DUP6 PUSH20 0xFFFFFFFFFFFFFFFFFFFFFFFFFFFFFFFFFFFFFFFF AND PUSH20 0xFFFFFFFFFFFFFFFFFFFFFFFFFFFFFFFFFFFFFFFF AND DUP2 MSTORE PUSH1 0x20 ADD SWAP1 DUP2 MSTORE PUSH1 0x20 ADD PUSH1 0x0 KECCAK256 PUSH1 0x0 PUSH2 0x100 EXP DUP2 SLOAD DUP2 PUSH1 0xFF MUL NOT AND SWAP1 DUP4 ISZERO ISZERO MUL OR SWAP1 SSTORE POP DUP3 PUSH20 0xFFFFFFFFFFFFFFFFFFFFFFFFFFFFFFFFFFFFFFFF AND DUP5 PUSH20 0xFFFFFFFFFFFFFFFFFFFFFFFFFFFFFFFFFFFFFFFF AND PUSH32 0x17307EAB39AB6107E8899845AD3D59BD9653F200F220920489CA2B5937696C31 DUP5 PUSH1 0x40 MLOAD PUSH2 0x2E79 SWAP2 SWAP1 PUSH2 0x3CD7 JUMP JUMPDEST PUSH1 0x40 MLOAD DUP1 SWAP2 SUB SWAP1 LOG3 POP POP POP POP JUMP JUMPDEST PUSH1 0x0 DUP4 PUSH20 0xFFFFFFFFFFFFFFFFFFFFFFFFFFFFFFFFFFFFFFFF AND EXTCODESIZE GT ISZERO PUSH2 0x3031 JUMPI DUP3 PUSH20 0xFFFFFFFFFFFFFFFFFFFFFFFFFFFFFFFFFFFFFFFF AND PUSH4 0x150B7A02 DUP7 DUP7 DUP6 DUP6 PUSH1 0x40 MLOAD DUP6 PUSH4 0xFFFFFFFF AND PUSH1 0xE0 SHL DUP2 MSTORE PUSH1 0x4 ADD PUSH2 0x2EE6 SWAP5 SWAP4 SWAP3 SWAP2 SWAP1 PUSH2 0x51BF JUMP JUMPDEST PUSH1 0x20 PUSH1 0x40 MLOAD DUP1 DUP4 SUB DUP2 PUSH1 0x0 DUP8 GAS CALL SWAP3 POP POP POP DUP1 ISZERO PUSH2 0x2F22 JUMPI POP PUSH1 0x40 MLOAD RETURNDATASIZE PUSH1 0x1F NOT PUSH1 0x1F DUP3 ADD AND DUP3 ADD DUP1 PUSH1 0x40 MSTORE POP DUP2 ADD SWAP1 PUSH2 0x2F1F SWAP2 SWAP1 PUSH2 0x5220 JUMP JUMPDEST PUSH1 0x1 JUMPDEST PUSH2 0x2FA6 JUMPI RETURNDATASIZE DUP1 PUSH1 0x0 DUP2 EQ PUSH2 0x2F52 JUMPI PUSH1 0x40 MLOAD SWAP2 POP PUSH1 0x1F NOT PUSH1 0x3F RETURNDATASIZE ADD AND DUP3 ADD PUSH1 0x40 MSTORE RETURNDATASIZE DUP3 MSTORE RETURNDATASIZE PUSH1 0x0 PUSH1 0x20 DUP5 ADD RETURNDATACOPY PUSH2 0x2F57 JUMP JUMPDEST PUSH1 0x60 SWAP2 POP JUMPDEST POP PUSH1 0x0 DUP2 MLOAD SUB PUSH2 0x2F9E JUMPI DUP4 PUSH1 0x40 MLOAD PUSH32 0x64A0AE9200000000000000000000000000000000000000000000000000000000 DUP2 MSTORE PUSH1 0x4 ADD PUSH2 0x2F95 SWAP2 SWAP1 PUSH2 0x3E48 JUMP JUMPDEST PUSH1 0x40 MLOAD DUP1 SWAP2 SUB SWAP1 REVERT JUMPDEST DUP1 MLOAD DUP2 PUSH1 0x20 ADD REVERT JUMPDEST PUSH4 0x150B7A02 PUSH1 0xE0 SHL PUSH28 0xFFFFFFFFFFFFFFFFFFFFFFFFFFFFFFFFFFFFFFFFFFFFFFFFFFFFFFFF NOT AND DUP2 PUSH28 0xFFFFFFFFFFFFFFFFFFFFFFFFFFFFFFFFFFFFFFFFFFFFFFFFFFFFFFFF NOT AND EQ PUSH2 0x302F JUMPI DUP4 PUSH1 0x40 MLOAD PUSH32 0x64A0AE9200000000000000000000000000000000000000000000000000000000 DUP2 MSTORE PUSH1 0x4 ADD PUSH2 0x3026 SWAP2 SWAP1 PUSH2 0x3E48 JUMP JUMPDEST PUSH1 0x40 MLOAD DUP1 SWAP2 SUB SWAP1 REVERT JUMPDEST POP JUMPDEST POP POP POP POP POP JUMP JUMPDEST PUSH1 0x0 PUSH32 0x80AC58CD00000000000000000000000000000000000000000000000000000000 PUSH28 0xFFFFFFFFFFFFFFFFFFFFFFFFFFFFFFFFFFFFFFFFFFFFFFFFFFFFFFFF NOT AND DUP3 PUSH28 0xFFFFFFFFFFFFFFFFFFFFFFFFFFFFFFFFFFFFFFFFFFFFFFFFFFFFFFFF NOT AND EQ DUP1 PUSH2 0x3103 JUMPI POP PUSH32 0x5B5E139F00000000000000000000000000000000000000000000000000000000 PUSH28 0xFFFFFFFFFFFFFFFFFFFFFFFFFFFFFFFFFFFFFFFFFFFFFFFFFFFFFFFF NOT AND DUP3 PUSH28 0xFFFFFFFFFFFFFFFFFFFFFFFFFFFFFFFFFFFFFFFFFFFFFFFFFFFFFFFF NOT AND EQ JUMPDEST DUP1 PUSH2 0x3113 JUMPI POP PUSH2 0x3112 DUP3 PUSH2 0x3778 JUMP JUMPDEST JUMPDEST SWAP1 POP SWAP2 SWAP1 POP JUMP JUMPDEST PUSH1 0x0 DUP1 PUSH2 0x3125 PUSH2 0x2071 JUMP JUMPDEST SWAP1 POP DUP1 PUSH1 0x2 ADD PUSH1 0x0 DUP5 DUP2 MSTORE PUSH1 0x20 ADD SWAP1 DUP2 MSTORE PUSH1 0x20 ADD PUSH1 0x0 KECCAK256 PUSH1 0x0 SWAP1 SLOAD SWAP1 PUSH2 0x100 EXP SWAP1 DIV PUSH20 0xFFFFFFFFFFFFFFFFFFFFFFFFFFFFFFFFFFFFFFFF AND SWAP2 POP POP SWAP2 SWAP1 POP JUMP JUMPDEST PUSH1 0x0 PUSH2 0x316F PUSH2 0x2071 JUMP JUMPDEST SWAP1 POP DUP2 DUP1 PUSH2 0x31AA JUMPI POP PUSH1 0x0 PUSH20 0xFFFFFFFFFFFFFFFFFFFFFFFFFFFFFFFFFFFFFFFF AND DUP4 PUSH20 0xFFFFFFFFFFFFFFFFFFFFFFFFFFFFFFFFFFFFFFFF AND EQ ISZERO JUMPDEST ISZERO PUSH2 0x32DE JUMPI PUSH1 0x0 PUSH2 0x31BA DUP6 PUSH2 0x2099 JUMP JUMPDEST SWAP1 POP PUSH1 0x0 PUSH20 0xFFFFFFFFFFFFFFFFFFFFFFFFFFFFFFFFFFFFFFFF AND DUP5 PUSH20 0xFFFFFFFFFFFFFFFFFFFFFFFFFFFFFFFFFFFFFFFF AND EQ ISZERO DUP1 ISZERO PUSH2 0x3225 JUMPI POP DUP4 PUSH20 0xFFFFFFFFFFFFFFFFFFFFFFFFFFFFFFFFFFFFFFFF AND DUP2 PUSH20 0xFFFFFFFFFFFFFFFFFFFFFFFFFFFFFFFFFFFFFFFF AND EQ ISZERO JUMPDEST DUP1 ISZERO PUSH2 0x3238 JUMPI POP PUSH2 0x3236 DUP2 DUP6 PUSH2 0x1D76 JUMP JUMPDEST ISZERO JUMPDEST ISZERO PUSH2 0x327A JUMPI DUP4 PUSH1 0x40 MLOAD PUSH32 0xA9FBF51F00000000000000000000000000000000000000000000000000000000 DUP2 MSTORE PUSH1 0x4 ADD PUSH2 0x3271 SWAP2 SWAP1 PUSH2 0x3E48 JUMP JUMPDEST PUSH1 0x40 MLOAD DUP1 SWAP2 SUB SWAP1 REVERT JUMPDEST DUP3 ISZERO PUSH2 0x32DC JUMPI DUP5 DUP7 PUSH20 0xFFFFFFFFFFFFFFFFFFFFFFFFFFFFFFFFFFFFFFFF AND DUP3 PUSH20 0xFFFFFFFFFFFFFFFFFFFFFFFFFFFFFFFFFFFFFFFF AND PUSH32 0x8C5BE1E5EBEC7D5BD14F71427D1E84F3DD0314C0F7B2291E5B200AC8C7C3B925 PUSH1 0x40 MLOAD PUSH1 0x40 MLOAD DUP1 SWAP2 SUB SWAP1 LOG4 JUMPDEST POP JUMPDEST DUP5 DUP2 PUSH1 0x4 ADD PUSH1 0x0 DUP7 DUP2 MSTORE PUSH1 0x20 ADD SWAP1 DUP2 MSTORE PUSH1 0x20 ADD PUSH1 0x0 KECCAK256 PUSH1 0x0 PUSH2 0x100 EXP DUP2 SLOAD DUP2 PUSH20 0xFFFFFFFFFFFFFFFFFFFFFFFFFFFFFFFFFFFFFFFF MUL NOT AND SWAP1 DUP4 PUSH20 0xFFFFFFFFFFFFFFFFFFFFFFFFFFFFFFFFFFFFFFFF AND MUL OR SWAP1 SSTORE POP POP POP POP POP POP JUMP JUMPDEST PUSH2 0x3344 DUP4 DUP4 DUP4 PUSH2 0x37E2 JUMP JUMPDEST PUSH2 0x33F8 JUMPI PUSH1 0x0 PUSH20 0xFFFFFFFFFFFFFFFFFFFFFFFFFFFFFFFFFFFFFFFF AND DUP4 PUSH20 0xFFFFFFFFFFFFFFFFFFFFFFFFFFFFFFFFFFFFFFFF AND SUB PUSH2 0x33B9 JUMPI DUP1 PUSH1 0x40 MLOAD PUSH32 0x7E27328900000000000000000000000000000000000000000000000000000000 DUP2 MSTORE PUSH1 0x4 ADD PUSH2 0x33B0 SWAP2 SWAP1 PUSH2 0x433C JUMP JUMPDEST PUSH1 0x40 MLOAD DUP1 SWAP2 SUB SWAP1 REVERT JUMPDEST DUP2 DUP2 PUSH1 0x40 MLOAD PUSH32 0x177E802F00000000000000000000000000000000000000000000000000000000 DUP2 MSTORE PUSH1 0x4 ADD PUSH2 0x33EF SWAP3 SWAP2 SWAP1 PUSH2 0x524D JUMP JUMPDEST PUSH1 0x40 MLOAD DUP1 SWAP2 SUB SWAP1 REVERT JUMPDEST POP POP POP JUMP JUMPDEST PUSH2 0x3405 PUSH2 0x1212 JUMP JUMPDEST PUSH2 0x343B JUMPI PUSH1 0x40 MLOAD PUSH32 0x8DFC202B00000000000000000000000000000000000000000000000000000000 DUP2 MSTORE PUSH1 0x4 ADD PUSH1 0x40 MLOAD DUP1 SWAP2 SUB SWAP1 REVERT JUMPDEST JUMP JUMPDEST PUSH1 0x0 PUSH2 0x346B PUSH32 0x360894A13BA1A3210667C828492DB98DCA3E2076CC3735A920A3CA505D382BBC PUSH1 0x0 SHL PUSH2 0x38A3 JUMP JUMPDEST PUSH1 0x0 ADD PUSH1 0x0 SWAP1 SLOAD SWAP1 PUSH2 0x100 EXP SWAP1 DIV PUSH20 0xFFFFFFFFFFFFFFFFFFFFFFFFFFFFFFFFFFFFFFFF AND SWAP1 POP SWAP1 JUMP JUMPDEST PUSH2 0x349D DUP3 PUSH2 0x38AD JUMP JUMPDEST DUP2 PUSH20 0xFFFFFFFFFFFFFFFFFFFFFFFFFFFFFFFFFFFFFFFF AND PUSH32 0xBC7CD75A20EE27FD9ADEBAB32041F755214DBC6BFFA90CC0225B39DA2E5C2D3B PUSH1 0x40 MLOAD PUSH1 0x40 MLOAD DUP1 SWAP2 SUB SWAP1 LOG2 PUSH1 0x0 DUP2 MLOAD GT ISZERO PUSH2 0x34FA JUMPI PUSH2 0x34F4 DUP3 DUP3 PUSH2 0x397A JUMP JUMPDEST POP PUSH2 0x3503 JUMP JUMPDEST PUSH2 0x3502 PUSH2 0x39FE JUMP JUMPDEST JUMPDEST POP POP JUMP JUMPDEST PUSH2 0x350F PUSH2 0x3A3B JUMP JUMPDEST PUSH2 0x3545 JUMPI PUSH1 0x40 MLOAD PUSH32 0xD7E6BCF800000000000000000000000000000000000000000000000000000000 DUP2 MSTORE PUSH1 0x4 ADD PUSH1 0x40 MLOAD DUP1 SWAP2 SUB SWAP1 REVERT JUMPDEST JUMP JUMPDEST PUSH2 0x354F PUSH2 0x3507 JUMP JUMPDEST PUSH1 0x0 PUSH2 0x3559 PUSH2 0x2071 JUMP JUMPDEST SWAP1 POP DUP3 DUP2 PUSH1 0x0 ADD SWAP1 DUP2 PUSH2 0x356C SWAP2 SWAP1 PUSH2 0x4CB0 JUMP JUMPDEST POP DUP2 DUP2 PUSH1 0x1 ADD SWAP1 DUP2 PUSH2 0x357E SWAP2 SWAP1 PUSH2 0x4CB0 JUMP JUMPDEST POP POP POP POP JUMP JUMPDEST PUSH2 0x358C PUSH2 0x3507 JUMP JUMPDEST PUSH1 0x0 PUSH2 0x3596 PUSH2 0x2BA9 JUMP JUMPDEST SWAP1 POP PUSH1 0x0 DUP2 PUSH1 0x0 ADD PUSH1 0x0 PUSH2 0x100 EXP DUP2 SLOAD DUP2 PUSH1 0xFF MUL NOT AND SWAP1 DUP4 ISZERO ISZERO MUL OR SWAP1 SSTORE POP POP JUMP JUMPDEST PUSH1 0x0 DUP1 PUSH1 0x0 PUSH1 0x41 DUP5 MLOAD SUB PUSH2 0x35FD JUMPI PUSH1 0x0 DUP1 PUSH1 0x0 PUSH1 0x20 DUP8 ADD MLOAD SWAP3 POP PUSH1 0x40 DUP8 ADD MLOAD SWAP2 POP PUSH1 0x60 DUP8 ADD MLOAD PUSH1 0x0 BYTE SWAP1 POP PUSH2 0x35EF DUP9 DUP3 DUP6 DUP6 PUSH2 0x3A5B JUMP JUMPDEST SWAP6 POP SWAP6 POP SWAP6 POP POP POP POP PUSH2 0x360D JUMP JUMPDEST PUSH1 0x0 PUSH1 0x2 DUP6 MLOAD PUSH1 0x0 SHL SWAP3 POP SWAP3 POP SWAP3 POP JUMPDEST SWAP3 POP SWAP3 POP SWAP3 JUMP JUMPDEST PUSH1 0x0 PUSH1 0x3 DUP2 GT ISZERO PUSH2 0x3628 JUMPI PUSH2 0x3627 PUSH2 0x456D JUMP JUMPDEST JUMPDEST DUP3 PUSH1 0x3 DUP2 GT ISZERO PUSH2 0x363B JUMPI PUSH2 0x363A PUSH2 0x456D JUMP JUMPDEST JUMPDEST SUB ISZERO PUSH2 0x3774 JUMPI PUSH1 0x1 PUSH1 0x3 DUP2 GT ISZERO PUSH2 0x3655 JUMPI PUSH2 0x3654 PUSH2 0x456D JUMP JUMPDEST JUMPDEST DUP3 PUSH1 0x3 DUP2 GT ISZERO PUSH2 0x3668 JUMPI PUSH2 0x3667 PUSH2 0x456D JUMP JUMPDEST JUMPDEST SUB PUSH2 0x369F JUMPI PUSH1 0x40 MLOAD PUSH32 0xF645EEDF00000000000000000000000000000000000000000000000000000000 DUP2 MSTORE PUSH1 0x4 ADD PUSH1 0x40 MLOAD DUP1 SWAP2 SUB SWAP1 REVERT JUMPDEST PUSH1 0x2 PUSH1 0x3 DUP2 GT ISZERO PUSH2 0x36B3 JUMPI PUSH2 0x36B2 PUSH2 0x456D JUMP JUMPDEST JUMPDEST DUP3 PUSH1 0x3 DUP2 GT ISZERO PUSH2 0x36C6 JUMPI PUSH2 0x36C5 PUSH2 0x456D JUMP JUMPDEST JUMPDEST SUB PUSH2 0x370B JUMPI DUP1 PUSH1 0x0 SHR PUSH1 0x40 MLOAD PUSH32 0xFCE698F700000000000000000000000000000000000000000000000000000000 DUP2 MSTORE PUSH1 0x4 ADD PUSH2 0x3702 SWAP2 SWAP1 PUSH2 0x433C JUMP JUMPDEST PUSH1 0x40 MLOAD DUP1 SWAP2 SUB SWAP1 REVERT JUMPDEST PUSH1 0x3 DUP1 DUP2 GT ISZERO PUSH2 0x371E JUMPI PUSH2 0x371D PUSH2 0x456D JUMP JUMPDEST JUMPDEST DUP3 PUSH1 0x3 DUP2 GT ISZERO PUSH2 0x3731 JUMPI PUSH2 0x3730 PUSH2 0x456D JUMP JUMPDEST JUMPDEST SUB PUSH2 0x3773 JUMPI DUP1 PUSH1 0x40 MLOAD PUSH32 0xD78BCE0C00000000000000000000000000000000000000000000000000000000 DUP2 MSTORE PUSH1 0x4 ADD PUSH2 0x376A SWAP2 SWAP1 PUSH2 0x3EE8 JUMP JUMPDEST PUSH1 0x40 MLOAD DUP1 SWAP2 SUB SWAP1 REVERT JUMPDEST JUMPDEST POP POP JUMP JUMPDEST PUSH1 0x0 PUSH32 0x1FFC9A700000000000000000000000000000000000000000000000000000000 PUSH28 0xFFFFFFFFFFFFFFFFFFFFFFFFFFFFFFFFFFFFFFFFFFFFFFFFFFFFFFFF NOT AND DUP3 PUSH28 0xFFFFFFFFFFFFFFFFFFFFFFFFFFFFFFFFFFFFFFFFFFFFFFFFFFFFFFFF NOT AND EQ SWAP1 POP SWAP2 SWAP1 POP JUMP JUMPDEST PUSH1 0x0 DUP1 PUSH20 0xFFFFFFFFFFFFFFFFFFFFFFFFFFFFFFFFFFFFFFFF AND DUP4 PUSH20 0xFFFFFFFFFFFFFFFFFFFFFFFFFFFFFFFFFFFFFFFF AND EQ ISZERO DUP1 ISZERO PUSH2 0x389A JUMPI POP DUP3 PUSH20 0xFFFFFFFFFFFFFFFFFFFFFFFFFFFFFFFFFFFFFFFF AND DUP5 PUSH20 0xFFFFFFFFFFFFFFFFFFFFFFFFFFFFFFFFFFFFFFFF AND EQ DUP1 PUSH2 0x385B JUMPI POP PUSH2 0x385A DUP5 DUP5 PUSH2 0x1D76 JUMP JUMPDEST JUMPDEST DUP1 PUSH2 0x3899 JUMPI POP DUP3 PUSH20 0xFFFFFFFFFFFFFFFFFFFFFFFFFFFFFFFFFFFFFFFF AND PUSH2 0x3881 DUP4 PUSH2 0x2121 JUMP JUMPDEST PUSH20 0xFFFFFFFFFFFFFFFFFFFFFFFFFFFFFFFFFFFFFFFF AND EQ JUMPDEST JUMPDEST SWAP1 POP SWAP4 SWAP3 POP POP POP JUMP JUMPDEST PUSH1 0x0 DUP2 SWAP1 POP SWAP2 SWAP1 POP JUMP JUMPDEST PUSH1 0x0 DUP2 PUSH20 0xFFFFFFFFFFFFFFFFFFFFFFFFFFFFFFFFFFFFFFFF AND EXTCODESIZE SUB PUSH2 0x3909 JUMPI DUP1 PUSH1 0x40 MLOAD PUSH32 0x4C9C8CE300000000000000000000000000000000000000000000000000000000 DUP2 MSTORE PUSH1 0x4 ADD PUSH2 0x3900 SWAP2 SWAP1 PUSH2 0x3E48 JUMP JUMPDEST PUSH1 0x40 MLOAD DUP1 SWAP2 SUB SWAP1 REVERT JUMPDEST DUP1 PUSH2 0x3936 PUSH32 0x360894A13BA1A3210667C828492DB98DCA3E2076CC3735A920A3CA505D382BBC PUSH1 0x0 SHL PUSH2 0x38A3 JUMP JUMPDEST PUSH1 0x0 ADD PUSH1 0x0 PUSH2 0x100 EXP DUP2 SLOAD DUP2 PUSH20 0xFFFFFFFFFFFFFFFFFFFFFFFFFFFFFFFFFFFFFFFF MUL NOT AND SWAP1 DUP4 PUSH20 0xFFFFFFFFFFFFFFFFFFFFFFFFFFFFFFFFFFFFFFFF AND MUL OR SWAP1 SSTORE POP POP JUMP JUMPDEST PUSH1 0x60 PUSH1 0x0 DUP1 DUP5 PUSH20 0xFFFFFFFFFFFFFFFFFFFFFFFFFFFFFFFFFFFFFFFF AND DUP5 PUSH1 0x40 MLOAD PUSH2 0x39A4 SWAP2 SWAP1 PUSH2 0x52B2 JUMP JUMPDEST PUSH1 0x0 PUSH1 0x40 MLOAD DUP1 DUP4 SUB DUP2 DUP6 GAS DELEGATECALL SWAP2 POP POP RETURNDATASIZE DUP1 PUSH1 0x0 DUP2 EQ PUSH2 0x39DF JUMPI PUSH1 0x40 MLOAD SWAP2 POP PUSH1 0x1F NOT PUSH1 0x3F RETURNDATASIZE ADD AND DUP3 ADD PUSH1 0x40 MSTORE RETURNDATASIZE DUP3 MSTORE RETURNDATASIZE PUSH1 0x0 PUSH1 0x20 DUP5 ADD RETURNDATACOPY PUSH2 0x39E4 JUMP JUMPDEST PUSH1 0x60 SWAP2 POP JUMPDEST POP SWAP2 POP SWAP2 POP PUSH2 0x39F4 DUP6 DUP4 DUP4 PUSH2 0x3B4F JUMP JUMPDEST SWAP3 POP POP POP SWAP3 SWAP2 POP POP JUMP JUMPDEST PUSH1 0x0 CALLVALUE GT ISZERO PUSH2 0x3A39 JUMPI PUSH1 0x40 MLOAD PUSH32 0xB398979F00000000000000000000000000000000000000000000000000000000 DUP2 MSTORE PUSH1 0x4 ADD PUSH1 0x40 MLOAD DUP1 SWAP2 SUB SWAP1 REVERT JUMPDEST JUMP JUMPDEST PUSH1 0x0 PUSH2 0x3A45 PUSH2 0x2BD1 JUMP JUMPDEST PUSH1 0x0 ADD PUSH1 0x8 SWAP1 SLOAD SWAP1 PUSH2 0x100 EXP SWAP1 DIV PUSH1 0xFF AND SWAP1 POP SWAP1 JUMP JUMPDEST PUSH1 0x0 DUP1 PUSH1 0x0 PUSH32 0x7FFFFFFFFFFFFFFFFFFFFFFFFFFFFFFF5D576E7357A4501DDFE92F46681B20A0 DUP5 PUSH1 0x0 SHR GT ISZERO PUSH2 0x3A9B JUMPI PUSH1 0x0 PUSH1 0x3 DUP6 SWAP3 POP SWAP3 POP SWAP3 POP PUSH2 0x3B45 JUMP JUMPDEST PUSH1 0x0 PUSH1 0x1 DUP9 DUP9 DUP9 DUP9 PUSH1 0x40 MLOAD PUSH1 0x0 DUP2 MSTORE PUSH1 0x20 ADD PUSH1 0x40 MSTORE PUSH1 0x40 MLOAD PUSH2 0x3AC0 SWAP5 SWAP4 SWAP3 SWAP2 SWAP1 PUSH2 0x52E5 JUMP JUMPDEST PUSH1 0x20 PUSH1 0x40 MLOAD PUSH1 0x20 DUP2 SUB SWAP1 DUP1 DUP5 SUB SWAP1 DUP6 GAS STATICCALL ISZERO DUP1 ISZERO PUSH2 0x3AE2 JUMPI RETURNDATASIZE PUSH1 0x0 DUP1 RETURNDATACOPY RETURNDATASIZE PUSH1 0x0 REVERT JUMPDEST POP POP POP PUSH1 0x20 PUSH1 0x40 MLOAD SUB MLOAD SWAP1 POP PUSH1 0x0 PUSH20 0xFFFFFFFFFFFFFFFFFFFFFFFFFFFFFFFFFFFFFFFF AND DUP2 PUSH20 0xFFFFFFFFFFFFFFFFFFFFFFFFFFFFFFFFFFFFFFFF AND SUB PUSH2 0x3B36 JUMPI PUSH1 0x0 PUSH1 0x1 PUSH1 0x0 DUP1 SHL SWAP4 POP SWAP4 POP SWAP4 POP POP PUSH2 0x3B45 JUMP JUMPDEST DUP1 PUSH1 0x0 DUP1 PUSH1 0x0 SHL SWAP4 POP SWAP4 POP SWAP4 POP POP JUMPDEST SWAP5 POP SWAP5 POP SWAP5 SWAP2 POP POP JUMP JUMPDEST PUSH1 0x60 DUP3 PUSH2 0x3B64 JUMPI PUSH2 0x3B5F DUP3 PUSH2 0x3BDE JUMP JUMPDEST PUSH2 0x3BD6 JUMP JUMPDEST PUSH1 0x0 DUP3 MLOAD EQ DUP1 ISZERO PUSH2 0x3B8C JUMPI POP PUSH1 0x0 DUP5 PUSH20 0xFFFFFFFFFFFFFFFFFFFFFFFFFFFFFFFFFFFFFFFF AND EXTCODESIZE EQ JUMPDEST ISZERO PUSH2 0x3BCE JUMPI DUP4 PUSH1 0x40 MLOAD PUSH32 0x9996B31500000000000000000000000000000000000000000000000000000000 DUP2 MSTORE PUSH1 0x4 ADD PUSH2 0x3BC5 SWAP2 SWAP1 PUSH2 0x3E48 JUMP JUMPDEST PUSH1 0x40 MLOAD DUP1 SWAP2 SUB SWAP1 REVERT JUMPDEST DUP2 SWAP1 POP PUSH2 0x3BD7 JUMP JUMPDEST JUMPDEST SWAP4 SWAP3 POP POP POP JUMP JUMPDEST PUSH1 0x0 DUP2 MLOAD GT ISZERO PUSH2 0x3BF1 JUMPI DUP1 MLOAD DUP1 DUP3 PUSH1 0x20 ADD REVERT JUMPDEST PUSH1 0x40 MLOAD PUSH32 0xD6BDA27500000000000000000000000000000000000000000000000000000000 DUP2 MSTORE PUSH1 0x4 ADD PUSH1 0x40 MLOAD DUP1 SWAP2 SUB SWAP1 REVERT JUMPDEST PUSH1 0x0 PUSH1 0x40 MLOAD SWAP1 POP SWAP1 JUMP JUMPDEST PUSH1 0x0 DUP1 REVERT JUMPDEST PUSH1 0x0 DUP1 REVERT JUMPDEST PUSH1 0x0 PUSH32 0xFFFFFFFF00000000000000000000000000000000000000000000000000000000 DUP3 AND SWAP1 POP SWAP2 SWAP1 POP JUMP JUMPDEST PUSH2 0x3C6C DUP2 PUSH2 0x3C37 JUMP JUMPDEST DUP2 EQ PUSH2 0x3C77 JUMPI PUSH1 0x0 DUP1 REVERT JUMPDEST POP JUMP JUMPDEST PUSH1 0x0 DUP2 CALLDATALOAD SWAP1 POP PUSH2 0x3C89 DUP2 PUSH2 0x3C63 JUMP JUMPDEST SWAP3 SWAP2 POP POP JUMP JUMPDEST PUSH1 0x0 PUSH1 0x20 DUP3 DUP5 SUB SLT ISZERO PUSH2 0x3CA5 JUMPI PUSH2 0x3CA4 PUSH2 0x3C2D JUMP JUMPDEST JUMPDEST PUSH1 0x0 PUSH2 0x3CB3 DUP5 DUP3 DUP6 ADD PUSH2 0x3C7A JUMP JUMPDEST SWAP2 POP POP SWAP3 SWAP2 POP POP JUMP JUMPDEST PUSH1 0x0 DUP2 ISZERO ISZERO SWAP1 POP SWAP2 SWAP1 POP JUMP JUMPDEST PUSH2 0x3CD1 DUP2 PUSH2 0x3CBC JUMP JUMPDEST DUP3 MSTORE POP POP JUMP JUMPDEST PUSH1 0x0 PUSH1 0x20 DUP3 ADD SWAP1 POP PUSH2 0x3CEC PUSH1 0x0 DUP4 ADD DUP5 PUSH2 0x3CC8 JUMP JUMPDEST SWAP3 SWAP2 POP POP JUMP JUMPDEST PUSH1 0x0 DUP2 MLOAD SWAP1 POP SWAP2 SWAP1 POP JUMP JUMPDEST PUSH1 0x0 DUP3 DUP3 MSTORE PUSH1 0x20 DUP3 ADD SWAP1 POP SWAP3 SWAP2 POP POP JUMP JUMPDEST PUSH1 0x0 JUMPDEST DUP4 DUP2 LT ISZERO PUSH2 0x3D2C JUMPI DUP1 DUP3 ADD MLOAD DUP2 DUP5 ADD MSTORE PUSH1 0x20 DUP2 ADD SWAP1 POP PUSH2 0x3D11 JUMP JUMPDEST PUSH1 0x0 DUP5 DUP5 ADD MSTORE POP POP POP POP JUMP JUMPDEST PUSH1 0x0 PUSH1 0x1F NOT PUSH1 0x1F DUP4 ADD AND SWAP1 POP SWAP2 SWAP1 POP JUMP JUMPDEST PUSH1 0x0 PUSH2 0x3D54 DUP3 PUSH2 0x3CF2 JUMP JUMPDEST PUSH2 0x3D5E DUP2 DUP6 PUSH2 0x3CFD JUMP JUMPDEST SWAP4 POP PUSH2 0x3D6E DUP2 DUP6 PUSH1 0x20 DUP7 ADD PUSH2 0x3D0E JUMP JUMPDEST PUSH2 0x3D77 DUP2 PUSH2 0x3D38 JUMP JUMPDEST DUP5 ADD SWAP2 POP POP SWAP3 SWAP2 POP POP JUMP JUMPDEST PUSH1 0x0 PUSH1 0x20 DUP3 ADD SWAP1 POP DUP2 DUP2 SUB PUSH1 0x0 DUP4 ADD MSTORE PUSH2 0x3D9C DUP2 DUP5 PUSH2 0x3D49 JUMP JUMPDEST SWAP1 POP SWAP3 SWAP2 POP POP JUMP JUMPDEST PUSH1 0x0 DUP2 SWAP1 POP SWAP2 SWAP1 POP JUMP JUMPDEST PUSH2 0x3DB7 DUP2 PUSH2 0x3DA4 JUMP JUMPDEST DUP2 EQ PUSH2 0x3DC2 JUMPI PUSH1 0x0 DUP1 REVERT JUMPDEST POP JUMP JUMPDEST PUSH1 0x0 DUP2 CALLDATALOAD SWAP1 POP PUSH2 0x3DD4 DUP2 PUSH2 0x3DAE JUMP JUMPDEST SWAP3 SWAP2 POP POP JUMP JUMPDEST PUSH1 0x0 PUSH1 0x20 DUP3 DUP5 SUB SLT ISZERO PUSH2 0x3DF0 JUMPI PUSH2 0x3DEF PUSH2 0x3C2D JUMP JUMPDEST JUMPDEST PUSH1 0x0 PUSH2 0x3DFE DUP5 DUP3 DUP6 ADD PUSH2 0x3DC5 JUMP JUMPDEST SWAP2 POP POP SWAP3 SWAP2 POP POP JUMP JUMPDEST PUSH1 0x0 PUSH20 0xFFFFFFFFFFFFFFFFFFFFFFFFFFFFFFFFFFFFFFFF DUP3 AND SWAP1 POP SWAP2 SWAP1 POP JUMP JUMPDEST PUSH1 0x0 PUSH2 0x3E32 DUP3 PUSH2 0x3E07 JUMP JUMPDEST SWAP1 POP SWAP2 SWAP1 POP JUMP JUMPDEST PUSH2 0x3E42 DUP2 PUSH2 0x3E27 JUMP JUMPDEST DUP3 MSTORE POP POP JUMP JUMPDEST PUSH1 0x0 PUSH1 0x20 DUP3 ADD SWAP1 POP PUSH2 0x3E5D PUSH1 0x0 DUP4 ADD DUP5 PUSH2 0x3E39 JUMP JUMPDEST SWAP3 SWAP2 POP POP JUMP JUMPDEST PUSH2 0x3E6C DUP2 PUSH2 0x3E27 JUMP JUMPDEST DUP2 EQ PUSH2 0x3E77 JUMPI PUSH1 0x0 DUP1 REVERT JUMPDEST POP JUMP JUMPDEST PUSH1 0x0 DUP2 CALLDATALOAD SWAP1 POP PUSH2 0x3E89 DUP2 PUSH2 0x3E63 JUMP JUMPDEST SWAP3 SWAP2 POP POP JUMP JUMPDEST PUSH1 0x0 DUP1 PUSH1 0x40 DUP4 DUP6 SUB SLT ISZERO PUSH2 0x3EA6 JUMPI PUSH2 0x3EA5 PUSH2 0x3C2D JUMP JUMPDEST JUMPDEST PUSH1 0x0 PUSH2 0x3EB4 DUP6 DUP3 DUP7 ADD PUSH2 0x3E7A JUMP JUMPDEST SWAP3 POP POP PUSH1 0x20 PUSH2 0x3EC5 DUP6 DUP3 DUP7 ADD PUSH2 0x3DC5 JUMP JUMPDEST SWAP2 POP POP SWAP3 POP SWAP3 SWAP1 POP JUMP JUMPDEST PUSH1 0x0 DUP2 SWAP1 POP SWAP2 SWAP1 POP JUMP JUMPDEST PUSH2 0x3EE2 DUP2 PUSH2 0x3ECF JUMP JUMPDEST DUP3 MSTORE POP POP JUMP JUMPDEST PUSH1 0x0 PUSH1 0x20 DUP3 ADD SWAP1 POP PUSH2 0x3EFD PUSH1 0x0 DUP4 ADD DUP5 PUSH2 0x3ED9 JUMP JUMPDEST SWAP3 SWAP2 POP POP JUMP JUMPDEST PUSH2 0x3F0C DUP2 PUSH2 0x3ECF JUMP JUMPDEST DUP2 EQ PUSH2 0x3F17 JUMPI PUSH1 0x0 DUP1 REVERT JUMPDEST POP JUMP JUMPDEST PUSH1 0x0 DUP2 CALLDATALOAD SWAP1 POP PUSH2 0x3F29 DUP2 PUSH2 0x3F03 JUMP JUMPDEST SWAP3 SWAP2 POP POP JUMP JUMPDEST PUSH1 0x0 DUP1 PUSH1 0x40 DUP4 DUP6 SUB SLT ISZERO PUSH2 0x3F46 JUMPI PUSH2 0x3F45 PUSH2 0x3C2D JUMP JUMPDEST JUMPDEST PUSH1 0x0 PUSH2 0x3F54 DUP6 DUP3 DUP7 ADD PUSH2 0x3DC5 JUMP JUMPDEST SWAP3 POP POP PUSH1 0x20 PUSH2 0x3F65 DUP6 DUP3 DUP7 ADD PUSH2 0x3F1A JUMP JUMPDEST SWAP2 POP POP SWAP3 POP SWAP3 SWAP1 POP JUMP JUMPDEST PUSH1 0x0 DUP1 PUSH1 0x0 PUSH1 0x60 DUP5 DUP7 SUB SLT ISZERO PUSH2 0x3F88 JUMPI PUSH2 0x3F87 PUSH2 0x3C2D JUMP JUMPDEST JUMPDEST PUSH1 0x0 PUSH2 0x3F96 DUP7 DUP3 DUP8 ADD PUSH2 0x3E7A JUMP JUMPDEST SWAP4 POP POP PUSH1 0x20 PUSH2 0x3FA7 DUP7 DUP3 DUP8 ADD PUSH2 0x3E7A JUMP JUMPDEST SWAP3 POP POP PUSH1 0x40 PUSH2 0x3FB8 DUP7 DUP3 DUP8 ADD PUSH2 0x3DC5 JUMP JUMPDEST SWAP2 POP POP SWAP3 POP SWAP3 POP SWAP3 JUMP JUMPDEST PUSH1 0x0 PUSH1 0x20 DUP3 DUP5 SUB SLT ISZERO PUSH2 0x3FD8 JUMPI PUSH2 0x3FD7 PUSH2 0x3C2D JUMP JUMPDEST JUMPDEST PUSH1 0x0 PUSH2 0x3FE6 DUP5 DUP3 DUP6 ADD PUSH2 0x3F1A JUMP JUMPDEST SWAP2 POP POP SWAP3 SWAP2 POP POP JUMP JUMPDEST PUSH1 0x0 PUSH1 0x20 DUP3 DUP5 SUB SLT ISZERO PUSH2 0x4005 JUMPI PUSH2 0x4004 PUSH2 0x3C2D JUMP JUMPDEST JUMPDEST PUSH1 0x0 PUSH2 0x4013 DUP5 DUP3 DUP6 ADD PUSH2 0x3E7A JUMP JUMPDEST SWAP2 POP POP SWAP3 SWAP2 POP POP JUMP JUMPDEST PUSH1 0x0 DUP1 PUSH1 0x40 DUP4 DUP6 SUB SLT ISZERO PUSH2 0x4033 JUMPI PUSH2 0x4032 PUSH2 0x3C2D JUMP JUMPDEST JUMPDEST PUSH1 0x0 PUSH2 0x4041 DUP6 DUP3 DUP7 ADD PUSH2 0x3F1A JUMP JUMPDEST SWAP3 POP POP PUSH1 0x20 PUSH2 0x4052 DUP6 DUP3 DUP7 ADD PUSH2 0x3E7A JUMP JUMPDEST SWAP2 POP POP SWAP3 POP SWAP3 SWAP1 POP JUMP JUMPDEST PUSH1 0x0 DUP1 REVERT JUMPDEST PUSH1 0x0 DUP1 REVERT JUMPDEST PUSH32 0x4E487B7100000000000000000000000000000000000000000000000000000000 PUSH1 0x0 MSTORE PUSH1 0x41 PUSH1 0x4 MSTORE PUSH1 0x24 PUSH1 0x0 REVERT JUMPDEST PUSH2 0x409E DUP3 PUSH2 0x3D38 JUMP JUMPDEST DUP2 ADD DUP2 DUP2 LT PUSH8 0xFFFFFFFFFFFFFFFF DUP3 GT OR ISZERO PUSH2 0x40BD JUMPI PUSH2 0x40BC PUSH2 0x4066 JUMP JUMPDEST JUMPDEST DUP1 PUSH1 0x40 MSTORE POP POP POP JUMP JUMPDEST PUSH1 0x0 PUSH2 0x40D0 PUSH2 0x3C23 JUMP JUMPDEST SWAP1 POP PUSH2 0x40DC DUP3 DUP3 PUSH2 0x4095 JUMP JUMPDEST SWAP2 SWAP1 POP JUMP JUMPDEST PUSH1 0x0 PUSH8 0xFFFFFFFFFFFFFFFF DUP3 GT ISZERO PUSH2 0x40FC JUMPI PUSH2 0x40FB PUSH2 0x4066 JUMP JUMPDEST JUMPDEST PUSH2 0x4105 DUP3 PUSH2 0x3D38 JUMP JUMPDEST SWAP1 POP PUSH1 0x20 DUP2 ADD SWAP1 POP SWAP2 SWAP1 POP JUMP JUMPDEST DUP3 DUP2 DUP4 CALLDATACOPY PUSH1 0x0 DUP4 DUP4 ADD MSTORE POP POP POP JUMP JUMPDEST PUSH1 0x0 PUSH2 0x4134 PUSH2 0x412F DUP5 PUSH2 0x40E1 JUMP JUMPDEST PUSH2 0x40C6 JUMP JUMPDEST SWAP1 POP DUP3 DUP2 MSTORE PUSH1 0x20 DUP2 ADD DUP5 DUP5 DUP5 ADD GT ISZERO PUSH2 0x4150 JUMPI PUSH2 0x414F PUSH2 0x4061 JUMP JUMPDEST JUMPDEST PUSH2 0x415B DUP5 DUP3 DUP6 PUSH2 0x4112 JUMP JUMPDEST POP SWAP4 SWAP3 POP POP POP JUMP JUMPDEST PUSH1 0x0 DUP3 PUSH1 0x1F DUP4 ADD SLT PUSH2 0x4178 JUMPI PUSH2 0x4177 PUSH2 0x405C JUMP JUMPDEST JUMPDEST DUP2 CALLDATALOAD PUSH2 0x4188 DUP5 DUP3 PUSH1 0x20 DUP7 ADD PUSH2 0x4121 JUMP JUMPDEST SWAP2 POP POP SWAP3 SWAP2 POP POP JUMP JUMPDEST PUSH1 0x0 DUP1 PUSH1 0x40 DUP4 DUP6 SUB SLT ISZERO PUSH2 0x41A8 JUMPI PUSH2 0x41A7 PUSH2 0x3C2D JUMP JUMPDEST JUMPDEST PUSH1 0x0 PUSH2 0x41B6 DUP6 DUP3 DUP7 ADD PUSH2 0x3E7A JUMP JUMPDEST SWAP3 POP POP PUSH1 0x20 DUP4 ADD CALLDATALOAD PUSH8 0xFFFFFFFFFFFFFFFF DUP2 GT ISZERO PUSH2 0x41D7 JUMPI PUSH2 0x41D6 PUSH2 0x3C32 JUMP JUMPDEST JUMPDEST PUSH2 0x41E3 DUP6 DUP3 DUP7 ADD PUSH2 0x4163 JUMP JUMPDEST SWAP2 POP POP SWAP3 POP SWAP3 SWAP1 POP JUMP JUMPDEST PUSH1 0x0 PUSH8 0xFFFFFFFFFFFFFFFF DUP3 GT ISZERO PUSH2 0x4208 JUMPI PUSH2 0x4207 PUSH2 0x4066 JUMP JUMPDEST JUMPDEST PUSH2 0x4211 DUP3 PUSH2 0x3D38 JUMP JUMPDEST SWAP1 POP PUSH1 0x20 DUP2 ADD SWAP1 POP SWAP2 SWAP1 POP JUMP JUMPDEST PUSH1 0x0 PUSH2 0x4231 PUSH2 0x422C DUP5 PUSH2 0x41ED JUMP JUMPDEST PUSH2 0x40C6 JUMP JUMPDEST SWAP1 POP DUP3 DUP2 MSTORE PUSH1 0x20 DUP2 ADD DUP5 DUP5 DUP5 ADD GT ISZERO PUSH2 0x424D JUMPI PUSH2 0x424C PUSH2 0x4061 JUMP JUMPDEST JUMPDEST PUSH2 0x4258 DUP5 DUP3 DUP6 PUSH2 0x4112 JUMP JUMPDEST POP SWAP4 SWAP3 POP POP POP JUMP JUMPDEST PUSH1 0x0 DUP3 PUSH1 0x1F DUP4 ADD SLT PUSH2 0x4275 JUMPI PUSH2 0x4274 PUSH2 0x405C JUMP JUMPDEST JUMPDEST DUP2 CALLDATALOAD PUSH2 0x4285 DUP5 DUP3 PUSH1 0x20 DUP7 ADD PUSH2 0x421E JUMP JUMPDEST SWAP2 POP POP SWAP3 SWAP2 POP POP JUMP JUMPDEST PUSH1 0x0 DUP1 PUSH1 0x0 DUP1 PUSH1 0x80 DUP6 DUP8 SUB SLT ISZERO PUSH2 0x42A8 JUMPI PUSH2 0x42A7 PUSH2 0x3C2D JUMP JUMPDEST JUMPDEST PUSH1 0x0 PUSH2 0x42B6 DUP8 DUP3 DUP9 ADD PUSH2 0x3E7A JUMP JUMPDEST SWAP5 POP POP PUSH1 0x20 DUP6 ADD CALLDATALOAD PUSH8 0xFFFFFFFFFFFFFFFF DUP2 GT ISZERO PUSH2 0x42D7 JUMPI PUSH2 0x42D6 PUSH2 0x3C32 JUMP JUMPDEST JUMPDEST PUSH2 0x42E3 DUP8 DUP3 DUP9 ADD PUSH2 0x4260 JUMP JUMPDEST SWAP4 POP POP PUSH1 0x40 PUSH2 0x42F4 DUP8 DUP3 DUP9 ADD PUSH2 0x3F1A JUMP JUMPDEST SWAP3 POP POP PUSH1 0x60 DUP6 ADD CALLDATALOAD PUSH8 0xFFFFFFFFFFFFFFFF DUP2 GT ISZERO PUSH2 0x4315 JUMPI PUSH2 0x4314 PUSH2 0x3C32 JUMP JUMPDEST JUMPDEST PUSH2 0x4321 DUP8 DUP3 DUP9 ADD PUSH2 0x4163 JUMP JUMPDEST SWAP2 POP POP SWAP3 SWAP6 SWAP2 SWAP5 POP SWAP3 POP JUMP JUMPDEST PUSH2 0x4336 DUP2 PUSH2 0x3DA4 JUMP JUMPDEST DUP3 MSTORE POP POP JUMP JUMPDEST PUSH1 0x0 PUSH1 0x20 DUP3 ADD SWAP1 POP PUSH2 0x4351 PUSH1 0x0 DUP4 ADD DUP5 PUSH2 0x432D JUMP JUMPDEST SWAP3 SWAP2 POP POP JUMP JUMPDEST PUSH1 0x0 DUP1 PUSH1 0x40 DUP4 DUP6 SUB SLT ISZERO PUSH2 0x436E JUMPI PUSH2 0x436D PUSH2 0x3C2D JUMP JUMPDEST JUMPDEST PUSH1 0x0 PUSH2 0x437C DUP6 DUP3 DUP7 ADD PUSH2 0x3E7A JUMP JUMPDEST SWAP3 POP POP PUSH1 0x20 DUP4 ADD CALLDATALOAD PUSH8 0xFFFFFFFFFFFFFFFF DUP2 GT ISZERO PUSH2 0x439D JUMPI PUSH2 0x439C PUSH2 0x3C32 JUMP JUMPDEST JUMPDEST PUSH2 0x43A9 DUP6 DUP3 DUP7 ADD PUSH2 0x4260 JUMP JUMPDEST SWAP2 POP POP SWAP3 POP SWAP3 SWAP1 POP JUMP JUMPDEST PUSH1 0x0 DUP1 PUSH1 0x40 DUP4 DUP6 SUB SLT ISZERO PUSH2 0x43CA JUMPI PUSH2 0x43C9 PUSH2 0x3C2D JUMP JUMPDEST JUMPDEST PUSH1 0x0 PUSH2 0x43D8 DUP6 DUP3 DUP7 ADD PUSH2 0x3DC5 JUMP JUMPDEST SWAP3 POP POP PUSH1 0x20 DUP4 ADD CALLDATALOAD PUSH8 0xFFFFFFFFFFFFFFFF DUP2 GT ISZERO PUSH2 0x43F9 JUMPI PUSH2 0x43F8 PUSH2 0x3C32 JUMP JUMPDEST JUMPDEST PUSH2 0x4405 DUP6 DUP3 DUP7 ADD PUSH2 0x4260 JUMP JUMPDEST SWAP2 POP POP SWAP3 POP SWAP3 SWAP1 POP JUMP JUMPDEST PUSH1 0x0 DUP1 PUSH1 0x0 PUSH1 0x60 DUP5 DUP7 SUB SLT ISZERO PUSH2 0x4428 JUMPI PUSH2 0x4427 PUSH2 0x3C2D JUMP JUMPDEST JUMPDEST PUSH1 0x0 PUSH2 0x4436 DUP7 DUP3 DUP8 ADD PUSH2 0x3F1A JUMP JUMPDEST SWAP4 POP POP PUSH1 0x20 PUSH2 0x4447 DUP7 DUP3 DUP8 ADD PUSH2 0x3E7A JUMP JUMPDEST SWAP3 POP POP PUSH1 0x40 DUP5 ADD CALLDATALOAD PUSH8 0xFFFFFFFFFFFFFFFF DUP2 GT ISZERO PUSH2 0x4468 JUMPI PUSH2 0x4467 PUSH2 0x3C32 JUMP JUMPDEST JUMPDEST PUSH2 0x4474 DUP7 DUP3 DUP8 ADD PUSH2 0x4163 JUMP JUMPDEST SWAP2 POP POP SWAP3 POP SWAP3 POP SWAP3 JUMP JUMPDEST PUSH2 0x4487 DUP2 PUSH2 0x3CBC JUMP JUMPDEST DUP2 EQ PUSH2 0x4492 JUMPI PUSH1 0x0 DUP1 REVERT JUMPDEST POP JUMP JUMPDEST PUSH1 0x0 DUP2 CALLDATALOAD SWAP1 POP PUSH2 0x44A4 DUP2 PUSH2 0x447E JUMP JUMPDEST SWAP3 SWAP2 POP POP JUMP JUMPDEST PUSH1 0x0 DUP1 PUSH1 0x40 DUP4 DUP6 SUB SLT ISZERO PUSH2 0x44C1 JUMPI PUSH2 0x44C0 PUSH2 0x3C2D JUMP JUMPDEST JUMPDEST PUSH1 0x0 PUSH2 0x44CF DUP6 DUP3 DUP7 ADD PUSH2 0x3E7A JUMP JUMPDEST SWAP3 POP POP PUSH1 0x20 PUSH2 0x44E0 DUP6 DUP3 DUP7 ADD PUSH2 0x4495 JUMP JUMPDEST SWAP2 POP POP SWAP3 POP SWAP3 SWAP1 POP JUMP JUMPDEST PUSH1 0x0 DUP1 PUSH1 0x0 DUP1 PUSH1 0x80 DUP6 DUP8 SUB SLT ISZERO PUSH2 0x4504 JUMPI PUSH2 0x4503 PUSH2 0x3C2D JUMP JUMPDEST JUMPDEST PUSH1 0x0 PUSH2 0x4512 DUP8 DUP3 DUP9 ADD PUSH2 0x3E7A JUMP JUMPDEST SWAP5 POP POP PUSH1 0x20 PUSH2 0x4523 DUP8 DUP3 DUP9 ADD PUSH2 0x3E7A JUMP JUMPDEST SWAP4 POP POP PUSH1 0x40 PUSH2 0x4534 DUP8 DUP3 DUP9 ADD PUSH2 0x3DC5 JUMP JUMPDEST SWAP3 POP POP PUSH1 0x60 DUP6 ADD CALLDATALOAD PUSH8 0xFFFFFFFFFFFFFFFF DUP2 GT ISZERO PUSH2 0x4555 JUMPI PUSH2 0x4554 PUSH2 0x3C32 JUMP JUMPDEST JUMPDEST PUSH2 0x4561 DUP8 DUP3 DUP9 ADD PUSH2 0x4163 JUMP JUMPDEST SWAP2 POP POP SWAP3 SWAP6 SWAP2 SWAP5 POP SWAP3 POP JUMP JUMPDEST PUSH32 0x4E487B7100000000000000000000000000000000000000000000000000000000 PUSH1 0x0 MSTORE PUSH1 0x21 PUSH1 0x4 MSTORE PUSH1 0x24 PUSH1 0x0 REVERT JUMPDEST PUSH1 0x2 DUP2 LT PUSH2 0x45AD JUMPI PUSH2 0x45AC PUSH2 0x456D JUMP JUMPDEST JUMPDEST POP JUMP JUMPDEST PUSH1 0x0 DUP2 SWAP1 POP PUSH2 0x45BE DUP3 PUSH2 0x459C JUMP JUMPDEST SWAP2 SWAP1 POP JUMP JUMPDEST PUSH1 0x0 PUSH2 0x45CE DUP3 PUSH2 0x45B0 JUMP JUMPDEST SWAP1 POP SWAP2 SWAP1 POP JUMP JUMPDEST PUSH2 0x45DE DUP2 PUSH2 0x45C3 JUMP JUMPDEST DUP3 MSTORE POP POP JUMP JUMPDEST PUSH1 0x0 DUP2 MLOAD SWAP1 POP SWAP2 SWAP1 POP JUMP JUMPDEST PUSH1 0x0 DUP3 DUP3 MSTORE PUSH1 0x20 DUP3 ADD SWAP1 POP SWAP3 SWAP2 POP POP JUMP JUMPDEST PUSH1 0x0 PUSH2 0x460B DUP3 PUSH2 0x45E4 JUMP JUMPDEST PUSH2 0x4615 DUP2 DUP6 PUSH2 0x45EF JUMP JUMPDEST SWAP4 POP PUSH2 0x4625 DUP2 DUP6 PUSH1 0x20 DUP7 ADD PUSH2 0x3D0E JUMP JUMPDEST PUSH2 0x462E DUP2 PUSH2 0x3D38 JUMP JUMPDEST DUP5 ADD SWAP2 POP POP SWAP3 SWAP2 POP POP JUMP JUMPDEST PUSH1 0x0 PUSH1 0xA0 DUP3 ADD SWAP1 POP PUSH2 0x464E PUSH1 0x0 DUP4 ADD DUP9 PUSH2 0x432D JUMP JUMPDEST DUP2 DUP2 SUB PUSH1 0x20 DUP4 ADD MSTORE PUSH2 0x4660 DUP2 DUP8 PUSH2 0x3D49 JUMP JUMPDEST SWAP1 POP PUSH2 0x466F PUSH1 0x40 DUP4 ADD DUP7 PUSH2 0x45D5 JUMP JUMPDEST DUP2 DUP2 SUB PUSH1 0x60 DUP4 ADD MSTORE PUSH2 0x4681 DUP2 DUP6 PUSH2 0x4600 JUMP JUMPDEST SWAP1 POP PUSH2 0x4690 PUSH1 0x80 DUP4 ADD DUP5 PUSH2 0x3E39 JUMP JUMPDEST SWAP7 SWAP6 POP POP POP POP POP POP JUMP JUMPDEST PUSH1 0x0 DUP1 PUSH1 0x40 DUP4 DUP6 SUB SLT ISZERO PUSH2 0x46B1 JUMPI PUSH2 0x46B0 PUSH2 0x3C2D JUMP JUMPDEST JUMPDEST PUSH1 0x0 PUSH2 0x46BF DUP6 DUP3 DUP7 ADD PUSH2 0x3E7A JUMP JUMPDEST SWAP3 POP POP PUSH1 0x20 PUSH2 0x46D0 DUP6 DUP3 DUP7 ADD PUSH2 0x3E7A JUMP JUMPDEST SWAP2 POP POP SWAP3 POP SWAP3 SWAP1 POP JUMP JUMPDEST PUSH32 0x4E487B7100000000000000000000000000000000000000000000000000000000 PUSH1 0x0 MSTORE PUSH1 0x22 PUSH1 0x4 MSTORE PUSH1 0x24 PUSH1 0x0 REVERT JUMPDEST PUSH1 0x0 PUSH1 0x2 DUP3 DIV SWAP1 POP PUSH1 0x1 DUP3 AND DUP1 PUSH2 0x4721 JUMPI PUSH1 0x7F DUP3 AND SWAP2 POP JUMPDEST PUSH1 0x20 DUP3 LT DUP2 SUB PUSH2 0x4734 JUMPI PUSH2 0x4733 PUSH2 0x46DA JUMP JUMPDEST JUMPDEST POP SWAP2 SWAP1 POP JUMP JUMPDEST PUSH32 0x546F6B656E20646F6573206E6F74206578697374000000000000000000000000 PUSH1 0x0 DUP3 ADD MSTORE POP JUMP JUMPDEST PUSH1 0x0 PUSH2 0x4770 PUSH1 0x14 DUP4 PUSH2 0x3CFD JUMP JUMPDEST SWAP2 POP PUSH2 0x477B DUP3 PUSH2 0x473A JUMP JUMPDEST PUSH1 0x20 DUP3 ADD SWAP1 POP SWAP2 SWAP1 POP JUMP JUMPDEST PUSH1 0x0 PUSH1 0x20 DUP3 ADD SWAP1 POP DUP2 DUP2 SUB PUSH1 0x0 DUP4 ADD MSTORE PUSH2 0x479F DUP2 PUSH2 0x4763 JUMP JUMPDEST SWAP1 POP SWAP2 SWAP1 POP JUMP JUMPDEST PUSH1 0x0 PUSH1 0x60 DUP3 ADD SWAP1 POP PUSH2 0x47BB PUSH1 0x0 DUP4 ADD DUP7 PUSH2 0x3E39 JUMP JUMPDEST PUSH2 0x47C8 PUSH1 0x20 DUP4 ADD DUP6 PUSH2 0x432D JUMP JUMPDEST PUSH2 0x47D5 PUSH1 0x40 DUP4 ADD DUP5 PUSH2 0x3E39 JUMP JUMPDEST SWAP5 SWAP4 POP POP POP POP JUMP JUMPDEST PUSH32 0x4164647265737320697320616C72656164792061206D616E6167657200000000 PUSH1 0x0 DUP3 ADD MSTORE POP JUMP JUMPDEST PUSH1 0x0 PUSH2 0x4813 PUSH1 0x1C DUP4 PUSH2 0x3CFD JUMP JUMPDEST SWAP2 POP PUSH2 0x481E DUP3 PUSH2 0x47DD JUMP JUMPDEST PUSH1 0x20 DUP3 ADD SWAP1 POP SWAP2 SWAP1 POP JUMP JUMPDEST PUSH1 0x0 PUSH1 0x20 DUP3 ADD SWAP1 POP DUP2 DUP2 SUB PUSH1 0x0 DUP4 ADD MSTORE PUSH2 0x4842 DUP2 PUSH2 0x4806 JUMP JUMPDEST SWAP1 POP SWAP2 SWAP1 POP JUMP JUMPDEST PUSH32 0x4164647265737320697320616C726561647920616E20696E737469747574696F PUSH1 0x0 DUP3 ADD MSTORE PUSH32 0x6E00000000000000000000000000000000000000000000000000000000000000 PUSH1 0x20 DUP3 ADD MSTORE POP JUMP JUMPDEST PUSH1 0x0 PUSH2 0x48A5 PUSH1 0x21 DUP4 PUSH2 0x3CFD JUMP JUMPDEST SWAP2 POP PUSH2 0x48B0 DUP3 PUSH2 0x4849 JUMP JUMPDEST PUSH1 0x40 DUP3 ADD SWAP1 POP SWAP2 SWAP1 POP JUMP JUMPDEST PUSH1 0x0 PUSH1 0x20 DUP3 ADD SWAP1 POP DUP2 DUP2 SUB PUSH1 0x0 DUP4 ADD MSTORE PUSH2 0x48D4 DUP2 PUSH2 0x4898 JUMP JUMPDEST SWAP1 POP SWAP2 SWAP1 POP JUMP JUMPDEST PUSH32 0x4164647265737320697320616C726561647920616E2061646D696E0000000000 PUSH1 0x0 DUP3 ADD MSTORE POP JUMP JUMPDEST PUSH1 0x0 PUSH2 0x4911 PUSH1 0x1B DUP4 PUSH2 0x3CFD JUMP JUMPDEST SWAP2 POP PUSH2 0x491C DUP3 PUSH2 0x48DB JUMP JUMPDEST PUSH1 0x20 DUP3 ADD SWAP1 POP SWAP2 SWAP1 POP JUMP JUMPDEST PUSH1 0x0 PUSH1 0x20 DUP3 ADD SWAP1 POP DUP2 DUP2 SUB PUSH1 0x0 DUP4 ADD MSTORE PUSH2 0x4940 DUP2 PUSH2 0x4904 JUMP JUMPDEST SWAP1 POP SWAP2 SWAP1 POP JUMP JUMPDEST PUSH32 0x546F6B656E20494420616C726561647920657869737473000000000000000000 PUSH1 0x0 DUP3 ADD MSTORE POP JUMP JUMPDEST PUSH1 0x0 PUSH2 0x497D PUSH1 0x17 DUP4 PUSH2 0x3CFD JUMP JUMPDEST SWAP2 POP PUSH2 0x4988 DUP3 PUSH2 0x4947 JUMP JUMPDEST PUSH1 0x20 DUP3 ADD SWAP1 POP SWAP2 SWAP1 POP JUMP JUMPDEST PUSH1 0x0 PUSH1 0x20 DUP3 ADD SWAP1 POP DUP2 DUP2 SUB PUSH1 0x0 DUP4 ADD MSTORE PUSH2 0x49AC DUP2 PUSH2 0x4970 JUMP JUMPDEST SWAP1 POP SWAP2 SWAP1 POP JUMP JUMPDEST PUSH1 0x0 DUP2 SWAP1 POP SWAP3 SWAP2 POP POP JUMP JUMPDEST PUSH1 0x0 PUSH2 0x49C9 DUP3 PUSH2 0x3CF2 JUMP JUMPDEST PUSH2 0x49D3 DUP2 DUP6 PUSH2 0x49B3 JUMP JUMPDEST SWAP4 POP PUSH2 0x49E3 DUP2 DUP6 PUSH1 0x20 DUP7 ADD PUSH2 0x3D0E JUMP JUMPDEST DUP1 DUP5 ADD SWAP2 POP POP SWAP3 SWAP2 POP POP JUMP JUMPDEST PUSH1 0x0 PUSH2 0x49FB DUP3 DUP5 PUSH2 0x49BE JUMP JUMPDEST SWAP2 POP DUP2 SWAP1 POP SWAP3 SWAP2 POP POP JUMP JUMPDEST PUSH32 0x54686520495046532055524920697320616C7265616479206973737565642066 PUSH1 0x0 DUP3 ADD MSTORE PUSH32 0x6F7220612063726564656E7469616C0000000000000000000000000000000000 PUSH1 0x20 DUP3 ADD MSTORE POP JUMP JUMPDEST PUSH1 0x0 PUSH2 0x4A62 PUSH1 0x2F DUP4 PUSH2 0x3CFD JUMP JUMPDEST SWAP2 POP PUSH2 0x4A6D DUP3 PUSH2 0x4A06 JUMP JUMPDEST PUSH1 0x40 DUP3 ADD SWAP1 POP SWAP2 SWAP1 POP JUMP JUMPDEST PUSH1 0x0 PUSH1 0x20 DUP3 ADD SWAP1 POP DUP2 DUP2 SUB PUSH1 0x0 DUP4 ADD MSTORE PUSH2 0x4A91 DUP2 PUSH2 0x4A55 JUMP JUMPDEST SWAP1 POP SWAP2 SWAP1 POP JUMP JUMPDEST PUSH32 0x496E76616C6964207369676E6174757265000000000000000000000000000000 PUSH1 0x0 DUP3 ADD MSTORE POP JUMP JUMPDEST PUSH1 0x0 PUSH2 0x4ACE PUSH1 0x11 DUP4 PUSH2 0x3CFD JUMP JUMPDEST SWAP2 POP PUSH2 0x4AD9 DUP3 PUSH2 0x4A98 JUMP JUMPDEST PUSH1 0x20 DUP3 ADD SWAP1 POP SWAP2 SWAP1 POP JUMP JUMPDEST PUSH1 0x0 PUSH1 0x20 DUP3 ADD SWAP1 POP DUP2 DUP2 SUB PUSH1 0x0 DUP4 ADD MSTORE PUSH2 0x4AFD DUP2 PUSH2 0x4AC1 JUMP JUMPDEST SWAP1 POP SWAP2 SWAP1 POP JUMP JUMPDEST PUSH1 0x0 DUP2 SWAP1 POP DUP2 PUSH1 0x0 MSTORE PUSH1 0x20 PUSH1 0x0 KECCAK256 SWAP1 POP SWAP2 SWAP1 POP JUMP JUMPDEST PUSH1 0x0 PUSH1 0x20 PUSH1 0x1F DUP4 ADD DIV SWAP1 POP SWAP2 SWAP1 POP JUMP JUMPDEST PUSH1 0x0 DUP3 DUP3 SHL SWAP1 POP SWAP3 SWAP2 POP POP JUMP JUMPDEST PUSH1 0x0 PUSH1 0x8 DUP4 MUL PUSH2 0x4B66 PUSH32 0xFFFFFFFFFFFFFFFFFFFFFFFFFFFFFFFFFFFFFFFFFFFFFFFFFFFFFFFFFFFFFFFF DUP3 PUSH2 0x4B29 JUMP JUMPDEST PUSH2 0x4B70 DUP7 DUP4 PUSH2 0x4B29 JUMP JUMPDEST SWAP6 POP DUP1 NOT DUP5 AND SWAP4 POP DUP1 DUP7 AND DUP5 OR SWAP3 POP POP POP SWAP4 SWAP3 POP POP POP JUMP JUMPDEST PUSH1 0x0 DUP2 SWAP1 POP SWAP2 SWAP1 POP JUMP JUMPDEST PUSH1 0x0 PUSH2 0x4BAD PUSH2 0x4BA8 PUSH2 0x4BA3 DUP5 PUSH2 0x3DA4 JUMP JUMPDEST PUSH2 0x4B88 JUMP JUMPDEST PUSH2 0x3DA4 JUMP JUMPDEST SWAP1 POP SWAP2 SWAP1 POP JUMP JUMPDEST PUSH1 0x0 DUP2 SWAP1 POP SWAP2 SWAP1 POP JUMP JUMPDEST PUSH2 0x4BC7 DUP4 PUSH2 0x4B92 JUMP JUMPDEST PUSH2 0x4BDB PUSH2 0x4BD3 DUP3 PUSH2 0x4BB4 JUMP JUMPDEST DUP5 DUP5 SLOAD PUSH2 0x4B36 JUMP JUMPDEST DUP3 SSTORE POP POP POP POP JUMP JUMPDEST PUSH1 0x0 SWAP1 JUMP JUMPDEST PUSH2 0x4BF0 PUSH2 0x4BE3 JUMP JUMPDEST PUSH2 0x4BFB DUP2 DUP5 DUP5 PUSH2 0x4BBE JUMP JUMPDEST POP POP POP JUMP JUMPDEST JUMPDEST DUP2 DUP2 LT ISZERO PUSH2 0x4C1F JUMPI PUSH2 0x4C14 PUSH1 0x0 DUP3 PUSH2 0x4BE8 JUMP JUMPDEST PUSH1 0x1 DUP2 ADD SWAP1 POP PUSH2 0x4C01 JUMP JUMPDEST POP POP JUMP JUMPDEST PUSH1 0x1F DUP3 GT ISZERO PUSH2 0x4C64 JUMPI PUSH2 0x4C35 DUP2 PUSH2 0x4B04 JUMP JUMPDEST PUSH2 0x4C3E DUP5 PUSH2 0x4B19 JUMP JUMPDEST DUP2 ADD PUSH1 0x20 DUP6 LT ISZERO PUSH2 0x4C4D JUMPI DUP2 SWAP1 POP JUMPDEST PUSH2 0x4C61 PUSH2 0x4C59 DUP6 PUSH2 0x4B19 JUMP JUMPDEST DUP4 ADD DUP3 PUSH2 0x4C00 JUMP JUMPDEST POP POP JUMPDEST POP POP POP JUMP JUMPDEST PUSH1 0x0 DUP3 DUP3 SHR SWAP1 POP SWAP3 SWAP2 POP POP JUMP JUMPDEST PUSH1 0x0 PUSH2 0x4C87 PUSH1 0x0 NOT DUP5 PUSH1 0x8 MUL PUSH2 0x4C69 JUMP JUMPDEST NOT DUP1 DUP4 AND SWAP2 POP POP SWAP3 SWAP2 POP POP JUMP JUMPDEST PUSH1 0x0 PUSH2 0x4CA0 DUP4 DUP4 PUSH2 0x4C76 JUMP JUMPDEST SWAP2 POP DUP3 PUSH1 0x2 MUL DUP3 OR SWAP1 POP SWAP3 SWAP2 POP POP JUMP JUMPDEST PUSH2 0x4CB9 DUP3 PUSH2 0x3CF2 JUMP JUMPDEST PUSH8 0xFFFFFFFFFFFFFFFF DUP2 GT ISZERO PUSH2 0x4CD2 JUMPI PUSH2 0x4CD1 PUSH2 0x4066 JUMP JUMPDEST JUMPDEST PUSH2 0x4CDC DUP3 SLOAD PUSH2 0x4709 JUMP JUMPDEST PUSH2 0x4CE7 DUP3 DUP3 DUP6 PUSH2 0x4C23 JUMP JUMPDEST PUSH1 0x0 PUSH1 0x20 SWAP1 POP PUSH1 0x1F DUP4 GT PUSH1 0x1 DUP2 EQ PUSH2 0x4D1A JUMPI PUSH1 0x0 DUP5 ISZERO PUSH2 0x4D08 JUMPI DUP3 DUP8 ADD MLOAD SWAP1 POP JUMPDEST PUSH2 0x4D12 DUP6 DUP3 PUSH2 0x4C94 JUMP JUMPDEST DUP7 SSTORE POP PUSH2 0x4D7A JUMP JUMPDEST PUSH1 0x1F NOT DUP5 AND PUSH2 0x4D28 DUP7 PUSH2 0x4B04 JUMP JUMPDEST PUSH1 0x0 JUMPDEST DUP3 DUP2 LT ISZERO PUSH2 0x4D50 JUMPI DUP5 DUP10 ADD MLOAD DUP3 SSTORE PUSH1 0x1 DUP3 ADD SWAP2 POP PUSH1 0x20 DUP6 ADD SWAP5 POP PUSH1 0x20 DUP2 ADD SWAP1 POP PUSH2 0x4D2B JUMP JUMPDEST DUP7 DUP4 LT ISZERO PUSH2 0x4D6D JUMPI DUP5 DUP10 ADD MLOAD PUSH2 0x4D69 PUSH1 0x1F DUP10 AND DUP3 PUSH2 0x4C76 JUMP JUMPDEST DUP4 SSTORE POP JUMPDEST PUSH1 0x1 PUSH1 0x2 DUP9 MUL ADD DUP9 SSTORE POP POP POP JUMPDEST POP POP POP POP POP POP JUMP JUMPDEST PUSH1 0x0 DUP2 SWAP1 POP DUP2 PUSH1 0x0 MSTORE PUSH1 0x20 PUSH1 0x0 KECCAK256 SWAP1 POP SWAP2 SWAP1 POP JUMP JUMPDEST PUSH1 0x1F DUP3 GT ISZERO PUSH2 0x4DD8 JUMPI PUSH2 0x4DA9 DUP2 PUSH2 0x4D82 JUMP JUMPDEST PUSH2 0x4DB2 DUP5 PUSH2 0x4B19 JUMP JUMPDEST DUP2 ADD PUSH1 0x20 DUP6 LT ISZERO PUSH2 0x4DC1 JUMPI DUP2 SWAP1 POP JUMPDEST PUSH2 0x4DD5 PUSH2 0x4DCD DUP6 PUSH2 0x4B19 JUMP JUMPDEST DUP4 ADD DUP3 PUSH2 0x4C00 JUMP JUMPDEST POP POP JUMPDEST POP POP POP JUMP JUMPDEST PUSH2 0x4DE6 DUP3 PUSH2 0x45E4 JUMP JUMPDEST PUSH8 0xFFFFFFFFFFFFFFFF DUP2 GT ISZERO PUSH2 0x4DFF JUMPI PUSH2 0x4DFE PUSH2 0x4066 JUMP JUMPDEST JUMPDEST PUSH2 0x4E09 DUP3 SLOAD PUSH2 0x4709 JUMP JUMPDEST PUSH2 0x4E14 DUP3 DUP3 DUP6 PUSH2 0x4D97 JUMP JUMPDEST PUSH1 0x0 PUSH1 0x20 SWAP1 POP PUSH1 0x1F DUP4 GT PUSH1 0x1 DUP2 EQ PUSH2 0x4E47 JUMPI PUSH1 0x0 DUP5 ISZERO PUSH2 0x4E35 JUMPI DUP3 DUP8 ADD MLOAD SWAP1 POP JUMPDEST PUSH2 0x4E3F DUP6 DUP3 PUSH2 0x4C94 JUMP JUMPDEST DUP7 SSTORE POP PUSH2 0x4EA7 JUMP JUMPDEST PUSH1 0x1F NOT DUP5 AND PUSH2 0x4E55 DUP7 PUSH2 0x4D82 JUMP JUMPDEST PUSH1 0x0 JUMPDEST DUP3 DUP2 LT ISZERO PUSH2 0x4E7D JUMPI DUP5 DUP10 ADD MLOAD DUP3 SSTORE PUSH1 0x1 DUP3 ADD SWAP2 POP PUSH1 0x20 DUP6 ADD SWAP5 POP PUSH1 0x20 DUP2 ADD SWAP1 POP PUSH2 0x4E58 JUMP JUMPDEST DUP7 DUP4 LT ISZERO PUSH2 0x4E9A JUMPI DUP5 DUP10 ADD MLOAD PUSH2 0x4E96 PUSH1 0x1F DUP10 AND DUP3 PUSH2 0x4C76 JUMP JUMPDEST DUP4 SSTORE POP JUMPDEST PUSH1 0x1 PUSH1 0x2 DUP9 MUL ADD DUP9 SSTORE POP POP POP JUMPDEST POP POP POP POP POP POP JUMP JUMPDEST PUSH32 0x41646472657373206973206E6F7420616E20696E737469747574696F6E000000 PUSH1 0x0 DUP3 ADD MSTORE POP JUMP JUMPDEST PUSH1 0x0 PUSH2 0x4EE5 PUSH1 0x1D DUP4 PUSH2 0x3CFD JUMP JUMPDEST SWAP2 POP PUSH2 0x4EF0 DUP3 PUSH2 0x4EAF JUMP JUMPDEST PUSH1 0x20 DUP3 ADD SWAP1 POP SWAP2 SWAP1 POP JUMP JUMPDEST PUSH1 0x0 PUSH1 0x20 DUP3 ADD SWAP1 POP DUP2 DUP2 SUB PUSH1 0x0 DUP4 ADD MSTORE PUSH2 0x4F14 DUP2 PUSH2 0x4ED8 JUMP JUMPDEST SWAP1 POP SWAP2 SWAP1 POP JUMP JUMPDEST PUSH1 0x0 DUP2 SWAP1 POP SWAP2 SWAP1 POP JUMP JUMPDEST PUSH1 0x0 PUSH8 0xFFFFFFFFFFFFFFFF DUP3 AND SWAP1 POP SWAP2 SWAP1 POP JUMP JUMPDEST PUSH1 0x0 PUSH2 0x4F54 PUSH2 0x4F4F PUSH2 0x4F4A DUP5 PUSH2 0x4F1B JUMP JUMPDEST PUSH2 0x4B88 JUMP JUMPDEST PUSH2 0x4F25 JUMP JUMPDEST SWAP1 POP SWAP2 SWAP1 POP JUMP JUMPDEST PUSH2 0x4F64 DUP2 PUSH2 0x4F39 JUMP JUMPDEST DUP3 MSTORE POP POP JUMP JUMPDEST PUSH1 0x0 PUSH1 0x20 DUP3 ADD SWAP1 POP PUSH2 0x4F7F PUSH1 0x0 DUP4 ADD DUP5 PUSH2 0x4F5B JUMP JUMPDEST SWAP3 SWAP2 POP POP JUMP JUMPDEST PUSH32 0x41646472657373206973206E6F742061206D616E616765720000000000000000 PUSH1 0x0 DUP3 ADD MSTORE POP JUMP JUMPDEST PUSH1 0x0 PUSH2 0x4FBB PUSH1 0x18 DUP4 PUSH2 0x3CFD JUMP JUMPDEST SWAP2 POP PUSH2 0x4FC6 DUP3 PUSH2 0x4F85 JUMP JUMPDEST PUSH1 0x20 DUP3 ADD SWAP1 POP SWAP2 SWAP1 POP JUMP JUMPDEST PUSH1 0x0 PUSH1 0x20 DUP3 ADD SWAP1 POP DUP2 DUP2 SUB PUSH1 0x0 DUP4 ADD MSTORE PUSH2 0x4FEA DUP2 PUSH2 0x4FAE JUMP JUMPDEST SWAP1 POP SWAP2 SWAP1 POP JUMP JUMPDEST PUSH32 0x43726564656E7469616C20697320616C7265616479205245564F4B4544000000 PUSH1 0x0 DUP3 ADD MSTORE POP JUMP JUMPDEST PUSH1 0x0 PUSH2 0x5027 PUSH1 0x1D DUP4 PUSH2 0x3CFD JUMP JUMPDEST SWAP2 POP PUSH2 0x5032 DUP3 PUSH2 0x4FF1 JUMP JUMPDEST PUSH1 0x20 DUP3 ADD SWAP1 POP SWAP2 SWAP1 POP JUMP JUMPDEST PUSH1 0x0 PUSH1 0x20 DUP3 ADD SWAP1 POP DUP2 DUP2 SUB PUSH1 0x0 DUP4 ADD MSTORE PUSH2 0x5056 DUP2 PUSH2 0x501A JUMP JUMPDEST SWAP1 POP SWAP2 SWAP1 POP JUMP JUMPDEST PUSH1 0x0 PUSH1 0x60 DUP3 ADD SWAP1 POP PUSH2 0x5072 PUSH1 0x0 DUP4 ADD DUP7 PUSH2 0x45D5 JUMP JUMPDEST PUSH2 0x507F PUSH1 0x20 DUP4 ADD DUP6 PUSH2 0x45D5 JUMP JUMPDEST DUP2 DUP2 SUB PUSH1 0x40 DUP4 ADD MSTORE PUSH2 0x5091 DUP2 DUP5 PUSH2 0x3D49 JUMP JUMPDEST SWAP1 POP SWAP5 SWAP4 POP POP POP POP JUMP JUMPDEST PUSH1 0x0 DUP2 MLOAD SWAP1 POP PUSH2 0x50AA DUP2 PUSH2 0x3E63 JUMP JUMPDEST SWAP3 SWAP2 POP POP JUMP JUMPDEST PUSH1 0x0 PUSH1 0x20 DUP3 DUP5 SUB SLT ISZERO PUSH2 0x50C6 JUMPI PUSH2 0x50C5 PUSH2 0x3C2D JUMP JUMPDEST JUMPDEST PUSH1 0x0 PUSH2 0x50D4 DUP5 DUP3 DUP6 ADD PUSH2 0x509B JUMP JUMPDEST SWAP2 POP POP SWAP3 SWAP2 POP POP JUMP JUMPDEST PUSH1 0x0 PUSH1 0x40 DUP3 ADD SWAP1 POP PUSH2 0x50F2 PUSH1 0x0 DUP4 ADD DUP6 PUSH2 0x3E39 JUMP JUMPDEST PUSH2 0x50FF PUSH1 0x20 DUP4 ADD DUP5 PUSH2 0x3ED9 JUMP JUMPDEST SWAP4 SWAP3 POP POP POP JUMP JUMPDEST PUSH1 0x0 DUP2 MLOAD SWAP1 POP PUSH2 0x5115 DUP2 PUSH2 0x3F03 JUMP JUMPDEST SWAP3 SWAP2 POP POP JUMP JUMPDEST PUSH1 0x0 PUSH1 0x20 DUP3 DUP5 SUB SLT ISZERO PUSH2 0x5131 JUMPI PUSH2 0x5130 PUSH2 0x3C2D JUMP JUMPDEST JUMPDEST PUSH1 0x0 PUSH2 0x513F DUP5 DUP3 DUP6 ADD PUSH2 0x5106 JUMP JUMPDEST SWAP2 POP POP SWAP3 SWAP2 POP POP JUMP JUMPDEST PUSH32 0x4E487B7100000000000000000000000000000000000000000000000000000000 PUSH1 0x0 MSTORE PUSH1 0x11 PUSH1 0x4 MSTORE PUSH1 0x24 PUSH1 0x0 REVERT JUMPDEST PUSH1 0x0 PUSH2 0x5182 DUP3 PUSH2 0x3DA4 JUMP JUMPDEST SWAP2 POP PUSH32 0xFFFFFFFFFFFFFFFFFFFFFFFFFFFFFFFFFFFFFFFFFFFFFFFFFFFFFFFFFFFFFFFF DUP3 SUB PUSH2 0x51B4 JUMPI PUSH2 0x51B3 PUSH2 0x5148 JUMP JUMPDEST JUMPDEST PUSH1 0x1 DUP3 ADD SWAP1 POP SWAP2 SWAP1 POP JUMP JUMPDEST PUSH1 0x0 PUSH1 0x80 DUP3 ADD SWAP1 POP PUSH2 0x51D4 PUSH1 0x0 DUP4 ADD DUP8 PUSH2 0x3E39 JUMP JUMPDEST PUSH2 0x51E1 PUSH1 0x20 DUP4 ADD DUP7 PUSH2 0x3E39 JUMP JUMPDEST PUSH2 0x51EE PUSH1 0x40 DUP4 ADD DUP6 PUSH2 0x432D JUMP JUMPDEST DUP2 DUP2 SUB PUSH1 0x60 DUP4 ADD MSTORE PUSH2 0x5200 DUP2 DUP5 PUSH2 0x4600 JUMP JUMPDEST SWAP1 POP SWAP6 SWAP5 POP POP POP POP POP JUMP JUMPDEST PUSH1 0x0 DUP2 MLOAD SWAP1 POP PUSH2 0x521A DUP2 PUSH2 0x3C63 JUMP JUMPDEST SWAP3 SWAP2 POP POP JUMP JUMPDEST PUSH1 0x0 PUSH1 0x20 DUP3 DUP5 SUB SLT ISZERO PUSH2 0x5236 JUMPI PUSH2 0x5235 PUSH2 0x3C2D JUMP JUMPDEST JUMPDEST PUSH1 0x0 PUSH2 0x5244 DUP5 DUP3 DUP6 ADD PUSH2 0x520B JUMP JUMPDEST SWAP2 POP POP SWAP3 SWAP2 POP POP JUMP JUMPDEST PUSH1 0x0 PUSH1 0x40 DUP3 ADD SWAP1 POP PUSH2 0x5262 PUSH1 0x0 DUP4 ADD DUP6 PUSH2 0x3E39 JUMP JUMPDEST PUSH2 0x526F PUSH1 0x20 DUP4 ADD DUP5 PUSH2 0x432D JUMP JUMPDEST SWAP4 SWAP3 POP POP POP JUMP JUMPDEST PUSH1 0x0 DUP2 SWAP1 POP SWAP3 SWAP2 POP POP JUMP JUMPDEST PUSH1 0x0 PUSH2 0x528C DUP3 PUSH2 0x45E4 JUMP JUMPDEST PUSH2 0x5296 DUP2 DUP6 PUSH2 0x5276 JUMP JUMPDEST SWAP4 POP PUSH2 0x52A6 DUP2 DUP6 PUSH1 0x20 DUP7 ADD PUSH2 0x3D0E JUMP JUMPDEST DUP1 DUP5 ADD SWAP2 POP POP SWAP3 SWAP2 POP POP JUMP JUMPDEST PUSH1 0x0 PUSH2 0x52BE DUP3 DUP5 PUSH2 0x5281 JUMP JUMPDEST SWAP2 POP DUP2 SWAP1 POP SWAP3 SWAP2 POP POP JUMP JUMPDEST PUSH1 0x0 PUSH1 0xFF DUP3 AND SWAP1 POP SWAP2 SWAP1 POP JUMP JUMPDEST PUSH2 0x52DF DUP2 PUSH2 0x52C9 JUMP JUMPDEST DUP3 MSTORE POP POP JUMP JUMPDEST PUSH1 0x0 PUSH1 0x80 DUP3 ADD SWAP1 POP PUSH2 0x52FA PUSH1 0x0 DUP4 ADD DUP8 PUSH2 0x3ED9 JUMP JUMPDEST PUSH2 0x5307 PUSH1 0x20 DUP4 ADD DUP7 PUSH2 0x52D6 JUMP JUMPDEST PUSH2 0x5314 PUSH1 0x40 DUP4 ADD DUP6 PUSH2 0x3ED9 JUMP JUMPDEST PUSH2 0x5321 PUSH1 0x60 DUP4 ADD DUP5 PUSH2 0x3ED9 JUMP JUMPDEST SWAP6 SWAP5 POP POP POP POP POP JUMP INVALID LOG2 PUSH5 0x6970667358 0x22 SLT KECCAK256 ORIGIN 0xEE 0xE1 0x23 SHL 0xF9 0xB0 0xD2 PUSH8 0x1D44943DBFE13B2D PUSH11 0xF1C3916AD4DF0BA840728E 0xDA MSTORE8 MUL PUSH5 0x736F6C6343 STOP ADDMOD SHL STOP CALLER "},"methodIdentifiers":{"DEFAULT_ADMIN_ROLE()":"a217fddf","INSTITUTION_ROLE()":"1b929c21","MANAGER_ROLE()":"ec87621c","UPGRADE_INTERFACE_VERSION()":"ad3cb1cc","approve(address,uint256)":"095ea7b3","balanceOf(address)":"70a08231","credentials(uint256)":"e0574e3f","getApproved(uint256)":"081812fc","getRoleAdmin(bytes32)":"248a9ca3","grantRole(bytes32,address)":"2f2ff15d","hasRole(bytes32,address)":"91d14854","initialize()":"8129fc1c","isApprovedForAll(address,address)":"e985e9c5","issueCredential(address,string,bytes32,bytes)":"593dc75c","name()":"06fdde03","ownerOf(uint256)":"6352211e","pause()":"8456cb59","paused()":"5c975abb","proxiableUUID()":"52d1902d","registerInstitution(address)":"f06d80fc","registerManager(address)":"2b2da97e","renounceRole(bytes32,address)":"36568abe","revokeCredential(uint256,string)":"957a3205","revokeInstitution(address,string)":"7baa47d9","revokeManager(address,string)":"896695de","revokeRole(bytes32,address)":"d547741f","safeTransferFrom(address,address,uint256)":"42842e0e","safeTransferFrom(address,address,uint256,bytes)":"b88d4fde","setApprovalForAll(address,bool)":"a22cb465","supportsInterface(bytes4)":"01ffc9a7","symbol()":"95d89b41","tokenURI(uint256)":"c87b56dd","transferFrom(address,address,uint256)":"23b872dd","unpause()":"3f4ba83a","upgradeToAndCall(address,bytes)":"4f1ef286","verifyCredential(uint256,bytes32)":"1b9519a8","verifySignature(bytes32,address,bytes)":"98a3410d"}}}}}